:0400000057EF00F0C6
:060008004682AFEF12F08A
:100018004680D8CF17F0E8CF18F0E0CF19F0F2BA41
:10002800F2A404D0F294390ED66EC2829DB09EA07E
:1000380006D09E9001012C2B2B2B010E2A6F9DB20E
:100048009EA229D09E9201019F4BA02B0E0E9F5D70
:10005800030EA05905E39F6BA06B010EA26FCA9413
:10006800295119E0CA843B4A3C2A910E3B5C010E97
:100078003C5802E28B8A0FD0910E3B5C010E3C5833
:1000880007E3200E3B5C030E3C5802E28B9A03D038
:100098008B9A3B6A3C6A19C0E0FF18C0E8FF17C09A
:1000A800D8FF46901000AFEF1BF00AEC14F0C0EC3C
:1000B80004F0D00E0001F96FC90EE82EFED7F92F13
:1000C800FCD700F000F0010E1E6E0DEC1DF0F00ED6
:1000D800236E7E0E246ED9EC16F0BDEC04F00DEC08
:1000E8001DF009EC0CF0620ED76F7F0ED86FC90EA9
:1000F800D96F7F0EDA6FEAEC1CF00FEC0CF0D9EC3C
:1001080016F0BAEC04F00DEC1DF009EC0CF0DB0E67
:10011800D76F7F0ED86F0D0ED96F7E0EDA6F190E5E
:10012800DB6F7E0EDC6FEAEC1CF00FEC0CF0D9EC08
:1001380016F0A30E0001FA6F570EF96F020EE82EA3
:10014800FED7F92FFCD7FA2FFAD700F004003AECC3
:100158001FF01B6A030E1A6E46EC1FF00101276F91
:100168001B6A040E1A6E46EC1FF00101256F1B6A0C
:10017800020E1A6E46EC1FF00101216F21C116F123
:10018800176B1B6A1A6A46EC1FF001011F6F1B6A86
:10019800010E1A6E46EC1FF001011E6FA2DB04EC83
:1001A8001CF0B8DB040001012A5103E08DEC1DF0BE
:1001B8002A6B5BEC1FF0226F9D0E0001606F010E31
:1001C800616FA10E626F010E636FA20E646F010E64
:1001D800656F9F0E666F010E676FA7EC14F0010143
:1001E800236F255116E027510001F96FFA6B9DC165
:1001F8001AF09EC11BF006EC14F0C5EC1CF00001CF
:10020800F9511A5CFA511B5804E3010E01011C6FE5
:10021800296F0101230502E1010E286F030E23193E
:1002280002E1030E286F67EC1EF0202720B11BD0D7
:10023800205119E020AF0AD044A404D0F60E1627A6
:10024800FF0E09D01607D8A0170709D044A405D077
:100258000A0E1627000E172302D0164B172B206BF9
:10026800449A44882B6B405001E023D3320E411846
:1002780001E01FD310C11AF011C11BF012C11CF00C
:1002880013C11DF01AC11EF01BC11FF0206A216A9C
:1002980010EC1BF01AC00CF11BC00DF11CC00EF1C4
:1002A8001DC00FF10CC11AF00DC11BF00EC11CF0DE
:1002B8000FC11DF0000E52EC16F01AC08FF01BC0D3
:1002C80090F01CC091F01DC092F046EC0CF08FC06D
:1002D800BCF090C0BDF091C0BEF092C0BFF028EC59
:1002E80019F0BCC09BF1BDC09CF1D89001019C31B4
:1002F8000001F96F01019B319B6FF9C09CF100016E
:10030800666B676B5C0E686F430E696F9BC11AF072
:100318009CC11BF01C6A1D6A000E52EC16F01AC034
:100328006AF01BC06BF01CC06CF01DC06DF04CEC8B
:1003380010F066C008F167C009F168C00AF169C029
:100348000BF10101106B116B126B136B010E406EF8
:100358001C5105E0255103E0396A3A6A4ED044B68B
:100368003DD0F2DA21511A6E1B6A1C6A1D6A010E11
:1003780052EC16F01AC066F01BC067F01CC068F09B
:100388001DC069F037EC0FF066C0F0F167C0F1F1FD
:1003980068C0F2F169C0F3F1836B846B856B3F0E23
:1003A800866FD2DAF0C166F0F1C167F0F2C168F089
:1003B800F3C169F037EC0FF0D0DA09EC0EF07FC02A
:1003C800BCF080C0BDF081C0BEF082C0BFF028EC98
:1003D80019F0BCC039F0BDC03AF004D0000E3A6E36
:1003E800640E396E3A5003E1650E395C05E33A6AEA
:1003F800640E396E449C01D0448C89B604D0000147
:10040800F96BF92B02D00001F96BF947F947F94765
:100418008950F919F70BF919896E26EC0CF09BC174
:100428006BF09CC16CF0395060EC13F067C018F1A8
:1004380068C019F13ED2050E01012C6503D02C6B62
:100448006EEC0AF0010117AF03D0166B176B0AD0D8
:1004580017BF08D0175103E1650E165D03E3176B4C
:10046800640E166F220507E116C121F1448A4496ED
:100478001C6B296B8B9A020E221901E093D63AEC79
:100488001FF0030E01011D6F020E1E6E050E0DEC0E
:100498001DF0040E55EC1FF0050E55EC1FF0050E6F
:1004A80055EC1FF0050E55EC1FF0050E55EC1FF02E
:1004B800200E55EC1FF0060E55EC1FF0200E55ECE3
:1004C8001FF0050E55EC1FF0050E55EC1FF0050E3C
:1004D80055EC1FF0050E55EC1FF0030E55EC1FF000
:1004E8000101166B88D0010117BF08D0175103E12D
:1004F800050E165D03E3176B040E166F17AF32D0A7
:10050800166B176B2FD032DA0DEC1DF0C60E236E6A
:100518007E0E246ED9EC16F031D028DA0DEC1DF0E1
:10052800DB0E236E7E0E246ED9EC16F027D01EDA71
:100538000DEC1DF0B10E236E7E0E246ED9EC16F074
:100548001DD014DA0DEC1DF023DAD9EC16F016D014
:100558000DDA0DEC1DF05A0E236E7E0E246ED9ECCA
:1005680016F00CD00EDA0AE1F951CDE0010AD5E017
:10057800030ADDE0010AE5E0070AEAE001012205D5
:100588005DE010D6396A3A6A3AEC1FF01FC116F1DD
:100598000101176B4482EDD90DEC1DF0FED9D9ECA1
:1005A80016F0E4D90DEC1DF0190E236E7F0E246EA3
:1005B800D9EC16F040EC0CF00DEC1DF0530E236E48
:1005C8007F0E246ED9EC16F0010E01011D6FEAD5DD
:1005D80001011D6B21C11AF0020EFCEC1EF0CCD9F2
:1005E8003AEC1FF0DFD501011D6B3AEC1FF0448691
:1005F80021C116F10101176BD5D5040E01011D6F3C
:100608003AEC1FF027C126F1449026C116F10101EA
:10061800176B25C124F1010E1E6E0DEC1DF0B8D923
:10062800D9EC16F0A6D90DEC1DF0030E55EC1FF011
:10063800B9D501011D6B3AEC1FF0DAD7A2D901E058
:10064800B1D5F9519FE0010AC3E0030ACCE0010AE1
:10065800D4E0070AEEE0A6D544A212D0010117BFE4
:1006680008D0175103E1640E165D03E3176B630EA0
:10067800166F17AF02D0166B176B16C11FF133D068
:10068800010117BF09D0175103E1640E165D04E399
:10069800000E176F630E166F17BF05D017510DE1C7
:1006A8000A0E165D0AE217BF08D0175103E1060EBD
:1006B800165D03E3166B176B10D017BF0ED01751DA
:1006C80002E116050AE317BF05D0175106E1050E2A
:1006D800165D03E2176B0A0E166F17AF02D0166B82
:1006E800176B16C11EF12BD9050ED76F7F0ED86F69
:1006F8001FC1D9F1DA6B1EC1DBF1DC6BEAEC1CF02F
:10070800010E1E6E0DEC1DF00FEC0CF0D9EC16F07E
:10071800010122051DE144B202D0448201D0449275
:1007280044A209D026D90DEC1DF037D9D9EC16F022
:100738001FC116F10BD01DD90DEC1DF0400E236E14
:100748007F0E246ED9EC16F01EC116F10101176B4D
:10075800020E221901E026D53AEC1FF001011D6BAB
:10076800C0D804EC1CF0D6D81FC11AF0000EFCEC5F
:100778001EF01EC11AF0010EFCEC1EF0FDD84494C8
:1007880011D544B012D0010117BF08D0175103E1A9
:100798006A0E165D03E3176B690E166F17AF02D06A
:1007A800166B176B16C126F109D0010120BF246B07
:1007B8002051800A7F0F02E3010E246FC0D8710E0A
:1007C800D76F7F0ED86F26C1D9F1DA6BDC6B070EB5
:1007D800DB6FDE6B430EDD6FEAEC1CF0020E1E6E63
:1007E8000DEC1DF00FEC0CF0D9EC16F001012451C2
:1007F80004E1F50EF46F7F0E03D0FC0EF46F7F0E4C
:10080800F56F9DD8A00ED76F7F0ED86FF4C1D9F1C0
:10081800F5C1DAF1EAEC1CF0030E1E6E020E0DECC7
:100828001DF00FEC0CF0D9EC16F00101220526E1C1
:1008380044B002D0448001D0449044A00DD096D852
:100848000DEC1DF0030E55EC1FF093D80DEC1DF0C8
:10085800200E55EC1FF012D001012651166F176BB0
:1008680016BF170786D80DEC1DF0030E55EC1FF0C8
:100878007DD80DEC1DF0200E55EC1FF0020E010185
:10088800221901E08FD43AEC1FF001011D6B21C140
:1008980016F1176B26C127F124C125F127C11AF0DB
:1008A800030EFCEC1EF025C11AF0040EFCEC1EF041
:1008B80079D401011D510001F96FFA6BFA5101E079
:1008C80071D4F95101E1B7D5010A01E1C5D6030A8E
:1008D80001E168D4010A01E106D6070A01E151D70E
:1008E80061D41E510A0DF3CFF9F0F4CFFAF0000EDF
:1008F8000001FABFFF0EFB6FFC6F01011F511A6E5A
:100908001B6A1C6A1D6AE80E1E6E030E1F6E206AA3
:10091800216A030C0001F9511A240101046F000136
:10092800FA511B200101056F0001FB511C20010138
:10093800066F0001FC511D200101076F12007D0E9A
:10094800D56F010ED66F120008C16AF009C16BF0AD
:100958000AC16CF00BC16DF0120066C07FF067C071
:1009680080F068C081F069C082F01200030E1E6E2C
:10097800010C020E1E6E010C21C116F10101176B4C
:10098800120016C1F9F017C1FAF00001FA5112006D
:100998009C0E236E7E0E246E12002D0E236E7F0E8B
:1009A800246E12000101B76BB86BC6C0C9F1C7C08D
:1009B800CAF1C8C0CBF1C9C0CCF1CCAF15D0B86B67
:1009C800010EB76FC9C11AF0CAC11BF0CBC11CF028
:1009D800CCC11DF00EEC1FF01AC0C9F11BC0CAF142
:1009E8001CC0CBF11DC0CCF1CF6BD06B2DC0BBF1BF
:1009F8002EC0BCF1B751B81102E131A410D0B751E3
:100A0800B81103E1A46B2B0E02D0A46B2D0EA36FBB
:100A1800A3C12DF1CF4BD02BBB07D8A0BC0720DB3F
:100A280026EC18F01A041B102EE1BF0EB0DA0BE109
:100A38001A0ECD5D08E2DFDAE10E1C6E7F0E1D6E28
:100A4800A0EC1CF007D0D7DAE90E1C6E7F0E1D6EE5
:100A5800A0EC1CF00101FD0EBB27FF0EBC23C4C097
:100A680067F0C5C068F02D0E0001696F010E6A6F4E
:100A7800BBC16BF0BCC16CF092EC1AF067C0C4F05B
:100A880068C0C5F01200ECDA26EC18F01A501B10FA
:100A980016E1BF0E7CDA0BE11A0ECD5D08E2ABDA87
:100AA800E50E1C6E7F0E1D6EA0EC1CF0D3D7A3DAEA
:100AB800ED0E1C6E7F0E1D6EA0EC1CF0CBD7010155
:100AC8000EDBC9C11AF0CAC11BF0CBC11CF0CCC1E6
:100AD8001DF018DB80EC1BF010E32DD09EDAADDAA8
:100AE80037EC0FF066C0D1F167C0D2F168C0D3F11E
:100AF80069C0D4F10101CD4BCE2BC4DA00019DDAD7
:100B08008CDA37EC0FF0B5DAC1EC19F008E3E6D768
:100B18000DDA4CEC10F077DACD07D8A0CE07B2DAB0
:100B2800D1C183F0D2C184F0D3C185F0D4C186F09D
:100B3800C1EC19F0EDE3CAC020F0216AE5EC1DF024
:100B480020500101BE6FBEC1BDF1670EBE1916E18E
:100B58002F50301004E1000E306E010E2F6E30BEA3
:100B680004D0305006E12F0404E2BA6B060EB96FC8
:100B780008D02FC0B9F130C0BAF103D030BEF5D7D4
:100B8800F8D7670EBE1924E1CEAF05D0FC0ECD5DB7
:100B9800FF0ECE591AE30001CB69CC69B9C1CDF07B
:100BA800BAC1CEF0CB51CD27CC51CE230101CD51C6
:100BB8000001CD5DCE51800ACF6F0101CE51800A70
:100BC8000001CF5902E3660E01D0650E0101BD6F29
:100BD800B9C1AFF1BAC1B0F1670EBE1905E1660E31
:100BE800BD1904E1CEAF02D0AF4BB02B660EBD19D4
:100BF80009E1CEBF74DA670EBE1904E0CD51AF2704
:100C0800CE51B023C76BC86BC9C1BFF1CAC1C0F10F
:100C1800CBC1C1F1CCC1C2F1D1C1B1F1D2C1B2F1E4
:100C2800D3C1B3F1D4C1B4F117D0D4D94CEC10F07E
:100C380032DAF1EC11F0BDD928EC19F05EDA85D979
:100C480037EC0FF031DAC8EC1DF098D96FD94CECBD
:100C580010F0D9D9C74BC82BF7D9E7E3DED96A6BAF
:100C68006B6BA00E6C6F400E6D6F37EC0FF066C0AB
:100C7800C3F167C0C4F168C0C5F169C0C6F126DA1E
:100C8800C3C183F0C4C184F0C5C185F0C6C186F074
:100C9800C1EC19F002E2010116D0BFC11AF0C0C1BF
:100CA8001BF0C1C11CF0C2C11DF0C3C11EF0C4C1FC
:100CB8001FF0C5C120F0C6C121F080EC1BF007E38E
:100CC8000101B5B104D0C36BC46BC56BC66BC9C198
:100CD8007FF0CAC180F0CBC181F0CCC182F0C3C122
:100CE80083F0C4C184F0C5C185F0C6C186F009ECA3
:100CF8000EF07FC0BFF180C0C0F181C0C1F182C0D9
:100D0800C2F1E4D99AD9D9D937EC0FF0B2D9C1ECEC
:100D180019F016E30101CD4BCE2BCFD900018DD9A7
:100D280037EC0FF066C0B1F167C0B2F168C0B3F13B
:100D380069C0B4F1660E0101BD1902E1AF4BB02BD9
:100D4800B1C1D1F1B2C1D2F1B3C1D3F1B4C1D4F1BF
:100D5800650E0101BD1905E0CDC1ADF1CEC1AEF101
:100D680002D0AD6BAE6BAB6BAC6BA96BAA6BC76BF0
:100D7800C86B48D02FD94CEC10F08DD9F1EC11F09C
:100D880018D928EC19F0B9D931B80CD00101B551EE
:100D9800B61108E1670EBE1905E1AEAF03D0A94B45
:100DA800AA2B20D00101AB51AC1113E1AEAF11D089
:100DB800F9D82E0E9DD9D8A0BC07AC6B010EAB6F2D
:100DC80008D0F0D8300E94D9D8A0BC07A907D8A06D
:100DD800AA07A951AA11F5E1E5D8B551300F88D96C
:100DE800D8A0BC07B2D837EC0FF05ED9C8EC1DF01C
:100DF800C5D89CD84CEC10F006D9AD07D8A0AE07E2
:100E0800C74BC82B21D908E20101D0BFB3D7D051B5
:100E180003E14B0ECF5DAEE30101AB51AC1107E12D
:100E280031A805D0BFD82E0EDF6ECF4BD02BBAD845
:100E3800DF6A650EBD1901E012D6C86B4F0EC76F89
:100E4800F5D8DF6AB76BB86BCEAF07D0B86B010EB9
:100E5800B76FCD6DCE1FD8B0CE2BBA6B020EB96F5F
:100E680023D0C707D8A0C807E1D8CDC11AF0CEC192
:100E78001BF01D6A0A0E1C6E4CEC1BF01A50300F4A
:100E8800DF6ECDC11AF0CEC11BF01D6A0A0E1C6EB2
:100E9800D4EC1AF01AC0CDF11BC0CEF1B907D8A016
:100EA800BA07BB07D8A0BC07CD51CE11DAE1BABF4B
:100EB80004D0BA51D6E1B905D4E2C707D8A0C8070B
:100EC800B751B81103E1A66B2B0E02D0A66B2D0EFD
:100ED800A56FACD8A5C1DFFFBB07D8A0BC07C70763
:100EE800D8A0C807BF0E000152D803E11A0ECD5D85
:100EF80004E30101A86B650E03D00101A86B450E40
:100F0800A76F94D8A7C1DFFFBB07D8A0BC072D0ED9
:100F1800CF251A6E010ED0211B6E2D0EC7251C6E13
:100F2800010EC8211D6EA0EC1CF099D5D1C166F048
:100F3800D2C167F0D3C168F0D4C169F06A6B6B6B3A
:100F4800200E6C6F410E6D6F410CBFC18FF0C0C198
:100F580090F0C1C191F0C2C192F0D1C16AF0D2C182
:100F68006BF0D3C16CF0D4C16DF0C3C166F0C4C1DD
:100F780067F0C5C168F0C6C169F012008FC0BFF143
:100F880090C0C0F191C0C1F192C0C2F11200CB6F04
:100F9800CC69CA51CD6FCE6BCB51CD27CC51CE2366
:100FA800CE5112002D0ECF25D96E010ED021DA6E4A
:100FB80012007FC0C3F180C0C4F181C0C5F182C0F6
:100FC800C6F1C3C1BCF0C4C1BDF0C5C1BEF0C6C145
:100FD800BFF01200BFC166F0C0C167F0C1C168F0C0
:100FE800C2C169F0D1C16AF0D2C16BF0D3C16CF053
:100FF800D4C16DF012002D0E0101CF251A6E010E1D
:10100800D0211B6E120066C0D1F167C0D2F168C052
:10101800D3F169C0D4F101011200D1C166F0D2C187
:1010280067F0D3C168F0D4C169F012002D0EC7254E
:10103800D96E010EC821DA6E12006A6B6B6B200E36
:101048006C6F410E6D6F410CAF51C75DC851800A7E
:101058000001CB6F0101B051800A0001CB59120089
:10106800C9C11AF0CAC11BF0CBC11CF0CCC11DF01C
:10107800120066C083F067C084F068C085F069C05C
:1010880086F01200C9C17FF0CAC180F0CBC181F0DF
:10109800CCC182F0120066C07FF067C080F068C0E3
:1010A80081F069C082F0120066C093F067C094F0C6
:1010B80068C095F069C096F01200B1C166F0B2C17F
:1010C80067F0B3C168F0B4C169F01200BFC17FF026
:1010D800C0C180F0C1C181F0C2C182F01200D16BE1
:1010E800D26B800ED36F3F0ED46FCD6BCE6B1200D8
:1010F800DF6ECF4BD02BBB071200BCC0B5F1BDC013
:10110800B6F112001E6A1F6A206A216A120075D998
:10111800250A01E069D1A6D92D6A2E6A316A326A98
:101128002F683068E36BE46B20D031809BD91DD0E9
:101138003182FCD73184FAD73186F8D73188F6D78F
:10114800E46B010EE36F11D058D9D56FD66BD65129
:10115800F7E1D551200AF0E0030AF0E0080AEAE0D6
:10116800060AE3E01D0AE4E0EBD7E351E411ECE002
:1011780031B0319242D92A0A0FE1D2517AD947D9EE
:10118800DECF2DF0DDCF2EF02EAE16D031802D6CB7
:101198002E1ED8B02E2A10D08CD9C0EC17F067C0FC
:1011A8002DF068C02EF001D05DD967D926D979D93C
:1011B80003E10A0ED75DF8E320D92E0A1EE12F6A53
:1011C800306A50D91AD92A0A08E1D25152D91FD9FE
:1011D800DECF2FF0DDCF30F010D06BD9C0EC17F098
:1011E80067C02FF068C030F001D03CD946D905D986
:1011F80058D903E10A0ED75DF8E3FFD8206E216ABB
:10120800E5EC1DF02050EB6FEB5113E042D9D52BE4
:1012180038D95CD9E5EC1DF02050EC6FEC5109E0B1
:1012280038D9020ED5272DD951D9E5EC1DF020501B
:10123800ED6FE3D8630A12E1D2511BD9E8D8DF5029
:10124800EE6FD0C060F0D1C061F0EEC062F008EC83
:101258001AF060C0D0F061C0D1F01200660EEB1930
:1012680021E1D251D96EDA6ADECFF6FFDDCFF7FF82
:101278000800F5CFEEF0F6D8DCD8D0C0C4F0D1C065
:10128800C5F0E7C0C6F0E8C0C7F0E9C0C8F0EAC0DA
:10129800C9F0EEC0CAF0D6EC04F0C4C0D0F0C5C0A6
:1012A800D1F01200EB0E1A6E1B6AF90E1C6E7F0E3F
:1012B8001D6E1F6A020E1E6ED4EC18F01A501B1019
:1012C80015E10001E6D8D52BDCD8F5CFEEF0BF0E3E
:1012D800D56FD66992D8E5D800E1ABD8D251D96E8E
:1012E800DA6A020EDE26000EDD22C7D7000185D895
:1012F800730A13E0D251D96EDA6ADECF1AF0DDCF65
:101308001BF0F10E1C6E7F0E1D6E1F6A030E1E6E03
:10131800D4EC18F01A501B1024E100016ED8730A9F
:1013280003E0E66B030E02D0E66B010EE56FD251C7
:10133800D96EDA6AE551DE26E65169D8DECFE1F0EA
:10134800DDCFE2F0D0C060F0D1C061F0E1C062F062
:10135800E2C063F040EC15F060C0D0F061C0D1F09D
:10136800120000014AD8750A2CE1D25182D84FD810
:10137800DECFD7F0DDCFD8F0D7C0D9F0D8C0DAF0BB
:10138800DB6BDC6BDD6BDE6BDF6BE06BD0C071F0B1
:10139800D1C072F0D9C073F0DAC074F0DBC075F058
:1013A800DCC076F0DDC077F0DEC078F0DFC079F021
:1013B800E0C07AF02FEC11F071C0D0F072C0D1F01B
:1013C80012001BD8250A0CE14DD81C6A250E1B6E8D
:1013D80078D84DEC1AF00001D16B010ED06F010CDA
:1013E80041D8D06BD16B120008D81B6E1C6A69D823
:1013F8004DEC1AF0000136D8EED7D251D96EDA6A20
:10140800DECFF6FFDDCFF7FF0800F5501200DD2232
:10141800D3C0D9FFD4C0DAFFDFCFD5F0020EDE2665
:10142800DFCFD6F0000EDD22D5C0D9FFD6C0DAFF57
:10143800000CD3C0D9FFD4C0DAFFDFCFD5F0040E3B
:10144800DE26DFCFD6F0000EDD22D5C0D9FFD6C00C
:10145800DAFFDECFE7F0DECFE8F0DECFE9F0DECF6F
:10146800EAF0000CD251D96EDA6ADE2A000EDD22CB
:10147800000CD96EDA6ADE2A000CD00ED56FD66958
:10148800D00C000ED623D5C0F6FFD6C0F7FF080053
:10149800000CD251D96EDA6ADECFD5F0DDCFD6F0A6
:1014A8001200D76FD86BD551D727D651D823D8512A
:1014B8001200D251D96EDA6ADECF67F0DDCF68F05C
:1014C8001200D0C01DF0D1C01EF01200F550206EE1
:1014D800216A1200A3EC04F0B50ED76F7F0ED86F07
:1014E8009BC1D9F19CC1DAF1EAEC1CF0010E1E6E29
:1014F8000DEC1DF090D9D9EC16F044BC0AD0BFD938
:101508000DEC1DF08A0E236E7F0E246ED9EC16F0BA
:1015180009D0B5D90DEC1DF0950E236E7F0E246E03
:10152800D9EC16F072D9AB0ED76F7F0ED86F39C0D1
:10153800D9F13AC0DAF1EAEC1CF0020E1E6E0B0E7D
:101548000DEC1DF068D9D9EC16F05FD9D20ED76F23
:101558007F0ED86F08C1D9F109C1DAF10AC1DBF1F0
:101568000BC1DCF1EAEC1CF087D90DEC1DF053D966
:10157800D9EC16F0040E1E6E0C0E0DEC1DF0540E78
:1015880055EC1FF03A0E55EC1FF00101255101E111
:10159800B8D0280501E098D067D931D9C5EC1CF03E
:1015A80026D92EEC1DF0215022105AE11D6A640E36
:1015B80026D9C5EC1CF01BD92EEC1DF021502210A9
:1015C80023E11D6A0A0E1BD9C5EC1CF010D92EECBC
:1015D8001DF02150300F55EC1FF02E0E55EC1FF06A
:1015E8001FD92EEC1DF02150300F55EC1FF0070EBF
:1015F80055EC1FF0200E55EC1FF0200E55EC1FF097
:10160800200E55EC1FF092D01D6A640EF8D8C5EC78
:101618001CF0EDD82EEC1DF02150300F55EC1FF0CA
:101628001D6A0A0EECD8C5EC1CF0E1D82EEC1DF0B2
:101638002150300F55EC1FF02E0E55EC1FF0F0D84E
:101648002EEC1DF02150300F55EC1FF0070E55EC15
:101658001FF0200E55EC1FF0200E55EC1FF066D041
:1016680003D9CDD8C5EC1CF0C2D82EEC1DF0215002
:10167800300F55EC1FF01D6A640EC1D8C5EC1CF084
:10168800B6D82EEC1DF02150300F55EC1FF01D6A16
:101698000A0EB5D8C5EC1CF0AAD82EEC1DF02150C6
:1016A800300F55EC1FF02E0E55EC1FF0B9D82EEC6C
:1016B8001DF02150300F55EC1FF0070E55EC1FF0B0
:1016C800200E55EC1FF032D0030E28192FE13F0EE3
:1016D80055EC1FF03F0E55EC1FF03F0E55EC1FF078
:1016E800200E55EC1FF0200E55EC1FF0200E55EC87
:1016F8001FF0200E55EC1FF0010E0101296FCA845E
:1017080015D02D0E55EC1FF04F0E55EC1FF0460E60
:1017180055EC1FF0460E55EC1FF02D0E55EC1FF042
:10172800200E55EC1FF0200E55EC1FF0650E010140
:101738002B613BD044A839D085D800016C6BDC0EF6
:101748006B6F0101165160EC13F067C0F7F068C0C9
:10175800F8F05BD8700ED76F7E0E89D8F7C0DBF132
:10176800F8C0DCF165D8EAEC1CF0BAEC04F00DEC3A
:101778001DF051D8D9EC16F044AA05D046D86BD83C
:10178800EAEC1CF00BD041D87F0ED76F7F0ED86FD4
:1017980016C1D9F117C1DAF1EAEC1CF0BDEC04F07E
:1017A8000DEC1DF038D8D9EF16F0A3EC04F0860E36
:1017B800D76F7E0E5CD818C1DBF119C1DCF138D8BF
:1017C800EAEC1CF04498BAEC04F00DEC1DF023D8B8
:1017D800D9EC16F01AD83FD8EAEC1CF0BDEC04F0AE
:1017E8000DEC1DF018D8D9EC16F0C0EF04F01AC0B3
:1017F80021F01BC022F0246A0A0E236E0A0C1C6E0C
:101808009DC11AF09EC11BF012007D0E0101D56F1B
:10181800010ED66F12007D0E236E010E246E12008B
:101828009DC121F09EC122F0246A0A0E236E0A0C83
:10183800DE6B020EDD6F1FC1DFF1E06B1EC1E1F14F
:10184800E26B120004C167F005C168F006C169F0D7
:1018580007C16AF01200BF0ED76F7F0ED86F16C18E
:10186800D9F117C1DAF11200030E1D6EE80CD86F1A
:10187800DA6B010ED96F010C040E1E6E010C010EFD
:101888001E6E0B0C8FC0A0F090C0A1F091C0A2F00A
:1018980092C0A3F0A0C0B8F0A1C0B9F0A2C0BAF03D
:1018A800A3C0BBF0936B946B800EBA15A9D9800EB8
:1018B80095192CE17F0E96199311941127E18FC089
:1018C8006AF090C06BF091C06CF092C06DF08FC060
:1018D80066F090C067F091C068F092C069F037EC8C
:1018E8000FF0B1EC04F08FC083F090C084F091C089
:1018F80085F092C086F009EC0EF07FC08FF080C0B2
:1019080090F081C091F082C092F01200BBBF06D067
:10191800BB51BA11B91124E1B80522E26CD9BA5108
:101928006FD9935194119511961109E18FC08FF0D9
:1019380090C090F091C091F092C092F01200BBAFAD
:101948000FD06F0E1A6E7E0E1B6E1EEC1FF01AC0A3
:101958008FF01BC090F01CC091F01DC092F01200D7
:10196800170E936FB8C094F0B9C095F0BAC096F04E
:10197800BBC097F0936701D007D09735973396335C
:1019880095339433932FF6D794C0B0F095C0B1F047
:1019980096C0B2F097C0B3F00001B051B111B211C6
:1019A800B31125E19C6B9D6B9E6B9F6B0AD0D89001
:1019B800B837B937BA37BB379C2B000E9D239E2307
:1019C8009F23BAAFF4D7FF0E9C25936FFF0E9D217E
:1019D800946FFF0E9E21956FFF0E9F21966F935176
:1019E800B05F9451B15B9551B25B9651B35B810E78
:1019F800B027FF0EB123B223B323FDD87F0EBA154B
:101A0800956F000E966B9311B86F000E9411B96F15
:101A1800800E9511BA6F000E9611BB6FB0B1DBD86E
:101A2800B335B333B233B133B033D5D8986B996B80
:101A38009A6B9B6BA46BA56BA66BA76BB46BB56B12
:101A4800B66B010EB76F3BD09851B425A86F99516A
:101A5800B521A96F9A51B621AA6F9B51B721AB6FD7
:101A6800A851B85DA951B959AA51BA59BB51800AB0
:101A7800936FAB51800A93591CE3A851B425986F12
:101A8800A951B521996FAA51B6219A6FAB51B721C7
:101A98009B6FA851B85FA951B95BAA51BA5BAB510A
:101AA800BB5BB451A427B551A523B651A623B751A2
:101AB800A72391D8D890B733B633B533B433B451DC
:101AC800B511B611B711C0E1B851B911BA11BB11AE
:101AD80038E08AD8ACC07FF0ADC080F0AEC081F0ED
:101AE800AFC082F0836B846B800E856F3F0E866F6C
:101AF800C1EC19F026E378D87F6B806B800E816F7C
:101B08003F0E826FACC083F0ADC084F0AEC085F0EC
:101B1800AFC086F0C1EC19F006E2020EA427000E51
:101B2800A523A6230DD0010EA415936F946B956B76
:101B3800966B9351A4279451A5239551A6239651AA
:101B4800A723A4C093F0A5C094F0A6C095F0A7C0A1
:101B580096F096359633953394339333000E932548
:101B6800B86F000E9421B96F000E9521BA6F3F0E21
:101B78009621BB6FB0C093F0B1C094F0B2C095F09D
:101B8800B3C096F0170ED890933794379537963799
:101B9800E82EF9D79351B8279451B9239551BA2310
:101BA8009651BB23B8C0A0F0B9C0A1F0BAC0A2F04A
:101BB800BBC0A3F0A0C0ACF0A1C0ADF0A2C0AEF015
:101BC800A3C0AFF0ACC08FF0ADC090F0AEC091F044
:101BD800AFC092F01200B851B827B951B923BA5121
:101BE800BA23BB51BB231200AC6BAD6B800EAE6F3A
:101BF8003F0EAF6F3F0CB851936FB951946F1200FD
:101C0800956F7F0EBB15966F120000018251800BF5
:101C18008B6F825182258D6F81BF8D818D5105E03B
:101C28008D2901E106D9818F03D07F6B806B816B91
:101C3800826B8651800B8C6F8B1901E08B8D8651DE
:101C480086258C6F85BF8C818C5108E08C2904E136
:101C5800836B846B856B866B858F03D0836B846BFA
:101C6800856B866B8D518C5D22E28BAD02D0800E28
:101C78008B1B8DC08EF08CC08DF08EC08CF07FC019
:101C88008EF083C07FF08EC083F080C08EF084C059
:101C980080F08EC084F081C08EF085C081F08EC047
:101CA80085F082C08EF086C082F08EC086F08E6B82
:101CB8008D518CC087F0886B875F000E885B88BF6A
:101CC80015D0885103E11A0E875D10E3C7D8010EBD
:101CD800D8B4000E8E6FADD88CC08DF00AD08EA10E
:101CE80002D0B7D802D0D8908E339AD88C518D5D57
:101CF800F6E38BBD15D08D5101E1A6D083517F2726
:101D080084518023855181238651822382A153D017
:101D18008EA102D09ED802D0D8908E3381D84BD0D5
:101D280083517F5D84518059855181598251800A40
:101D3800876F8651800A87591FE27F51835D876FBD
:101D480080518459886F81518559896F825186598C
:101D58008A6FFF0E87257F6FFF0E8821806FFF0E29
:101D68008921816FFF0E8A21826F800E8B1B8E6DF9
:101D78008E510AE163D808D083517F5F8451805B1C
:101D88008551815B8651825B69D813E18E5111E1DF
:101D98005BD0D8907F378037813782378EBF7F817D
:101DA8008EA102D0D88001D0D8908E378D5101E015
:101DB8008D0781AFEED78C6B8EAF0AD08EC087F0BF
:101DC8007F0E871703E0010E8C6F02D07FB1FBD71F
:101DD8008C510BE033D882A108D08235823381330D
:101DE80080337F338D2901E08D2B8D2902E08D51C1
:101DF80004E11FD88D5101E18B6B8DA102D0818F39
:101E080001D0819FD8908D31826F8BBF828F7FC028
:101E18007FF080C080F081C081F082C082F0120023
:101E28007FB18E8F82358233813380337F338D2B20
:101E380012007F6B806B816B826B12007F2B000E10
:101E4800802381238223000C7F6B806B816B826BE4
:101E58001200D8908E3101098E6F12007F518011C7
:101E680081118211120000016951800B726F695152
:101E78006925746F68BF7481745105E0742901E1A4
:101E880002D9688F01D0FFD86D51800B721B6D513C
:101E98006D25736F6CBF7381735105E0732901E180
:101EA800EDD86C8F01D0EAD8735102E0745105E186
:101EB800666B676B686B696B12006C516603B1D80F
:101EC800756F766B776B786B7E51796F7A6B7B6BFE
:101ED8007C6B6B516703A5D8B2D86A516803A1D847
:101EE800AED8A5D86A5167039CD8B5D86B5166039C
:101EF80098D8B1D89CD86A51660393D8ACD86C519D
:101F080067038FD8B4D86B5168038BD8B0D86C519D
:101F1800680387D86E6F7E516F6F706B716B70C07E
:101F280071F06FC070F06EC06FF06E6B6E517927F4
:101F38006F517A2370517B2371517C237851792713
:101F480091D875D8735174C06EF06F6B6E27000E00
:101F58006F23820E6E257D6FFF0E6F217E6F0FD06F
:101F6800D89079377A377B377C3778BF7981D890A2
:101F780075377637773778377D07D8A07E077BAFF8
:101F8800EFD7736B78AF13D075516E6F76516F6F53
:101F98007751706F7F0E7815716F6E516F117011D8
:101FA800711103E0010E736F02D079B1FBD7735141
:101FB8000BE0792B57D87CA107D07C357C337B3359
:101FC8007A3379337D4B7E2B7EBF0AD07E5102E176
:101FD8007D2906E3796B7A6B800E7B6F7F0E15D0B7
:101FE8007EBF04D07E5108E17D0506E2796B7A6BED
:101FF8007B6B7C6B726B0AD07DC074F07F0E7B1795
:102008007C6B74B17B8FD89074317C6F72517C1368
:1020180079C066F07AC067F07BC068F07CC069F070
:102028001200F3CF7DF0F4CF7EF07D51120077C01F
:1020380078F076C077F075C076F0756B120075276A
:10204800000E7623772378237E517927000E7A2392
:102058007B237C23000C75277E517623000E772383
:102068007823000C000E7A237B237C23000C79272D
:102078007E517A23000E7B237C23000C6A6B6B6BEA
:102088006C6B6D6B1200666B676B686B696B12002B
:1020980000016951800B766F695169257D6F68BFB2
:1020A8007D817D5105E07D2901E1D0D8688F03D07D
:1020B800666B676B686B696B6D51800B761B6D5136
:1020C8006D257E6F6CBF7E817E5108E07E2904E11C
:1020D8006A6B6B6B6C6B6D6B6C8F03D06A6B6B6B25
:1020E8006C6B6D6B6A516B116C116D1110E1AED890
:1020F800800E68137F0E69137651691366C066F007
:1021080067C067F068C068F069C069F012007D5167
:1021180005E1666B676B686B696B12007E517DC069
:102128006EF06F6B6E5F000E6F5B7F0E6E25776FC4
:10213800000E6F21786F66C072F067C073F068C0D8
:1021480074F069C075F082D8796B7A6B7B6B7C6BA5
:102158007E6B1BD07E5106E0D89072377337743788
:10216800753767D86A51725D6B5173596C517459E0
:102178006D51755909E37C8D6A51725F6B51735BC0
:102188006C51745B6D51755B7E2B190E7E65E2D7C1
:10219800725173117411751106E0798104D049D810
:1021A8007707D8A0780768AFFAD77E6B7CAF13D0D3
:1021B80079516E6F7A516F6F7B51706F7F0E7C15FE
:1021C800716F6E516F117011711103E0010E7E6F06
:1021D80002D066B1FBD77E510EE0662B000E672356
:1021E8006823692369A107D0693569336833673380
:1021F8006633774B782B78BF07D0785102E177297F
:1022080003E3786B776922D878BF04D0785106E168
:10221800770504E2776B786B19D8766B77C07DF019
:102228007DA102D0688F01D0689FD8907D31696FF9
:1022380063D7D89066376737683769377CBF668158
:10224800D89079377A377B377C371200666B676BA3
:10225800686B696B120030AE319230BE04D03050DA
:1022680006E12F0404E2846B010E836F04D02FC0B3
:1022780083F030C084F02DC085F02EC086F073C086
:1022880087F074C088F075C089F076C08AF077C08E
:102298008BF078C08CF079C08DF07AC08EF0906B9E
:1022A8004F0E8F6F01017C6B68D08F07D8A0900705
:1022B8002D0E8F25D96E010E9021DA6E87C060F041
:1022C80088C061F089C062F08AC063F08BC064F096
:1022D8008CC065F08DC066F08EC067F00A0E686F1E
:1022E800696B6A6B6B6B6C6B6D6B6E6B6F6B7FEC9A
:1022F80018F060C07BF061C07CF062C07DF063C004
:102308007EF064C07FF065C080F066C081F067C071
:1023180082F07B51300FDF6E8307D8A084078507D2
:10232800D8A0860787C060F088C061F089C062F0D5
:102338008AC063F08BC064F08CC065F08DC066F015
:102348008EC067F00A0E686F696B6A6B6B6B6C6B9B
:102358006D6B6E6B6F6B59EC17F060C087F061C0E6
:1023680088F062C089F063C08AF064C08BF065C0F1
:102378008CF066C08DF067C08EF000018F5190110F
:1023880017E08751881189118A118B118C118D11D1
:102398008E118BE184BF04D0845187E1830585E2E7
:1023A80086BF06D0865102E1850502E331B27DD7AA
:1023B80071C067F072C068F02D0E8F25696F010E2D
:1023C80090216A6F85C06BF086C06CF092EC1AF0B1
:1023D80067C071F068C072F0120000C18FF001C1CF
:1023E80090F002C191F003C192F07FC08FF080C0DD
:1023F80090F081C091F082C092F0810E836F846961
:102408008FC085F090C086F091C087F092C088F0A8
:10241800180E05D0D8908833873386338533E82E55
:10242800F9D7855183258D6F000E84218E6F8EBF5D
:102438000ED08E5103E1170E8D5D09E37FC07FF04A
:1024480080C080F081C081F082C082F012008EBF0F
:1024580048D08DC083F0846985697F0E866F000E31
:10246800876F836701D007D08735873386338533F5
:102478008433832FF6D784C089F085C08AF086C05C
:102488008BF087C08CF0000189518F15836F8A51BA
:102498009015846F8B519115856F8C51921555D875
:1024A800CDE044D801D04BD8E82EFDD7835108E0C1
:1024B80089518F278A5190238B5191238C519223D4
:1024C800891D836F8A1D846F8B1D856F8C1D866F98
:1024D80083518F1784519017855191178651921700
:1024E8001CD024D801D02BD8E82EFDD7836705D07F
:1024F8008F6B906B916B926B10D0D8908F35836FE8
:102508009035846F9135856F92351FD806E08F6BB3
:10251800906B800E916FBF0E926F8FC07FF090C04E
:1025280080F091C081F092C082F012008FC083F0D9
:1025380090C084F091C085F092C086F0200CD890AD
:1025480086338533843383331200866F8351841135
:10255800851186111200F3CF0FF0F4CF10F0156A31
:10256800166A39503724136E3A503820146EF2B870
:10257800F2A258D014BE08D0145003E1320E135CF6
:1025880003E3166A010E156E4550016E026A01BE1C
:10259800020635C003F036C004F0E9EC1EF001C0B5
:1025A80011F002C012F011C001F012C002F015C003
:1025B80003F016C004F0E9EC1EF002BE06D002508B
:1025C80002E1010402E3156A166A1550161008E0C4
:1025D800898A9C0E1324376EFF0E1420386E05D09E
:1025E800899A13C037F014C038F0B1804550016E95
:1025F800026A01BE020615C003F016C004F0E9EC39
:102608001EF00150352602503622456C320E4160CC
:1026180001D0412A400405E1406A01011A6B1B6B95
:10262800416AF2929DBC9EAC3BD0320E416037D0DD
:10263800C350C4CF0DF00E6A0DC00EF00D6A0D2602
:10264800000E0E220DC029F00EC02AF02ABEFF0E81
:102658002B6E2C6E29C001F02AC002F02BC003F0AB
:102668002CC004F029C005F02AC006F02BC007F0E2
:102678002CC008F07AEC1CF001C029F002C02AF046
:1026880003C02BF004C02CF02950010110272A5058
:1026980011232B5012232C5013231A4B1B2B9E9CB7
:1026A800A0B2A1A203D0A192899AB19010C0F4FF60
:1026B8000FC0F3FF469211000001796F6BC01AF04A
:1026C8006CC01BF01C6A1D6A6BC01EF06CC01FF04A
:1026D800206A216A04EC1CF01AC073F01BC074F065
:1026E8001CC075F01DC076F073C01AF074C01BF0E2
:1026F80075C01CF076C01DF0E80E1E6E030E1F6E2E
:10270800206A216A04EC1CF01AC06FF01BC070F03C
:102718001CC071F01DC072F06FC01AF070C01BF0C1
:1027280071C01CF072C01DF067C01EF068C01FF0B9
:1027380069C020F06AC021F010EC1BF01AC07AF0D2
:102748001BC07BF01D6A0A0E1C6E246A640E54D8E6
:102758002EEC1DF021C01AF022C01BF0C5EC1CF0B5
:1027680042D8D6EC1EF061C077F062C078F01D6ADE
:10277800640E1C6E7AC01AF07BC01BF0C5EC1CF00E
:1027880032D8D6EC1EF061C06DF062C06EF077C032
:102798001AF078C01BF036D8C5EC1CF01A500001AE
:1027A8006D271B506E23246A0A0E26D82EEC1DF0C6
:1027B80021C061F022C062F079C063F00001646B4F
:1027C800D6EC1EF061C01AF062C01BF01D6A640EE0
:1027D8001C6EC5EC1CF01A5000016D25676F1B506C
:1027E8006E21686F12001AC061F01BC062F079C0D8
:1027F80063F00001646B1200236E7AC021F07BC085
:1028080022F012001D6A0A0E1C6E0A0CFC0ED3166A
:10281800700ED3129B8C170E926E806A896A826A38
:102828008B6A946A8B988B9AF19E380E7C6E816ABB
:102838008A6A3F0E936ED550F80B0309D56ED5966C
:10284800D59AD58CD58EF194390ED66EC050F80B2A
:102858000609C06EC70EC016C08EC16AC280C30EFC
:10286800C2167E809F8C9D8CCD92CD96300ECD1257
:10287800CD8E9D809F90CD80B18EB18CB192CF0EC0
:10288800B116A282A082CA50FC0B0209CA6E780E49
:10289800CA12CA949F929D82400ECB6EF288F19C18
:1028A800F292D08EF28AF28CF28E050E236E0F0E03
:1028B800226EF10EE82EFED7222EFCD7232EFAD751
:1028C80000F0CBEC15F0818EC2EC1EF0448A4496E1
:1028D800520E1E6E7E0E1F6E010E206E35EC1EF01F
:1028E8004A0E1E6E7E0E1F6E020E206E35EC1EF016
:1028F800420E1E6E7E0E1F6E030E206E35EC1EF00D
:102908003A0E1E6E7E0E1F6E040E206E35EC1EF003
:10291800320E1E6E7E0E1F6E050E206E35EC1EF0FA
:102928002A0E1E6E7E0E1F6E060E206E35EC1EF0F1
:10293800220E1E6E7E0E1F6E070E206E35EC1EF0E8
:10294800010E406E010C93D82B0EDF6E7BD053EC3A
:102958001CF00009D8A4030CCC0E6EEC1DF0440E3C
:102968006EEC1DF066C0D9FF67C0DAFFDF6A7AD85F
:10297800020EDF6ECA84000C53EC1CF0CC0E6EEC19
:102988001DF0BE0E6EEC1DF00001696B920E6925FC
:10299800D96EDA6A010EDA224EEC1DF0DF6E000104
:1029A800692B080E6965F2D7920E1A6E010E1B6E1E
:1029B800090E1C6E2CEC1CF0000903E053D8DF6AEA
:1029C800050C01019351226E925100016A6F22C0D9
:1029D8006BF06BAF07D06A6D6B1FD8B06B2B47D805
:1029E8002D0EDF6E6A510F0B686FFD0E6825F66EAF
:1029F800F76A7D0EF7220800F5CF68F06AC022F06A
:102A08006BC023F0040E246ED89023322232242E79
:102A1800FBD722C06AF023C06BF06A510A0DF3CFCE
:102A28006AF0F4CF6BF068516A27000E6B2360C020
:102A3800D9FF61C0DAFF6AC0DEFF6BC0DDFF12D8C4
:102A4800DF6A010C0FD8DF50226E236A2350D8A406
:102A58001200225001E17BD7010A8EE0030AD8B4A4
:102A6800000C120064C0D9FF65C0DAFF120062C012
:102A7800D9FF63C0DAFF120021EEF6F010EE64F021
:102A8800060EDBCFE3FFE806FCE262C06FF063C02E
:102A980070F06F51701103E1640E6F6F706B6FC04F
:102AA8001AF070C01BF0ABEC1DF01AC073F01BC01D
:102AB80074F02FC071F030C072F0000172BF0DD0F9
:102AC8007351715D7251800A246E7451800A2458C2
:102AD80004E271C073F072C074F073C071F074C016
:102AE80072F02DC06DF02EC06EF031B009D006D056
:102AF80046D84DEC1AF00001734B742B37D8F8E325
:102B08006B6B6C6B1AD06FC0F6FF70C0F7FFF86A7A
:102B1800050EF76403D00800F55002D049EC17F011
:102B28001B6E1C6A60C01DF061C01EF04DEC1AF0EF
:102B380000016F4B702B6B4B6C2B71516B5D6C51A3
:102B4800800A246E7251800A2458DDE331A009D02E
:102B580006D015D84DEC1AF00001734B742B06D82B
:102B6800F8E373C060F074C061F012006D51735DDA
:102B78007451800A246E6E51800A245812001C6A0F
:102B8800200E1B6E60C01DF061C01EF0200C899ED7
:102B9800899CD00E1F6ECA0EE82EFED71F2EFCD7BA
:102BA800D00E1F6ECA0EE82EFED71F2EFCD7D00EF1
:102BB8001F6ECA0EE82EFED71F2EFCD7D00E1F6E32
:102BC800CA0EE82EFED71F2EFCD7030E76EC19F09E
:102BD800680E1F6EE40EE82EFED71F2EFCD700F0FD
:102BE80000F0030E76EC19F0680E1F6EE40EE82E66
:102BF800FED71F2EFCD700F000F0030E76EC19F07C
:102C0800680E1F6EE40EE82EFED71F2EFCD700F0CC
:102C180000F0020E76EC19F0680E1F6EE40EE82E36
:102C2800FED71F2EFCD700F000F0000E1C6E280EF9
:102C38004EEC1EF0680E1F6EE40EE82EFED71F2E17
:102C4800FCD700F000F0000E1C6E0C0E4EEC1EF0CF
:102C5800A70E1F6E3A0EE82EFED71F2EFCD700F0E7
:102C680000F03AEC1FF0680E1F6EE40EE82EFED757
:102C78001F2EFCD700F000F0000E1C6E060E4EEC66
:102C88001EF0680E1F6EE40EE82EFED71F2EFCD72E
:102C980000F000F03AEC1FF0898E12000001606F1E
:102CA80060511CE01DAE1AD01AC01EF01BC01FF0E8
:102CB8001CC020F01DC021F01E1E1F1E201E211E3C
:102CC8001E2A000E1F22202221221EC062F01FC0D1
:102CD80063F020C064F021C065F008D01AC062F02B
:102CE8001BC063F01CC064F01DC065F01A501B10B7
:102CF8001C101D1005E11A6A1B6A1C6A1D6A120065
:102D0800960E616F02D0612B4AD81E6A1F6A206A2C
:102D1800FE0E65153ED808E0F6D7612B622B000E33
:102D28006323642365233BD81E6A1F6A206A6551A2
:102D380030D807E0F2D76107D89062376337643735
:102D4800653764BF03D0020E6161F5D761A1649F46
:102D5800D890613361C01EF01F6A206A216A1EC0C4
:102D680021F0206A1F6A1E6A1E5062131F506313E7
:102D78002050641321506513605102E01DBE658F19
:102D880062C01AF063C01BF064C01CF065C01DF07F
:102D98001200216E1E501F10201021101200D89012
:102DA8006533643363336233120065D07BD84EECED
:102DB8001EF02A0E0001606F8D0EE82EFED7602FE0
:102DC800FCD700F000F055D0BDEC04F00DEC1DF080
:102DD80050D0000E1C6E100E4EEC1EF04AD05BD880
:102DE800F76403D00800F55001D04FD80001606F98
:102DF800C00E60610CD0010E1C6E4DD8F76403D074
:102E08000800F55001D041D84EEC1EF032D0010E2A
:102E18001C6E400E606F61693ED8F76403D00800ED
:102E2800F55001D032D80001626F636B60516227A0
:102E380061516323AD0E6225F66E7D0E6321F76E38
:102E48000800F5504EEC1EF014D025D8F76403D0D6
:102E58000800F55001D019D80001606F616B61510D
:102E6800BEE16051080AB5E0020AAEE0060A9EE03B
:102E7800B6D7234A242A0FD8F76403D00800F550A0
:102E880001D003D80009E1E11200F6CFE1FFF7CF46
:102E9800E2FFE750120023C0F6FF24C0F7FFF86AEC
:102EA800050E1200000E1C6E010C1A6A1B6A1C6AC1
:102EB8001D6A1E6A1F6A206A216A685169116A11AF
:102EC8006B116C116D116E116F1145E0010E226EC0
:102ED8000AD0D890683769376A376B376C376D37DF
:102EE8006E376F37222A6FAFF4D7D8901A361B3651
:102EF8001C361D361E361F36203621366851605D59
:102F0800695161596A5162596B5163596C516459DD
:102F18006D5165596E5166596F51675911E3685182
:102F2800605F6951615B6A51625B6B51635B6C51B5
:102F3800645B6D51655B6E51665B6F51675B1A80B0
:102F4800D8906F336E336D336C336B336A336933B8
:102F58006833222ECAD71AC060F01BC061F01CC0AB
:102F680062F01DC063F01EC064F01FC065F020C091
:102F780066F021C067F012006F6B706B6D6B6E6B43
:102F880002D0674B682B4FD8200AFBE0F70E696F19
:102F98006A6949D84FD80AE1050E6B5D07E2F1D797
:102FA8006E6B010E6D6F674B682B1FD03CD8696F35
:102FB8006A6B6A511AE169512B0AF5E0060AF0E0DA
:102FC80014D06FC061F070C062F0646B0A0E636F5A
:102FD800D6EC1EF028D8615F000E625B300E6125CA
:102FE8006F6F000E6221706FDED7D00E696F6A694D
:102FF8001AD820D803E10A0E6B5DE3E36D516E1118
:103008000DE16FC069F070C06AF0691F6A1F694BF3
:103018006A2B69C067F06AC068F012006FC067F079
:1030280070C068F0120067C0F6FF68C0F7FF0800BC
:10303800F55012006B6F6C6B69516B276A516C23EA
:103048006C51120025C062F026C063F027C064F0FE
:1030580028C065F01AC062F01BC063F01CC064F0A1
:103068001DC065F03AD8180E05D0D890213220320C
:103078001F321E32E82EF9D71E500001606F616BB7
:103088006051611113E1D89062351E6E63351F6E71
:103098006435206E6535216E29D804E11B6A020E5D
:1030A8001A6E020C1B6A030E1A6E030C602961115A
:1030B80010E113D8090ED8901E361F362036213657
:1030C800E82EF9D713D8010ED8A4000E1A6E1B6A81
:1030D80012001B6A040E1A6E040C62C01EF063C054
:1030E8001FF064C020F065C021F012001E501F10B0
:1030F800201021101200685169116A116B116C11AE
:103108006D116E116F113BE0010E1A6E0AD0D89046
:10311800683769376A376B376C376D376E376F3793
:103128001A2A6FAFF4D76851605D695161596A51C5
:1031380062596B5163596C5164596D5165596E519F
:1031480066596F51675910E36851605F6951615B57
:103158006A51625B6B51635B6C51645B6D51655B7B
:103168006E51665B6F51675BD8906F336E336D330A
:103178006C336B336A33693368331A2ED4D760C023
:1031880060F061C061F062C062F063C063F064C067
:1031980064F065C065F066C066F067C067F012004D
:1031A8001AC021F01BC022F01CC023F01DC024F05F
:1031B8001E06D8A01F061E280CE11F280AE11A6A5D
:1031C8001B6A1200214A222A234A242A1E06D8A052
:1031D8001F062DD8F76403D00800F55002D049EC3B
:1031E80017F0000913E02AD8F55010E01E501F1000
:1031F8000DE024D8F5CF20F01AD8F76403D00800E2
:10320800F55002D049EC17F02018DCE010D8F7642C
:1032180003D00800F55002D049EC17F0206E0ED804
:10322800F550205C1A6E1B6AD8A01B06120021C03C
:10323800F6FF22C0F7FFF86A050E120023C0F6FF5A
:1032480024C0F7FF08001200BE35BF35236E235097
:1032580005E1BC6BBD6BBE6BBF6B1200BCC0C0F0A0
:10326800BDC0C1F0BEC0C2F0BFC0C3F0200E05D0C3
:10327800D890C333C233C133C033E82EF9D7C05115
:10328800226EBE8FBF6B960E235E23AE0CD02350EA
:10329800800A970FDEE3D890BF33BE33BD33BC330B
:1032A800233EF9D70CD01F0E236407D0D2D7D8906D
:1032B800BC37BD37BE37BF3723062350F8E122504D
:1032C80008E0BF1FBE1FBD1FBC6D000EBD23BE237F
:1032D800BF23BCC0BCF0BDC0BDF0BEC0BEF0BFC007
:1032E800BFF012001B6E1BA003D01A6A1A2A01D065
:1032F8001A6A8B501A18FE0B1A188B6E1BA203D071
:103308001A6A1A2A01D01A6A1A468B501A18FD0B23
:103318001A188B6E1BA403D01A6A1A2A01D01A6ACB
:1033280027D8FB0B1A188B6E1BA603D01A6A1A2A09
:1033380001D01A6A1A461CD8F70B1A188B6E898C9A
:10334800E40E00F000F000F000F0E82EFAD700F0EC
:1033580000F000F000F0899CE40E00F000F000F0AE
:1033680000F0E82EFAD700F000F000F000F01200AC
:103378001A461A468B501A1812000001876B886B80
:10338800800E8115896F7F0E821538D804E17F6B16
:10339800806B816B826B876B886B800E8515896F5C
:1033A8007F0E86152BD804E1836B846B856B866B47
:1033B80082AF09D07F6D801FD8B0802B811FD8B015
:1033C800812B800E825786AF09D0836D841FD8B0B9
:1033D800842B851FD8B0852B800E8657800E821BC4
:1033E800861B83517F5D845180598551815986514F
:1033F800825902E2D8901200D88012008A6F875151
:10340800881189118A1112002D502E1005E12DC046
:1034180065F02EC066F006D0FF0E2D24656FFF0EF6
:103428002E20666F31A003D02CD84DEC1AF0000185
:1034380066AF02D0656B666B636B646B0CD01C6AFD
:10344800200E1B6E60C01DF061C01EF04DEC1AF01E
:103458000001634B642B6551635D6451800A246EDF
:103468006651800A2458EBE331B003D00AD84DECFA
:103478001AF0010E00016325606F000E6421616F70
:10348800120062C01BF01C6A60C01DF061C01EF013
:1034980012001D501E1003E01D501E1003E11B50AA
:1034A8004FEF1FF020EE09F034D8DE50DE1013E0A5
:1034B80020EE09F02ED810EE03F01D50E1261E5024
:1034C800E222DE50E65CE650800A236EDE50800A77
:1034D8002358D8B0120020EE03F01BD8DECF1FF01F
:1034E800DDCF20F01DC0D9FF1EC0DAFFDECF21F0EE
:1034F800DDCF22F01F502124D96E20502220DA6E11
:103508001BC0DFFF20EE03F004D8DE2A000EDD2208
:10351800000C1D50D9261E50DA22120031A003D00B
:1035280036D81BEC1EF06CBF05D06BC06FF06CC0BA
:1035380070F002D06F6B706B6D6B6E6B0CD01C6A89
:10354800200E1B6E67C01DF068C01EF04DEC1AF00F
:1035580000016D4B6E2B6F516D5D6E51800A246EAC
:103568007051800A2458EBE331B003D010D81BEC1B
:103578001EF069C01AF06AC01BF0ABEC1DF0000128
:103588006F511A24676F70511B20686F120069C051
:1035980060F06AC061F067C062F068C063F0120052
:1035A8001F6A1DAE06D01C6C1D1ED8B01D2A010E48
:1035B8001F6E1BAE06D01A6C1B1ED8B01B2A010E3C
:1035C8001F1A206A216A1C501D101BE0010E1E6E76
:1035D80004D0D8901C361D361E2A1DAEFAD7D890B6
:1035E800203621361C501A5C1D501B5805E31C5010
:1035F8001A5E1D501B5A2080D8901D321C321E2E78
:10360800EED71F5004E0206C211ED8B0212A20C01C
:103618001AF021C01BF012000001606B616B626B35
:10362800636B1E501F102010211029E0010E646FDB
:1036380006D0D8901E361F3620362136642B21AE90
:10364800F8D7D89060376137623763371E501A5CF5
:103658001F501B5820501C5821501D5809E31E505C
:103668001A5E1F501B5A20501C5A21501D5A608147
:10367800D890213220321F321E32642FE2D760C028
:103688001AF061C01BF062C01CF063C01DF012008C
:103698001F6A1BAE06D01A6C1B1ED8B01B2A010E5F
:1036A8001F6E1DAE04D01C6C1D1ED8B01D2A1C50E8
:1036B8001D1017E0010E1E6E04D0D8901C361D3662
:1036C8001E2A1DAEFAD71C501A5C1D501B5804E365
:1036D8001C501A5E1D501B5AD8901D321C321E2ECB
:1036E800F2D71F5004E01A6C1B1ED8B01B2A1AC050
:1036F8001AF01BC01BF012000001606B616B800E9A
:103708001C14626F7F0E1D1420D804E11A6A1B6A0C
:103718001C6A1D6A606B616B800E2014626F7F0EDD
:10372800211413D802E186EC08F01E501A1809E19A
:103738001F501B1806E120501C1803E121501D18CA
:1037480002E0D8901200D8801200636F60516111B6
:10375800621163111200C00EF66E3E0EF76E000E77
:10376800F86E01EEF6F010EE07F00900F5CFEEFF67
:10377800E550E150FAE1C70EF66E3E0EF76E000E08
:10378800F86E0900F5CF45F001EE00F0A30EEE6AE1
:10379800E806FDE1446A00EE25F01F0EEE6AE80631
:1037A800FDE146904692000EF86E000159EF00F0D8
:1037B800F1C0F5F0F2C0F6F00101146B156B14D0EE
:1037C800EFC0D0F0F0C0D1F0F50E0001D26FF3C019
:1037D800D3F0F4C0D4F08BEC08F0D05101011427D9
:1037E8000001D15101011523F5C0F6FFF6C0F7FF1E
:1037F8000800F550E5E114C1EFF015C1F0F0120032
:103808000001606B616B626B636B1AA009D01E507C
:10381800000160271F506123205062232150632339
:10382800D8901E361F3620362136D8901D321C32CD
:103838001B321A321A501B101C101D10E6E160C012
:103848001AF061C01BF062C01CF063C01DF01200CA
:10385800216A206A1FD020501A24D96E000E1B201E
:10386800DA6EDF501E6E080E1D6E21501E18010BF9
:103878001F6E1F0402E1180E211AD89021307F0B09
:10388800216E1F0401E1218ED8901E321D061D50A5
:10389800ECE1202A1C502018DEE121501200819E04
:1038A800939E0B0E1A6E620EE82EFED71A2EFCD7C8
:1038B80000F000F0818E938EE40E00F000F000F02E
:1038C80000F0E82EFAD700F000F000F000F0000E4B
:1038D80081BE010E1B6E090E1A6ECE0EE82EFED7A3
:1038E8001A2EFCD700F000F01B501200096A0A6A71
:1038F8000B6A0C6A01A008D00550092606500A2256
:1039080007500B2208500C22D89005360636073689
:103918000836D890043203320232013201500210C4
:1039280003100410E7E109C001F00AC002F00BC05F
:1039380003F00CC004F012001CC020F01DC021F0E0
:103948001AC022F01BC023F020501E6E21501F6E9B
:10395800204A212A1EC0F6FF1FC0F7FFF86A22C0BE
:10396800D9FF23C0DAFF224A232A050EF76403D0C1
:103978000800F55002D049EC17F0DF6EDF50E4E1A3
:1039880012001F6A206A1C501D101BE0010E1E6EDB
:1039980004D0D8901C361D361E2A1DAEFAD7D890F2
:1039A8001F3620361C501A5C1D501B5805E31C504E
:1039B8001A5E1D501B5A1F80D8901D321C321E2EB5
:1039C800EED71FC01AF020C01BF01200D90EE36F0B
:1039D800010EE46FD5C1E5F1D6C1E6F1E86BE96BFC
:1039E800EE6BEF6BE50E0001EF6F010EF06FD7C1C4
:1039F800F1F0D8C1F2F0E30EF36F010EF46FDCECD6
:103A08001BF0E851D525D96EE951D621DA6EDF6A67
:103A1800000C216E09D0226A16D0400E03D0140E75
:103A280001D0540E226E0FD01E501F6E206A2050F7
:103A3800F2E11F50010AEFE0030AEFE0010AEFE0AC
:103A4800070AEFE0E8D7210422261C6A22508009E1
:103A58004EEF1EF02350241018E0010E0001606F95
:103A680004D0D89023362436602B24AEFAD72350BE
:103A7800215C2450225804E32350215E2450225A0A
:103A8800D89024322332602FF2D721C021F022C0EF
:103A980022F012001C6A1D6A2CEC1FF000090CE0D1
:103AA8001DC01AF0010E1B6E1A2A02D0D8901B36C0
:103AB8001A2EFCD71B501C12030E1A6E7D0EE82E10
:103AC800FED71A2EFCD700F01D2A070E1D64E4D776
:103AD8001C5012001D6E1F6A1FC01BF01DC01CF079
:103AE8001B2A02D0D8901C321B2EFCD71C501E6EED
:103AF800010E1E161E50ACEC1EF01F2A070E1F6486
:103B0800EBD7F00E00F000F000F000F0E82EFAD746
:103B1800120081B603D0010E1A6E01D01A6A1A502B
:103B280013E0320E3318341006E1346A3C0E336E5B
:103B3800020E3D6E020C334A342A070E3318341035
:103B4800D8B41AC03DF01200336A346A12001AC0A1
:103B58001CF01BC01DF002D01A4A1B2A1AC0F6FF1F
:103B68001BC0F7FFF86A050EF76403D00800F5508C
:103B780002D049EC17F00009EFE11C501A5C1A6EEC
:103B88001D501B581B6E1200800E961B8FC07FF0B5
:103B980090C080F091C081F092C082F093C083F011
:103BA80094C084F095C085F096C086F009EC0EF0BC
:103BB8007FC08FF080C090F081C091F082C092F0F9
:103BC8001200BF0E606F616920C062F021C063F00F
:103BD8006051622761516323635109E11A0E625DE6
:103BE80006E2200E2010206E2150216E120020C007
:103BF80020F021C021F01200010E206E200E1A18AC
:103C08001B1011E0F70E1C6E1D681AC01EF01BC0B9
:103C18001FF01C501E261D501F221F5003E1050EC9
:103C28001E5C01E3206A20C01AF01B6A1200656B53
:103C3800666B0CD064C01BF01C6A62C01DF063C0C8
:103C48001EF04DEC1AF00001654B662B655160259E
:103C5800D96E66516121DA6EDF50646F6451EAE112
:103C680012001C6A2050080DF35040094EEC1EF05B
:103C7800216A010E1C6E1EC0F6FF1FC0F7FF080068
:103C8800F5504EEC1EF01E4A1F2A212A070E216409
:103C9800F0D7070C1D6E1C5002E1899E01D0898E59
:103CA800E40E00F000F000F000F0E82EFAD700F083
:103CB80000F000F000F01D380F0B76EC19F01D50E5
:103CC8000F0B76EF19F0D8903E36D8903E360F0E8F
:103CD8003E1681380F0B030B3E26ED0E3E24F66E82
:103CE800F76A7D0EF7220800F5CF3FF07F0E3F18E8
:103CF80001E13F6A3F501200BF0E1C6E1D681AC0DA
:103D08001EF01BC01FF01C501E261D501F221F50E6
:103D180005E11A0E1E5C02E2010E01D0000E1A6EB9
:103D28001B6A1200D00E1C6E1D681AC01EF01BC044
:103D38001FF01C501E261D501F221F5005E10A0EA1
:103D48001E5C02E2010E01D0000E1A6E1B6A120000
:103D58001A6E819E939E1A0407E10A0EE82EFED77A
:103D680000F000F0818E938EF00E00F000F000F06D
:103D780000F0E82EFAD7818E938E120053EC1CF0D7
:103D88000009D8A41200CC0E6EEC1DF04E0E6EEC9D
:103D98001DF0000E6EEC1DF0000E6EEC1DF07F0E97
:103DA8006EEF1DF061516303F3CF65F0F4CF66F059
:103DB80061516403F350662762516303F350662729
:103DC80065C061F066C062F0120001500302F3CFD3
:103DD80005F0F4CF06F001500402F3500626025015
:103DE8000302F350062605C001F006C002F01200D7
:103DF8001B6EA6B2FED71BC0A9FF1AC0A8FFA69EBD
:103E0800A69CA684F29E550EA76EAA0EA76EA68241
:103E1800F28EAA0C1A501B101C101D1002E0800E06
:103E28001D1A1AC01AF01BC01BF01CC01CF01DC0C4
:103E38001DF012001E681F6820687F0E216E1EC0CC
:103E48001AF01FC01BF020C01CF021C01DF07F0C11
:103E5800819E939E050EE82EFED700F0818E938EEC
:103E6800200EE82EFED781BE010C000C56EC17F090
:103E78004EEC1EF02A0E1E6E8E0EE82EFED71E2E5B
:103E8800FCD71200A6B2FED71AC0A9FFA69EA69C10
:103E9800A680A85012001A6E9EA8FED71AC0ADFFC1
:103EA80012001E6E010E1C6E1E504EEF1EF03DC01D
:103EB8001AF03D6A1A501200286E756C6C290001C0
:107DAC000041A042A1E045A3A4A5A64BA74D484F76
:107DBC00A8504354A9AA58E1ABACE2ADAE62AFB047
:107DCC00B161B2B3B4E365B6B7B8B9BABBBCBD6FF9
:107DDC00BE7063BF79E478E5C0C1E6C2C3C4C5C652
:107DEC00C700FF017F01007FFFFF7F00017F01FFC4
:107DFC000000010102020304040506060707080936
:107E0C00094A756C20313120323032320032313A2D
:107E1C0030363A3038000609090600000000000E22
:107E2C001F1B1F0E000000001F1F1F00000000047E
:107E3C000F1F0F04000000041E1F1E0400000E1173
:107E4C0011110A1B00000000081502000000202080
:107E5C00202020202020204558495420202020205C
:107E6C0020202000436C63503A2563252D34755730
:107E7C002025633D25752E257500417078503A25D7
:107E8C0063252D3475572025633D25752E257500EA
:107E9C002020202020414C41524D2054454D502053
:107EAC002020202000202020534554203130302524
:107EBC0020504F5745522020200020202045444977
:107ECC005420524553495354414E434520200020E1
:107EDC002053415645204C4F414420444546415582
:107EEC004C5420002D2D2D42524553454E48414DAA
:107EFC0020535441422D2D2D005265736973743AF1
:107F0C00253032752E2575204F686D20004C6F6E14
:107F1C006720707265737320666F7220736176656B
:107F2C000020202D2057686F6C65207061727420C2
:107F3C002D20200020202D2046726163742070615A
:107F4C007274202D20200020202020746F204545A5
:107F5C0050524F4D2E002863294976616E5F66643E
:107F6C00207625730054656D703A25752563252D93
:107F7C003463005077553A257525252020004E4F47
:107F8C0054205354414221200053544142494C49FE
:107F9C005A452000416C61726D3A252D33730050A7
:107FAC0077523A257525252000555F496E3A25757F
:107FBC005620005077553A257525252A0031312E4B
:107FCC0030372E323200436F653A252E3466002549
:107FDC007320257300494E46004E414E00696E6673
:107FEC00006E616E006C6C73004F4646006C660050
:047FFC004F4E0000E4
:020000040020DA
:08000000FFFFFFFFFFFFFFFF00
:020000040030CA
:0E000000FF081E17FF8081FF0FC00FE00F40AA
:0200000400F00A
:080000001814210000000000AB
:00000001FF
