:020000040000FA
:040000002BEF00F0F2
:0600080046823CEF10F0FF
:100018004680D8CF17F0E8CF18F0E0CF19F0F2BA41
:10002800F2A404D0F294390ED66EC2829DB09EA07E
:1000380006D09E900101242B232B010E226F19C09C
:10004800E0FF18C0E8FF17C0D8FF469010006FEF18
:1000580018F00101A66BA76BC3C0B6F1C4C0B7F115
:10006800C5C0B8F1C6C0B9F1B9AF15D0A76B010EBC
:10007800A66FB6C11AF0B7C11BF0B8C11CF0B9C160
:100088001DF017EC1BF01AC0B6F11BC0B7F11CC06D
:10009800B8F11DC0B9F1BE6BBF6B2FC0ABF130C05A
:1000A800ACF1A651A71102E133A410D0A651A711B3
:1000B80003E18D6B2B0E02D08D6B2D0E8C6F8CC1D6
:1000C80025F1BE4BBF2BAB07D8A0AC073ADB0FEC32
:1000D80015F01A041B1035E1BF0EC2DA05E11A0E3D
:1000E800CA5D02E2010E01D0000E01018E6F8F6B16
:1000F8008E518F1108E0BFDAEB0E1C6E7F0E1D6E5D
:10010800E8EC18F007D0B7DAF30E1C6E7F0E1D6E00
:10011800E8EC18F00101FD0EAB27FF0EAC23C2C0BE
:1001280063F0250E0001646F010E656FABC166F0C8
:10013800ACC167F01DEC17F063C0C2F064C0C3F037
:100148001200FFDA0FEC15F01A501B101FE1BF0E5A
:1001580087DA05E11A0ECA5D02E2010E01D0000E2F
:100168000101906F916B9051911108E084DAEF0EC4
:100178001C6E7F0E1D6EE8EC18F0CCD77CDAF70EFB
:100188001C6E7F0E1D6EE8EC18F0C4D701010FDB62
:10019800B6C11AF0B7C11BF0B8C11CF0B9C11DF047
:1001A80019DB41EC18F010E32DD09FDAAEDAE0EC61
:1001B8000BF066C0C0F167C0C1F168C0C2F169C088
:1001C800C3F10101BC4BBD2BCEDA00019EDA8DDAFA
:1001D800E0EC0BF0BFDA56EC16F008E3E6D70FDADE
:1001E800DBEC0DF078DABC07D8A0BD07BCDAC0C1DB
:1001F8007FF0C1C180F0C2C181F0C3C182F056EC6A
:1002080016F0EDE3C7C020F0216A56EC19F0205033
:100218000101AD6FADC1AAF1670EAD1916E13150FC
:10022800321004E1000E326E010E316E32BE04D07F
:10023800325006E1310404E2A96B060EA86F08D01B
:1002480031C0A8F132C0A9F103D032BEF5D7F8D732
:10025800670EAD1924E1BDAF05D0FC0EBC5DFF0EE5
:10026800BD591AE30001C869C969A8C1CAF0A9C182
:10027800CBF0C851CA27C951CB230101BC51000199
:10028800CA5DCB51800ACC6F0101BD51800A0001C3
:10029800CC5902E3660E01D0650E0101AA6FA8C110
:1002A8009EF1A9C19FF1670EAD1905E1660EAA1965
:1002B80004E1BDAF02D09E4B9F2B660EAA1909E13F
:1002C800BDBF75DA670EAD1904E0BC519E27BD515C
:1002D8009F23BA6BBB6BB6C1AEF1B7C1AFF1B8C162
:1002E800B0F1B9C1B1F1C0C1A0F1C1C1A1F1C2C1A0
:1002F800A2F1C3C1A3F117D0CCD9DBEC0DF03CDAE5
:100308007EEC0FF0D7D9BDEC15F05FDA87D9E0ECB9
:100318000BF03BDA18EC1AF09AD971D9DBEC0DF036
:10032800DAD9BA4BBB2BF8D9E7E3DFD96A6B6B6B29
:10033800A00E6C6F400E6D6FE0EC0BF066C0B2F172
:1003480067C0B3F168C0B4F169C0B5F1F1D9B2C101
:100358007FF0B3C180F0B4C181F0B5C182F056EC32
:1003680016F002E2010116D0AEC11AF0AFC11BF0BF
:10037800B0C11CF0B1C11DF0B2C11EF0B3C11FF075
:10038800B4C120F0B5C121F041EC18F007E3010138
:10039800A4B104D0B26BB36BB46BB56BB6C17BF0D0
:1003A800B7C17CF0B8C17DF0B9C17EF0B2C17FF0B1
:1003B800B3C180F0B4C181F0B5C182F0B2EC0AF0EB
:1003C8007BC0AEF17CC0AFF17DC0B0F17EC0B1F1B1
:1003D800AFD99BD9E3D9E0EC0BF0BCD956EC16F0B9
:1003E80016E30101BC4BBD2BD9D900018ED9E0EC35
:1003F8000BF066C0A0F167C0A1F168C0A2F169C0A6
:10040800A3F1660E0101AA1902E19E4B9F2BA0C120
:10041800C0F1A1C1C1F1A2C1C2F1A3C1C3F1650E6E
:100428000101AA1905E0BCC19CF1BDC19DF102D032
:100438009C6B9D6B9A6B9B6B986B996BBA6BBB6B48
:1004480048D027D9DBEC0DF097D97EEC0FF032D9E4
:10045800BDEC15F0BAD933B80CD00101A451A511DF
:1004680008E1670EAD1905E19DAF03D0984B992BB4
:1004780020D001019A519B1113E19DAF11D002D9EF
:100488002E0E9ED9D8A0AC079B6B010E9A6F08D090
:10049800F9D8300E95D9D8A0AC079807D8A09907F5
:1004A80098519911F5E1EED8A451300F89D9D8A007
:1004B800AC07B4D8E0EC0BF068D918EC1AF0C7D840
:1004C8009ED8DBEC0DF007D99C07D8A09D07BA4B46
:1004D800BB2B22D908E20101BFBFB3D7BF5103E14B
:1004E8004B0EBE5DAEE301019A519B1107E133A8A3
:1004F80005D0C8D82E0EDF6EBE4BBF2BC3D8DF6A1F
:10050800650EAA1901E00BD6BB6B4F0EBA6FF6D871
:10051800DF6AA66BA76BBDAF07D0A76B010EA66FEE
:10052800BC6DBD1FD8B0BD2BA96B020EA86F23D020
:10053800BA07D8A0BB07E2D8BCC11AF0BDC11BF0EE
:100548001D6A0A0E1C6E0DEC18F01A50300FDF6E83
:10055800BCC11AF0BDC11BF01D6A0A0E1C6E96ECD8
:1005680017F01AC0BCF11BC0BDF1A807D8A0A90795
:10057800AB07D8A0AC07BC51BD11DAE1A9BF04D0C4
:10058800A951D6E1A805D4E2BA07D8A0BB07A6515D
:10059800A71103E1936B2B0E02D0936B2D0E926F74
:1005A800ADD892C1DFFFAB07D8A0AC07BA07D8A077
:1005B800BB07BF0E000154D805E11A0ECA5D02E25E
:1005C800010E01D0000E0101966F976B965197119D
:1005D80003E1956B650E02D0956B450E946F8ED82E
:1005E80094C1DFFFAB07D8A0AC0745D8250EBA25C4
:1005F8001C6E010EBB211D6EE8EC18F090D5C0C131
:1006080066F0C1C167F0C2C168F0C3C169F06A6B26
:100618006B6B200E6C6F410E6D6F410CAEC18BF091
:10062800AFC18CF0B0C18DF0B1C18EF0C0C16AF01D
:10063800C1C16BF0C2C16CF0C3C16DF0B2C166F04C
:10064800B3C167F0B4C168F0B5C169F012008BC0DE
:10065800AEF18CC0AFF18DC0B0F18EC0B1F1120017
:10066800C86FC969C751CA6FCB6BC851CA27C9516E
:10067800CB23CB511200250EBE251A6E010EBF21C9
:100688001B6E1200250EBE25D96E010EBF21DA6E33
:100698001200AEC166F0AFC167F0B0C168F0B1C179
:1006A80069F0C0C16AF0C1C16BF0C2C16CF0C3C1CE
:1006B8006DF012007BC0B2F17CC0B3F17DC0B4F123
:1006C8007EC0B5F1B2C1B8F0B3C1B9F0B4C1BAF0E7
:1006D800B5C1BBF0120066C0C0F167C0C1F168C007
:1006E800C2F169C0C3F101011200C0C166F0C1C105
:1006F80067F0C2C168F0C3C169F01200250EBA25BF
:10070800D96E010EBB21DA6E12006A6B6B6B200E7C
:100718006C6F410E6D6F410C9E51BA5DBB51800AE2
:100728000001C86F01019F51800A0001C8591200D9
:10073800AEC17BF0AFC17CF0B0C17DF0B1C17EF03D
:100748001200B6C11AF0B7C11BF0B8C11CF0B9C18C
:100758001DF0120066C07FF067C080F068C081F0AD
:1007680069C082F01200B6C17BF0B7C17CF0B8C195
:100778007DF0B9C17EF0120066C07BF067C07CF0E6
:1007880068C07DF069C07EF0120066C08FF067C057
:1007980090F068C091F069C092F01200A0C166F0B4
:1007A800A1C167F0A2C168F0A3C169F01200C06BD3
:1007B800C16B800EC26F3F0EC36FBC6BBD6B120066
:1007C800DF6EBE4BBF2BAB071200B8C0A4F1B9C097
:1007D800A5F112001E6A1F6A206A216A12001CEC29
:1007E80012F046DBD00E0001FC6FC90EE82EFED7D2
:1007F800FC2FFCD700F000F0010E1E6E9DEC19F0E6
:10080800110E236E7F0E246EB1EC13F040DB9DECCD
:1008180019F0A4EC0DF0830EC66F7F0EC76FDC0EC7
:10082800C86F7F0EC96F7AEC19F0AAEC0DF0B1EC25
:1008380013F02ADB9DEC19F0A4EC0DF0E50EC66F61
:100848007F0EC76F4B0EC86F7E0EC96F570ECA6FEB
:100858007E0ECB6F7AEC19F0AAEC0DF0B1EC13F028
:10086800A30E0001FD6F570EFC6F020EE82EFED797
:10087800FC2FFCD7FD2FFAD700F0040035EC1BF055
:100888001B6A020E1A6E41EC1BF00101206F20C199
:1008980016F1176B1B6A1A6A41EC1BF001011E6FF7
:1008A8001B6A010E1A6E41EC1BF001011D6FA0DAE4
:1008B8009CEC18F0B6DA04000101225103E0DDECEB
:1008C80019F0226B56EC1BF0216F82EC1AF01F27EF
:1008D8001FB11BD01F5119E01FAF0AD044A204D08A
:1008E800F60E1627FF0E09D01607D8A0170709D04D
:1008F80044A205D00A0E1627000E172302D0164B65
:10090800172B1F6B44984486236B405001E05BD241
:10091800320E411801E057D210C11AF011C11BF074
:1009280012C11CF013C11DF01AC11EF01BC11FF02B
:10093800206A216AD2EC17F01AC00CF11BC00DF125
:100948001CC00EF11DC00FF10CC11AF00DC11BF037
:100958000EC11CF00FC11DF0000E2AEC13F01AC0D6
:100968008BF01BC08CF01CC08DF01DC08EF053ECBA
:1009780007F08BC0B8F08CC0B9F08DC0BAF08EC04B
:10098800BBF0BDEC15F0B8C08AF1B9C08BF1D890B6
:1009980001018B310001FC6F01018A318A6FFCC0B3
:1009A8008BF10001666B676B5C0E686F430E696FB5
:1009B8008AC11AF08BC11BF01C6A1D6A000E2AEC52
:1009C80013F01AC06AF01BC06BF01CC06CF01DC09D
:1009D8006DF0DBEC0DF066C008F167C009F168C086
:1009E8000AF169C00BF10101106B116B126B136BEB
:1009F800010E406E44B43DD029DA20511A6E1B6AAC
:100A08001C6A1D6A010E2AEC13F01AC066F01BC09E
:100A180067F01CC068F01DC069F0E0EC0BF066C020
:100A2800D2F167C0D3F168C0D4F169C0D5F17F6B4A
:100A3800806B816B3F0E826F09DAD2C166F0D3C139
:100A480067F0D4C168F0D5C169F0E0EC0BF007DAC3
:100A5800B2EC0AF07BC0B8F07CC0B9F07DC0BAF047
:100A68007EC0BBF0BDEC15F0B8C03BF0B9C03CF09F
:100A780004D0000E3C6E640E3B6E3C5003E1650EE4
:100A88003B5C05E33C6A640E3B6E449A01D0448AA1
:100A980089B604D00001FC6BFC2B02D00001FC6B72
:100AA800FC47FC47FC478950FC19F70BFC19896E79
:100AB800B9EC0DF08AC16BF08BC16CF03B50EDECDA
:100AC80010F067C018F168C019F17DD1050E010159
:100AD800246503D0246BF5EC0CF0010117AF03D0AB
:100AE800166B176B0AD017BF08D0175103E1650EB4
:100AF800165D03E3176B640E166F210504E116C13A
:100B080020F144884494020E211901E0D4D635EC32
:100B18001BF0030E01011C6F020E1E6E050E9DECEC
:100B280019F0040E50EC1BF0050E50EC1BF0050EEE
:100B380050EC1BF0050E50EC1BF0050E50EC1BF0B2
:100B4800200E50EC1BF0060E50EC1BF0200E50EC63
:100B58001BF0050E50EC1BF0050E50EC1BF0050EBB
:100B680050EC1BF0050E50EC1BF0030E50EC1BF084
:100B78000101166B7FD0010117BF08D0175103E19F
:100B8800040E165D03E3176B030E166F17AF2BD019
:100B9800166B176B28D078D99DEC19F0E70E236EE9
:100BA8007E0E246EB1EC13F028D06ED99DEC19F0AE
:100BB800FC0E236E7E0E246EB1EC13F01ED064D9A9
:100BC8009DEC19F0D20E236E7E0E246EB1EC13F05C
:100BD80014D05AD99DEC19F0900E236E7E0E246E17
:100BE800B1EC13F00AD049D908E1FC51D4E0010A6C
:100BF800DCE0030AE4E0010AECE00101210541E040
:100C08005AD63B6A3C6A35EC1BF01EC116F101014D
:100C1800176B44803CD99DEC19F03CD9B1EC13F02A
:100C280033D99DEC19F03A0E236E7F0E246EB1EC89
:100C380013F0D5EC0DF09DEC19F0740E236E7F0EB9
:100C4800246EB1EC13F0010E01011C6F34D60101C2
:100C58001C6B20C11AF0020E05EC1BF009D935EC0B
:100C68001BF029D601011C6B35EC1BF0448420C114
:100C780016F10101176B1FD601011C6B35EC1BF037
:100C8800F6D7FBD801E017D6FC51BBE0010ADFE03C
:100C9800030AE8E0010AF0E00ED644A012D00101F0
:100CA80017BF08D0175103E1640E165D03E3176BF5
:100CB800630E166F17AF02D0166B176B16C11EF1B5
:100CC80033D0010117BF09D0175103E1640E165D37
:100CD80004E3000E176F630E166F17BF05D0175188
:100CE8000DE10A0E165D0AE217BF08D0175103E19D
:100CF800060E165D03E3166B176B10D017BF0ED0E8
:100D0800175102E116050AE317BF05D0175106E18E
:100D1800050E165D03E2176B0A0E166F17AF02D0A9
:100D2800166B176B16C11DF1CBEC0DF0260EC66FB6
:100D38007F0EC76F1EC1C8F1C96B1DC1CAF1CB6B4D
:100D48007AEC19F0010E1E6E9DEC19F0AAEC0DF06C
:100D5800B1EC13F0010121051DE144B002D044803B
:100D680001D0449044A009D092D89DEC19F092D8B3
:100D7800B1EC13F01EC116F10BD089D89DEC19F017
:100D8800610E236E7F0E246EB1EC13F01DC116F1B7
:100D98000101176B020E211901E08DD535EC1BF00E
:100DA80001011C6B25D89CEC18F03BD81EC11AF029
:100DB800000E05EC1BF01DC11AF0010E05EC1BF02E
:100DC80057D8449278D501011C510001FC6FFD6B86
:100DD800FD5101E070D5FC5101E178D6010A01E12D
:100DE8005CD7030A01E167D5010A01E1C4D663D5DE
:100DF8001D510A0DF3CFFCF0F4CFFDF0000E0001F9
:100E0800FDBFFF0EFE6FFF6F01011E511A6E1B6AB8
:100E18001C6A1D6AE80E1E6E030E1F6E206A216A88
:100E2800030C0001FC511A240101046F0001FD515B
:100E38001B200101056F0001FE511C200101066FF6
:100E48000001FF511D200101076F120008C16AF05F
:100E580009C16BF00AC16CF00BC16DF0120066C0DD
:100E68007BF067C07CF068C07DF069C07EF012003E
:100E780020C116F10101176B120016C1FCF017C151
:100E8800FDF00001FD511200030E1E6E010C020E52
:100E98001E6E010C4E0E236E7F0E246E12008BC048
:100EA8009CF08CC09DF08DC09EF08EC09FF09CC0C1
:100EB800B4F09DC0B5F09EC0B6F09FC0B7F08F6B80
:100EC800906B800EB615A4D9800E91192CE17F0E77
:100ED80092198F11901127E18BC06AF08CC06BF0CA
:100EE8008DC06CF08EC06DF08BC066F08CC067F062
:100EF8008DC068F08EC069F0E0EC0BF033EC07F0C1
:100F08008BC07FF08CC080F08DC081F08EC082F0E5
:100F1800B2EC0AF07BC08BF07CC08CF07DC08DF009
:100F28007EC08EF01200B7BF06D0B751B611B5110A
:100F380024E1B40522E271D9B6516AD98F519011D2
:100F48009111921109E18BC08BF08CC08CF08DC08F
:100F58008DF08EC08EF01200B7AF0FD0A50E1A6EAE
:100F68007E0E1B6E27EC1BF01AC08BF01BC08CF09A
:100F78001CC08DF01DC08EF01200170E8F6FB4C00C
:100F880090F0B5C091F0B6C092F0B7C093F08F67FB
:100F980001D007D0933593339233913390338F2F09
:100FA800F6D790C0ACF091C0ADF092C0AEF093C04F
:100FB800AFF00001AC51AD11AE11AF1125E1986B46
:100FC800996B9A6B9B6B0AD0D890B437B537B63704
:100FD800B737982B000E99239A239B23B6AFF4D7E3
:100FE800FF0E98258F6FFF0E9921906FFF0E9A21A3
:100FF800916FFF0E9B21926F8F51AC5F9051AD5B4B
:101008009151AE5B9251AF5B810EAC27FF0EAD23C1
:10101800AE23AF2302D97F0EB615916F000E926BE7
:101028008F11B46F000E9011B56F800E9111B66FCD
:10103800000E9211B76FACB1DBD8AF35AF33AE331A
:10104800AD33AC33D5D8946B956B966B976BA06B1F
:10105800A16BA26BA36BB06BB16BB26B010EB36FDC
:101068003BD09451B025A46F9551B121A56F9651ED
:10107800B221A66F9751B321A76FA451B45DA551B2
:10108800B559A651B659B751800A8F6FA751800A32
:101098008F591CE3A451B025946FA551B121956FC8
:1010A800A651B221966FA751B321976FA451B45F8F
:1010B800A551B55BA651B65BA751B75BB051A02748
:1010C800B151A123B251A223B351A32391D8D890EF
:1010D800B333B233B133B033B051B111B211B3112C
:1010E800C0E1B451B511B611B71138E08AD8A8C01B
:1010F8007BF0A9C07CF0AAC07DF0ABC07EF07F6B0E
:10110800806B800E816F3F0E826F56EC16F026E3DF
:1011180078D87B6B7C6B800E7D6F3F0E7E6FA8C08E
:101128007FF0A9C080F0AAC081F0ABC082F056EC75
:1011380016F006E2020EA027000EA123A2230DD06E
:10114800010EA0158F6F906B916B926B8F51A0273A
:101158009051A1239151A2239251A323A0C08FF0B3
:10116800A1C090F0A2C091F0A3C092F09235923342
:10117800913390338F33000E8F25B46F000E90217A
:10118800B56F000E9121B66F3F0E9221B76FACC0BC
:101198008FF0ADC090F0AEC091F0AFC092F0170ED6
:1011A800D8908F37903791379237E82EF9D78F51EB
:1011B800B4279051B5239151B6239251B723B4C0A7
:1011C8009CF0B5C09DF0B6C09EF0B7C09FF09CC023
:1011D800A8F09DC0A9F09EC0AAF09FC0ABF0A8C01F
:1011E8008BF0A9C08CF0AAC08DF0ABC08EF01200B5
:1011F800B451B427B551B523B651B623B751B72367
:101208001200A86BA96B800EAA6F3F0EAB6F3F0C44
:10121800916F7F0EB715926F1200B4518F6FB55151
:10122800906F120042D9250A01E035D174D92F6A8E
:10123800306A336A346A31683268DE6BDF6B20D01B
:10124800338069D91DD03382FCD73384FAD73386EB
:10125800F8D73388F6D7DF6B010EDE6F11D025D9AA
:10126800D06FD16BD151F7E1D051200AF0E0030AD9
:10127800F0E0080AEAE0060AE3E01D0AE4E0EBD73A
:10128800DE51DF11ECE033B033920FD92A0A0FE1B7
:10129800CE51D96E14D9DECF2FF0DDCF30F030AE7D
:1012A80026D033802F6C301ED8B0302A20D0CE51B3
:1012B800D96EDA6ADECF25F0DDCF26F031EC14F0F6
:1012C80025C02FF026C030F001D025D9D00ED06F20
:1012D800D169EBD837D905E10A0ED25D02E2010ED9
:1012E80001D0000EE06FE16BE051E111EEE1DDD8D5
:1012F800206E216A56EC19F02050E86FE85113E08F
:1013080019D9D02B0FD926D956EC19F02050E96FEE
:10131800E95109E00FD9020ED02704D91BD956ECA0
:1013280019F02050EA6FC1D8630A10E1CE51D96E86
:10133800C6D8DF50EB6FCDC023F0EBC024F09DEC96
:1013480016F023C0CDF024C0CEF01200660EE819C6
:101358001FE1CE51D96EDA6ADECFF6FFDDCFF7FF97
:101368000800F5CFEBF0D7D8BED8CDC0C2F0E4C0A6
:10137800C3F0E5C0C4F0E6C0C5F0E7C0C6F0EBC0F6
:10138800C7F02DEC00F0C2C0CDF0C3C0CEF0120003
:10139800E80E1A6EFB0E1B6E7F0E1C6E1E6A020E86
:1013A8001D6E5AEC17F01A501B101DE1C3D8D02B34
:1013B800B9D8F5CFEBF0BF0ED06FD16976D8C2D8C7
:1013C80005E11A0ED25D02E2010E01D0000EE26FB5
:1013D800E36BE25188D8CE51D96EDA6A020EDE2666
:1013E800000EDD22C2D761D8730A14E1CE51D96E3E
:1013F80066D8DECFDCF0DDCFDDF0CDC060F0DCC03C
:1014080061F0DDC062F092EC11F060C0CDF061C017
:10141800CEF012004AD8750A2AE1CE51D96E4FD8BB
:10142800DECFD2F0DDCFD3F0D2C0D4F0D3C0D5F028
:10143800D66BD76BD86BD96BDA6BDB6BCDC070F022
:10144800D4C071F0D5C072F0D6C073F0D7C074F0B4
:10145800D8C075F0D9C076F0DAC077F0DBC078F084
:10146800BEEC0EF070C0CDF071C0CEF012001DD8E9
:10147800250A0DE150D81C6E250E1B6ECDC01DF03F
:10148800DDEC16F00001CE6B010ECD6F010C43D8D8
:10149800CD6BCE6B120009D81B6E1C6ACDC01DF037
:1014A800DDEC16F0000137D8EDD7CE51D96EDA6AE7
:1014B800DECFF6FFDDCFF7FF0800F5501200DA6A3D
:1014C800DE2A000EDD22CF51D96EDA6ADFCFD0F0E6
:1014D800020EDE26DFCFD1F0000EDD22D0C0D9FF0C
:1014E800D1C0DAFF000CCF51D96EDA6ADFCFD0F065
:1014F800040EDE26DFCFD1F0000EDD22D0C0D9FFEA
:10150800D1C0DAFFDECFE4F0DECFE5F0DECFE6F0E3
:10151800DECFE7F0000CCE51D96EDA6ADE2A000E73
:10152800DD22000C000ED123D0C0F6FFD1C0F7FF9A
:101538000800000CCE51D96EDA6ADECFD0F0DDCFCC
:10154800D1F01200D26FD36BD051D227D151D3230F
:10155800D3511200F550206E216A120000017E510D
:10156800800B876F7E517E25896F7DBF8981895168
:1015780005E0892901E106D97D8F03D07B6B7C6B5F
:101588007D6B7E6B8251800B886F871901E0878D98
:1015980082518225886F81BF8881885108E0882917
:1015A80004E17F6B806B816B826B818F03D07F6BD3
:1015B800806B816B826B8951885D22E287AD02D096
:1015C800800E871B89C08AF088C089F08AC088F09D
:1015D8007BC08AF07FC07BF08AC07FF07CC08AF035
:1015E80080C07CF08AC080F07DC08AF081C07DF028
:1015F8008AC081F07EC08AF082C07EF08AC082F004
:101608008A6B895188C083F0846B835F000E845B8A
:1016180084BF15D0845103E11A0E835D10E3C7D847
:10162800010ED8B4000E8A6FADD888C089F00AD0F0
:101638008AA102D0B7D802D0D8908A339AD88851D4
:10164800895DF6E387BD15D0895101E1A6D07F51A8
:101658007B2780517C2381517D2382517E237EA16B
:1016680053D08AA102D09ED802D0D8908A3381D88C
:101678004BD07F517B5D80517C5981517D597E5182
:10168800800A836F8251800A83591FE27B517F5DF4
:10169800836F7C518059846F7D518159856F7E514C
:1016A8008259866FFF0E83257B6FFF0E84217C6F26
:1016B800FF0E85217D6FFF0E86217E6F800E871BB2
:1016C8008A6D8A510AE163D808D07F517B5F8051C7
:1016D8007C5B81517D5B82517E5B69D813E18A51C5
:1016E80011E15BD0D8907B377C377D377E378ABF56
:1016F8007B818AA102D0D88001D0D8908A378951BD
:1017080001E089077DAFEED7886B8AAF0AD08AC01F
:1017180083F07F0E831703E0010E886F02D07BB140
:10172800FBD788510BE033D87EA108D07E357E33B5
:101738007D337C337B33892901E0892B892902E0B9
:10174800895104E11FD8895101E1876B89A102D031
:101758007D8F01D07D9FD89089317E6F87BF7E8F26
:101768007BC07BF07CC07CF07DC07DF07EC07EF0CD
:1017780012007BB18A8F7E357E337D337C337B3399
:10178800892B12007B6B7C6B7D6B7E6B12007B2B35
:10179800000E7C237D237E23000C7B6B7C6B7D6B92
:1017A8007E6B1200D8908A3101098A6F12007B5132
:1017B8007C117D117E11120000016951800B6E6F42
:1017C80069516925706F68BF7081705105E0702993
:1017D80001E102D9688F01D0FFD86D51800B6E1BD3
:1017E8006D516D256F6F6CBF6F816F5105E06F296B
:1017F80001E1EDD86C8F01D0EAD86F5102E0705149
:1018080005E1666B676B686B696B12006C51660368
:10181800B1D8716F726B736B746B7A51756F766B2D
:10182800776B786B6B516703A5D8B2D86A51680398
:10183800A1D8AED8A5D86A5167039CD8B5D86B5142
:10184800660398D8B1D89CD86A51660393D8ACD8A7
:101858006C5167038FD8B4D86B5168038BD8B0D854
:101868006C51680387D8226E7A51236E246A256AE0
:1018780024C025F023C024F022C023F0226A22507D
:1018880075272350762324507723255078237451C5
:10189800752791D875D86F5170C022F0236A222617
:1018A800000E2322820E2224796FFF0E23207A6FE6
:1018B8000FD0D890753776377737783774BF7581FA
:1018C800D89071377237733774377907D8A07A0789
:1018D80077AFEFD76F6B74AF13D07151226E72511F
:1018E800236E7351246E7F0E7415256E22502310BB
:1018F8002410251003E0010E6F6F02D075B1FBD7DD
:101908006F510BE0752B57D878A107D0783578330D
:10191800773376337533794B7A2B7ABF0AD07A517D
:1019280002E1792906E3756B766B800E776F7F0E7F
:1019380015D07ABF04D07A5108E1790506E2756BB3
:10194800766B776B786B6E6B0AD079C070F07F0E10
:101958007717786B70B1778FD8907031786F6E5138
:10196800781375C066F076C067F077C068F078C005
:1019780069F01200F3CF79F0F4CF7AF079511200C0
:1019880073C074F072C073F071C072F0716B1200A2
:101998007127000E7223732374237A517527000E62
:1019A800762377237823000C71277A517223000E4F
:1019B80073237423000C000E762377237823000CFE
:1019C80075277A517623000E77237823000C6A6BEB
:1019D8006B6B6C6B6D6B1200666B676B686B696B1E
:1019E8001200D5D8C80EC66F7F0EC76F8AC1C8F15E
:1019F8008BC1C9F17AEC19F0010E1E6E9DEC19F03D
:101A0800A5D8B1EC13F044BA0AD0CED89DEC19F0A1
:101A1800A80E236E7F0E246EB1EC13F009D0C4D843
:101A28009DEC19F0B30E236E7F0E246EB1EC13F00B
:101A380087D8BE0EC66F7F0EC76F3BC0C8F13CC0CB
:101A4800C9F17AEC19F0020E1E6E0B0E9DEC19F01E
:101A58007DD8B1EC13F074D89D0EC66F7F0EC76F9A
:101A680008C1C8F109C1C9F10AC1CAF10BC1CBF15A
:101A78007AEC19F096D89DEC19F068D8B1EC13F00F
:101A8800650E010123613BD044A639D06ED8000110
:101A98006C6BDC0E6B6F01011651EDEC10F067C03A
:101AA800FAF068C0FBF04CD8A60EC66F7E0E74D84C
:101AB800FAC0CAF1FBC0CBF14ED87AEC19F048EC69
:101AC80007F09DEC19F042D8B1EC13F044A805D00A
:101AD80037D854D87AEC19F00BD032D8920EC66F9A
:101AE8007F0EC76F16C1C8F117C1C9F17AEC19F09A
:101AF8004BEC07F09DEC19F029D8B1EF13F047D85B
:101B0800BC0EC66F7E0E48D818C1CAF119C1CBF1F8
:101B180022D87AEC19F0449648EC07F09DEC19F0BD
:101B280015D8B1EC13F00CD829D87AEC19F04BEC95
:101B380007F09DEC19F00AD8B1EC13F03CEF07F070
:101B4800750E0101C46F010EC56F1200750E236E6C
:101B5800010E246E1200CD6B020ECC6F1EC1CEF1A9
:101B6800CF6B1DC1D0F1D16B120004C167F005C164
:101B780068F006C169F007C16AF01200D20EC66F9C
:101B88007F0EC76F16C1C8F117C1C9F11200750ED3
:101B9800C46F010EC56F1200C76FC96B010EC86F05
:101BA800010C040E1E6E010C010E1E6E0B0C0001C2
:101BB8006951800B726F69516925796F68BF7981A6
:101BC800795105E0792901E1D0D8688F03D0666B97
:101BD800676B686B696B6D51800B721B6D516D255E
:101BE8007A6F6CBF7A817A5108E07A2904E16A6BCE
:101BF8006B6B6C6B6D6B6C8F03D06A6B6B6B6C6B08
:101C08006D6B6A516B116C116D1110E1AED8800EBD
:101C180068137F0E69137251691366C066F067C056
:101C280067F068C068F069C069F01200795105E191
:101C3800666B676B686B696B12007A5179C022F02A
:101C4800236A225E000E235A7F0E2224736F000E31
:101C58002320746F66C06EF067C06FF068C070F0C4
:101C680069C071F082D8756B766B776B786B7A6B1D
:101C78001BD07A5106E0D8906E376F3770377137BE
:101C880067D86A516E5D6B516F596C5170596D51BF
:101C9800715909E3788D6A516E5F6B516F5B6C51B6
:101CA800705B6D51715B7A2B190E7A65E2D76E51B4
:101CB8006F117011711106E0758104D049D873074E
:101CC800D8A0740768AFFAD77A6B78AF13D075517C
:101CD800226E7651236E7751246E7F0E7815256E0D
:101CE800225023102410251003E0010E7A6F02D031
:101CF80066B1FBD77A510EE0662B000E6723682386
:101D0800692369A107D06935693368336733663356
:101D1800734B742B74BF07D0745102E1732903E32A
:101D2800746B736922D874BF04D0745106E17305CB
:101D380004E2736B746B19D8726B73C079F079A174
:101D480002D0688F01D0689FD8907931696F63D7C6
:101D5800D890663767376837693778BF6681D89013
:101D680075377637773778371200666B676B686B2D
:101D7800696B120032AE339232BE04D0325006E1A3
:101D8800310404E2826B010E816F04D031C081F00E
:101D980032C082F02FC083F030C084F071C085F06B
:101DA80072C086F073C087F074C088F075C089F07F
:101DB80076C08AF077C08BF078C08CF08E6B4F0EAF
:101DC8008D6F0101746B68D08D07D8A08E07250E22
:101DD8008D25D96E010E8E21DA6E85C060F086C021
:101DE80061F087C062F088C063F089C064F08AC07F
:101DF80065F08BC066F08CC067F00A0E686F696B7F
:101E08006A6B6B6B6C6B6D6B6E6B6F6B68EC15F064
:101E180060C079F061C07AF062C07BF063C07CF08A
:101E280064C07DF065C07EF066C07FF067C080F05A
:101E38007951300FDF6E8107D8A082078307D8A0B9
:101E4800840785C060F086C061F087C062F088C0F2
:101E580063F089C064F08AC065F08BC066F08CC0FE
:101E680067F00A0E686F696B6A6B6B6B6C6B6D6BF6
:101E78006E6B6F6BA8EC14F060C085F061C086F0E3
:101E880062C087F063C088F064C089F065C08AF0DA
:101E980066C08BF067C08CF000018D518E1117E081
:101EA800855186118711881189118A118B118C111E
:101EB8008BE182BF04D0825187E1810585E284BF2E
:101EC80006D0845102E1830502E333B27DD770C0A6
:101ED80063F0250E8D25646F010E8E21656F83C01A
:101EE80066F084C067F01DEC17F063C070F064C042
:101EF80071F0120000C18BF001C18CF002C18DF0AD
:101F080003C18EF07BC08BF07CC08CF07DC08DF05F
:101F18007EC08EF0810E7F6F80698BC081F08CC08F
:101F280082F08DC083F08EC084F0180E05D0D89052
:101F38008433833382338133E82EF9D781517F2567
:101F4800896F000E80218A6F8ABF0ED08A5103E103
:101F5800170E895D09E37BC07BF07CC07CF07DC0F7
:101F68007DF07EC07EF012008ABF48D089C07FF025
:101F7800806981697F0E826F000E836F7F6701D051
:101F880007D0833583338233813380337F2FF6D76D
:101F980080C085F081C086F082C087F083C088F059
:101FA800000185518B157F6F86518C15806F875185
:101FB8008D15816F88518E1555D8CDE044D801D044
:101FC8004BD8E82EFDD77F5108E085518B278651E5
:101FD8008C2387518D2388518E23851D7F6F861D05
:101FE800806F871D816F881D826F7F518B1780518D
:101FF8008C1781518D1782518E171CD024D801D08F
:102008002BD8E82EFDD77F6705D08B6B8C6B8D6B3B
:102018008E6B10D0D8908B357F6F8C35806F8D3557
:10202800816F8E351FD806E08B6B8C6B800E8D6FA1
:10203800BF0E8E6F8BC07BF08CC07CF08DC07DF0A6
:102048008EC07EF012008BC07FF08CC080F08DC0F7
:1020580081F08EC082F0200CD89082338133803397
:102068007F331200826F7F5180118111821112001B
:10207800F3CF0FF0F4CF10F0156A166A3B503924ED
:10208800136E3C503A20146EF2B8F2A258D014BE27
:1020980008D0145003E1320E135C03E3166A010EF4
:1020A800156E4550016E026A01BE020637C003F084
:1020B80038C004F0F2EC1AF001C011F002C012F0BE
:1020C80011C001F012C002F015C003F016C004F0F0
:1020D800F2EC1AF002BE06D0025002E1010402E35B
:1020E800156A166A1550161008E0898A9C0E132482
:1020F800396EFF0E14203A6E05D0899A13C039F054
:1021080014C03AF0B1804550016E026A01BE020661
:1021180015C003F016C004F0F2EC1AF0015037268F
:1021280002503822456C320E416001D0412A4004E9
:1021380005E1406A01011A6B1B6B416AF2929DBC72
:102148009EAC3BD0320E416037D0C350C4CF0DF0A7
:102158000E6A0DC00EF00D6A0D26000E0E220DC07F
:102168002BF00EC02CF02CBEFF0E2D6E2E6E2BC049
:1021780001F02CC002F02DC003F02EC004F02BC0DB
:1021880005F02CC006F02DC007F02EC008F0C2ECF8
:1021980018F001C02BF002C02CF003C02DF004C0D1
:1021A8002EF02B50010110272C5011232D501223F3
:1021B8002E5013231A4B1B2B9E9CA0B2A1A203D016
:1021C800A192899AB19010C0F4FF0FC0F3FF469214
:1021D80011000001796F6BC01AF06CC01BF01C6A0B
:1021E8001D6A6BC01EF06CC01FF0206A216A9CEC4F
:1021F80018F01AC073F01BC074F01CC075F01DC035
:1022080076F073C01AF074C01BF075C01CF076C06D
:102218001DF0E80E1E6E030E1F6E206A216A9CECEC
:1022280018F01AC06FF01BC070F01CC071F01DC010
:1022380072F06FC01AF070C01BF071C01CF072C051
:102248001DF067C01EF068C01FF069C020F06AC0AA
:1022580021F0D2EC17F01AC07AF01BC07BF0000115
:10226800636B0A0E626F1D6A640E52D8BEEC19F0D9
:102278001AC060F01BC061F00DEC19F041D8DFEC1A
:102288001AF01FC077F020C078F0636B640E626F9D
:102298007AC060F07BC061F00DEC19F031D8DFEC4A
:1022A8001AF01FC06DF020C06EF077C060F078C0E3
:1022B80061F0636B0A0E626F0DEC19F060516D27C7
:1022C80061516E231D6A0A0E23D8BEEC19F01AC09C
:1022D8001FF01BC020F079C021F0226ADFEC1AF051
:1022E8001FC060F020C061F0636B640E626F0DEC7C
:1022F80019F060516D25676F61516E21686F12008A
:1023080060C01FF061C020F079C021F0226A12007D
:102318001C6E7AC01AF07BC01BF0120021EED6F0BA
:1023280010EE63F0060EDBCFE3FFE806FCE261C0C7
:102338006EF062C06FF06E516F1103E1630E6E6F45
:102348006F6B6EC01AF06FC01BF0FBEC19F01AC06F
:1023580072F01BC073F031C070F032C071F0000130
:1023680071BF0DD07251705D7151800A236E735127
:10237800800A235804E270C072F071C073F072C012
:1023880070F073C071F02FC06CF030C06DF033B0D6
:102398000BD008D048D860C01DF0DDEC16F0000165
:1023A800724B732B37D8F6E36A6B6B6B18D06EC021
:1023B800F6FF6FC0F7FFF86A050EF76403D0080050
:1023C800F55002D021EC14F01B6E1C6A60C01DF0A1
:1023D800DDEC16F000016E4B6F2B6A4B6B2B7051C6
:1023E8006A5D6B51800A236E7151800A2358DFE3BE
:1023F80033A00BD008D017D860C01DF0DDEC16F064
:102408000001724B732B06D8F6E372C060F073C0FC
:1024180061F012006C51725D7351800A236E6D5128
:10242800800A23581200000E1C6E200E1B6E200C12
:10243800FC0ED316700ED3129B8C170E926E806A08
:10244800896A826A8B6A946A8B988B9AF19E380E95
:102458007C6E816A8A6A3F0E936ED550F80B030929
:10246800D56ED596D59AD58CD58EF194390ED66E73
:10247800C050F80B0609C06EC70EC016C08EC16AE0
:10248800C280C30EC2167E809F8C9D8CCD92CD9645
:10249800300ECD12CD8E9D809F90CD80B18EB18CA7
:1024A800B192CF0EB116A282A082F288F19CF2926C
:1024B800D08EF28AF28CF28E050E236E0F0E226EEB
:1024C800F10EE82EFED7222EFCD7232EFAD700F0E5
:1024D800A3EC12F044884494880E1E6E7E0E1F6E84
:1024E800010E206E50EC1AF0800E1E6E7E0E1F6ECE
:1024F800020E206E50EC1AF0780E1E6E7E0E1F6EC5
:10250800030E206E50EC1AF0700E1E6E7E0E1F6EBB
:10251800040E206E50EC1AF0680E1E6E7E0E1F6EB2
:10252800050E206E50EC1AF0600E1E6E7E0E1F6EA9
:10253800060E206E50EC1AF0010E406E010C899EBA
:10254800899CD00E1F6ECA0EE82EFED71F2EFCD710
:10255800D00E1F6ECA0EE82EFED71F2EFCD7D00E47
:102568001F6ECA0EE82EFED71F2EFCD7D00E1F6E88
:10257800CA0EE82EFED71F2EFCD7030E0BEC16F062
:10258800680E1F6EE40EE82EFED71F2EFCD700F053
:1025980000F0030E0BEC16F0680E1F6EE40EE82E2A
:1025A800FED71F2EFCD700F000F0030E0BEC16F040
:1025B800680E1F6EE40EE82EFED71F2EFCD700F023
:1025C80000F0020E0BEC16F0680E1F6EE40EE82EFB
:1025D800FED71F2EFCD700F000F0000E1C6E280E50
:1025E80069EC1AF0680E1F6EE40EE82EFED71F2E57
:1025F800FCD700F000F0000E1C6E0C0E69EC1AF00F
:10260800A70E1F6E3A0EE82EFED71F2EFCD700F03D
:1026180000F035EC1BF0680E1F6EE40EE82EFED7B6
:102628001F2EFCD700F000F0000E1C6E060E69ECA1
:102638001AF0680E1F6EE40EE82EFED71F2EFCD788
:1026480000F000F035EC1BF0898E12000001606F7D
:1026580060511CE01DAE1AD01AC01EF01BC01FF03E
:102668001CC020F01DC021F01E1E1F1E201E211E92
:102678001E2A000E1F22202221221EC062F01FC027
:1026880063F020C064F021C065F008D01AC062F081
:102698001BC063F01CC064F01DC065F01A501B100D
:1026A8001C101D1005E11A6A1B6A1C6A1D6A1200BB
:1026B800960E616F02D0612B44D81E6A1F6A206A89
:1026C800FE0E651544D808E0F6D7612B622B000E84
:1026D80063236423652335D81E6A1F6A206A6551FF
:1026E80036D807E0F2D76107D89062376337643786
:1026F800653764BF03D0020E6161F5D761A1649F9D
:10270800D890613361C01EF01F6A206A216A1EC01A
:1027180021F0206A1F6A1E6A1E5062131F5063133D
:102728002050641321506513605102E01DBE658F6F
:1027380062C01AF063C01BF064C01CF065C01DF0D5
:102748001200D89065336433633362331200216E0C
:102758001E501F1020102110120065D07BD869EC84
:102768001AF02A0E0001606F8D0EE82EFED7602F3A
:10277800FCD700F000F055D04BEC07F09DEC19F0B9
:1027880050D0000E1C6E100E69EC1AF04AD05BD8BF
:10279800F76403D00800F55001D04FD80001606FEE
:1027A800C00E60610CD0010E1C6E4DD8F76403D0CA
:1027B8000800F55001D041D869EC1AF032D0010E6A
:1027C8001C6E400E606F61693ED8F76403D0080044
:1027D800F55001D032D80001626F636B60516227F7
:1027E80061516323FB0E6225F66E7D0E6321F76E41
:1027F8000800F55069EC1AF014D025D8F76403D016
:102808000800F55001D019D80001606F616B615163
:10281800BEE16051080AB5E0020AAEE0060A9EE091
:10282800B6D7234A242A0FD8F76403D00800F550F6
:1028380001D003D80009E1E11200F6CFE1FFF7CF9C
:10284800E2FFE750120023C0F6FF24C0F7FFF86A42
:10285800050E1200000E1C6E010C6B6B6C6B646B2A
:10286800656B02D0254A262A010E6A6F5ED8200AB7
:102878000AE0F70E606F616958D85ED803E1050E6B
:10288800625D01E36A6B6AC066F0676B6651671147
:1028980007E0E8D7656B010E646F254A262A1FD02A
:1028A80044D8606F616B61511AE160512B0AF5E001
:1028B800060AF0E014D06BC01FF06CC020F0226A4A
:1028C8000A0E216EDFEC1AF030D81F5E000E205A77
:1028D800300E1F246B6F000E20206C6FDED7D00ED9
:1028E800606F616922D828D805E10A0E625D02E2AC
:1028F800010E01D0000E686F696B68516911DBE148
:10290800645165110DE16BC060F06CC061F0601F2F
:10291800611F604B612B60C025F061C026F012007A
:102928006BC025F06CC026F0120025C0F6FF26C04B
:10293800F7FF0800F5501200626F636B6051622761
:1029480061516323635112001A6A1B6A1C6A1D6A6B
:102958001E6A1F6A206A216A685169116A116B111F
:102968006C116D116E116F1145E0010E226E0AD0C7
:10297800D890683769376A376B376C376D376E3779
:102988006F37222A6FAFF4D7D8901A361B361C3609
:102998001D361E361F36203621366851605D695156
:1029A80061596A5162596B5163596C5164596D513F
:1029B80065596E5166596F51675911E36851605FE7
:1029C8006951615B6A51625B6B51635B6C51645B1B
:1029D8006D51655B6E51665B6F51675B1A80D8906D
:1029E8006F336E336D336C336B336A3369336833EB
:1029F800222ECAD71AC060F01BC061F01CC062F05A
:102A08001DC063F01EC064F01FC065F020C066F0F2
:102A180021C067F0120027C062F028C063F029C007
:102A280064F02AC065F01AC062F01BC063F01CC0D5
:102A380064F01DC065F03AD8180E05D0D890213240
:102A480020321F321E32E82EF9D71E500001606F67
:102A5800616B6051611113E1D89062351E6E633568
:102A68001F6E6435206E6535216E29D804E11B6A16
:102A7800020E1A6E020C1B6A030E1A6E030C6029F2
:102A8800611110E113D8090ED8901E361F36203672
:102A98002136E82EF9D713D8010ED8A4000E1A6EE5
:102AA8001B6A12001B6A040E1A6E040C62C01EF028
:102AB80063C01FF064C020F065C021F012001E50F2
:102AC8001F10201021101200685169116A116B1132
:102AD8006C116D116E116F113BE0010E1A6E0AD068
:102AE800D890683769376A376B376C376D376E3708
:102AF8006F371A2A6FAFF4D76851605D6951615911
:102B08006A5162596B5163596C5164596D516559D9
:102B18006E5166596F51675910E36851605F69518A
:102B2800615B6A51625B6B51635B6C51645B6D51B5
:102B3800655B6E51665B6F51675BD8906F336E3320
:102B48006D336C336B336A33693368331A2ED4D7D9
:102B580060C060F061C061F062C062F063C063F0A1
:102B680064C064F065C065F066C066F067C067F071
:102B78001200BA35BB35C16FC15105E1B86BB96BED
:102B8800BA6BBB6B1200B8C0BCF0B9C0BDF0BAC01C
:102B9800BEF0BBC0BFF0200E05D0D890BF33BE3307
:102BA800BD33BC33E82EF9D7BC51C06FBA8FBB6BAD
:102BB800960EC15FC1AF0CD0C151800A970FDEE3FA
:102BC800D890BB33BA33B933B833C13FF9D70CD037
:102BD8001F0EC16507D0D2D7D890B837B937BA37E2
:102BE800BB37C107C151F8E1C05108E0BB1FBA1F8C
:102BF800B91FB86D000EB923BA23BB23B8C0B8F00B
:102C0800B9C0B9F0BAC0BAF0BBC0BBF012001B6EB5
:102C18001BA003D01A6A1A2A01D01A6A8B501A18F4
:102C2800FE0B1A188B6E1BA203D01A6A1A2A01D03F
:102C38001A6A1A468B501A18FD0B1A188B6E1BA4A9
:102C480003D01A6A1A2A01D01A6A27D8FB0B1A1855
:102C58008B6E1BA603D01A6A1A2A01D01A6A1A4662
:102C68001CD8F70B1A188B6E898CE40E00F000F054
:102C780000F000F0E82EFAD700F000F000F000F0C5
:102C8800899CE40E00F000F000F000F0E82EFAD77E
:102C980000F000F000F000F012001A461A468B50BF
:102CA8001A1812000001836B846B800E7D15856FE6
:102CB8007F0E7E1538D804E17B6B7C6B7D6B7E6B59
:102CC800836B846B800E8115856F7F0E82152BD8E0
:102CD80004E17F6B806B816B826B7EAF09D07B6D6B
:102CE8007C1FD8B07C2B7D1FD8B07D2B800E7E57E3
:102CF80082AF09D07F6D801FD8B0802B811FD8B0DC
:102D0800812B800E8257800E7E1B821B7F517B5D3C
:102D180080517C5981517D5982517E5902E2D89067
:102D28001200D8801200866F835184118511861194
:102D380012002F50301005E12FC062F030C063F050
:102D480006D0FF0E2F24626FFF0E3020636F33A072
:102D580003D029D8DDEC16F0000163AF02D0626B16
:102D6800636B606B616B09D017EC12F023C01DF028
:102D7800DDEC16F00001604B612B6251605D615122
:102D8800800A256E6351800A2558EEE333B003D0DC
:102D98000AD8DDEC16F0010E00016025236E000E46
:102DA8006121246E120024C01BF01C6A23C01DF090
:102DB80012001D5002E01D5003E11B504AEF1BF0AA
:102DC80032D8DE50DE1010E02ED81D50E16EE26AD7
:102DD800020EE126DE50E65CE650800A226EDE50E6
:102DE800800A2258D8B0120018D8DECF1EF0DDCFE6
:102DF8001FF01D50D96EDA6ADECF20F0DDCF21F04A
:102E08001E502024D96E1F502120DA6E1BC0DFFF10
:102E180004D8DE2A000EDD22000C1D50D96EDA6AB5
:102E2800020ED926020C1D50D96EDA6A040ED92674
:102E3800040C33A003D033D89BEC1AF067BF05D03D
:102E480066C06AF067C06BF002D06A6B6B6B686B28
:102E5800696B09D017EC12F063C01DF0DDEC16F0B9
:102E68000001684B692B6A51685D6951800A266EBA
:102E78006B51800A2658EEE333B003D010D89BEC90
:102E88001AF064C01AF065C01BF0FBEC19F00001E1
:102E98006A511A24636F6B511B20646F120064C05F
:102EA80060F065C061F063C062F012001AC022F0E1
:102EB8001BC020F01CC021F01D06D8A01E061D282E
:102EC8000BE11E2809E11A6A1B6A1200222A204A0D
:102ED800212A1D06D8A01E062250D96EDA6ADF50B4
:102EE8000EE020C0F6FF21C0F7FF0800F55007E00C
:102EF8001D501E1004E022500BD8F518E7E02250B0
:102F080007D8F5501F5C1A6E1B6AD8A01B06120062
:102F1800D96EDA6ADF501F6E20C0F6FF21C0F7FFB6
:102F2800080012001F6A1DAE06D01C6C1D1ED8B00A
:102F38001D2A010E1F6E1BAE06D01A6C1B1ED8B0C0
:102F48001B2A010E1F1A206A216A1C501D101BE043
:102F5800010E1E6E04D0D8901C361D361E2A1DAEDA
:102F6800FAD7D890203621361C501A5C1D501B58B1
:102F780005E31C501A5E1D501B5A2080D8901D3244
:102F88001C321E2EEED71F5004E0206C211ED8B034
:102F9800212A20C01AF021C01BF01200226A236ADD
:102FA800246A256A1E501F102010211029E0010EE6
:102FB800266E06D0D8901E361F3620362136262A91
:102FC80021AEF8D7D89022362336243625361E501F
:102FD8001A5C1F501B5820501C5821501D5809E3DB
:102FE8001E501A5E1F501B5A20501C5A21501D5A41
:102FF8002280D890213220321F321E32262EE2D76C
:1030080022C01AF023C01BF024C01CF025C01DF0FC
:1030180012001F6A1BAE06D01A6C1B1ED8B01B2AE2
:10302800010E1F6E1DAE04D01C6C1D1ED8B01D2ACB
:103038001C501D1017E0010E1E6E04D0D8901C36CF
:103048001D361E2A1DAEFAD71C501A5C1D501B587F
:1030580004E31C501A5E1D501B5AD8901D321C32B6
:103068001E2EF2D71F5004E01A6C1B1ED8B01B2A64
:103078001AC01AF01BC01BF01200226A236A800EC5
:103088001C14246E7F0E1D1420D804E11A6A1B6AD2
:103098001C6A1D6A226A236A800E2014246E7F0E21
:1030A800211413D802E1EEEC03F01E501A1809E1BE
:1030B8001F501B1806E120501C1803E121501D1851
:1030C80002E0D8901200D8801200256E22502310FA
:1030D800241025101200B60EF66E360EF76E000E8E
:1030E800F86E01EED6F010EE07F00900F5CFEEFF0E
:1030F800E550E150FAE1BD0EF66E360EF76E000EA1
:10310800F86E0900F5CF45F001EE00F08C0EEE6A7E
:10311800E806FDE1446A00EE27F01D0EEE6AE806B7
:10312800FDE146904692000EF86E0001F3EF03F0C1
:10313800226A236A246A256A1AA008D01E50222609
:103148001F5023222050242221502522D8901E3699
:103158001F3620362136D8901D321C321B321A32C7
:103168001A501B101C101D10E7E122C01AF023C0D2
:103178001BF024C01CF025C01DF01200096A0A6A61
:103188000B6A0C6A01A008D00550092606500A22CD
:1031980007500B2208500C22D89005360636073601
:1031A8000836D8900432033202320132015002103C
:1031B80003100410E7E109C001F00AC002F00BC0D7
:1031C80003F00CC004F012001CC020F01DC021F058
:1031D8001AC022F01BC023F020501E6E21501F6E13
:1031E800204A212A1EC0F6FF1FC0F7FFF86A22C036
:1031F800D9FF23C0DAFF224A232A050EF76403D039
:103208000800F55002D021EC14F0DF6EDF50E4E145
:103218001200656B666B625163111BE0010E646FEF
:1032280004D0D89062376337642B63AFFAD7D8904D
:10323800653766376251605D6351615905E36251D4
:10324800605F6351615B6581D89063336233642F3B
:10325800EED765C060F066C061F01200EDC0F0F016
:10326800EEC0F1F00101146B156B10D0ECC0CDF07D
:10327800F00E0001CE6FEFC0CFF016EC09F0CD5183
:10328800010114270001CE5101011523F0C0F6FFFA
:10329800F1C0F7FF0800F550E9E114C1ECF015C1E1
:1032A800EDF01200BF0E226E236820C024F021C06A
:1032B80025F02250242623502522255005E11A0EF8
:1032C800245C02E2010E01D0000E0001606F616B08
:1032D8006051611106E0200E2010206E2150216EF1
:1032E800120020C020F021C021F01200C80E0001F9
:1032F800F26F010EF36FC4C1F4F0C5C1F5F0F66BBF
:10330800F76BF86BF96BF40EEC6FC6C1EDF0C7C143
:10331800EEF0F20EEF6F32EC19F00001F6510101F8
:10332800C425D96E0001F7510101C521DA6EDF6AA3
:10333800000C216E09D0226A16D0400E03D0140E5C
:1033480001D0540E226E0FD01E501F6E206A2050DE
:10335800F2E11F50010AEFE0030AEFE0010AEFE093
:10336800070AEFE0E8D7210422261C6A22508009C8
:1033780069EF1AF01C501D1017E0010E1E6E04D0E4
:10338800D8901C361D361E2A1DAEFAD71C501A5C62
:103398001D501B5804E31C501A5E1D501B5AD89030
:1033A8001D321C321E2EF2D71AC01AF01BC01BF099
:1033B800120081B603D0010E1A6E01D01A6A1A5093
:1033C80013E0320E3518361006E1366A3C0E356EBB
:1033D800020E3D6E020C354A362A070E3518361095
:1033E800D8B41AC03DF01200356A366A12001AC005
:1033F8001CF01BC01DF002D01A4A1B2A1AC0F6FF87
:103408001BC0F7FFF86A050EF76403D00800F550F3
:1034180002D021EC14F00009EFE11C501A5C1A6E7E
:103428001D501B581B6E1200800E921B8BC07BF028
:103438008CC07CF08DC07DF08EC07EF08FC07FF098
:1034480090C080F091C081F092C082F0B2EC0AF096
:103458007BC08BF07CC08CF07DC08DF07EC08EF080
:103468001200010E206E200E1A181B1011E0F70E24
:103478001C6E1D681AC01EF01BC01FF01C501E26B3
:103488001D501F221F5003E1050E1E5C01E3206A38
:1034980020C01AF01B6A12001C6A2050080DF35055
:1034A800400969EC1AF0216A010E1C6E1EC0F6FF75
:1034B8001FC0F7FF0800F55069EC1AF01E4A1F2AD2
:1034C800212A070E2164F0D7070C1D6E1C5002E15B
:1034D800899E01D0898EE40E00F000F000F000F023
:1034E800E82EFAD700F000F000F000F01D380F0BBE
:1034F8000BEC16F01D500F0B0BEF16F0D8903E3664
:10350800D8903E360F0E3E1681380F0B030B3E2621
:103518003B0E3E24F66EF76A7E0EF7220800F5CFC2
:103528003FF07F0E3F1801E13F6A3F501200246AC6
:10353800256A09D023C01BF01C6A62C01DF0DDECAF
:1035480016F0244A252A245000016025D96E2550FA
:103558006121DA6EDF50236E2350ECE11200BF0EBA
:103568001C6E1D681AC01EF01BC01FF01C501E26C2
:103578001D501F221F5005E11A0E1E5C02E2010EAB
:1035880001D0000E1A6E1B6A1200D00E1C6E1D6848
:103598001AC01EF01BC01FF01C501E261D501F22F3
:1035A8001F5005E10A0E1E5C02E2010E01D0000E5A
:1035B8001A6E1B6A12001F502102F3CF23F0F4CFBA
:1035C80024F01F502202F350242620502102F350E9
:1035D800242623C01FF024C020F01200015003024B
:1035E800F3CF05F0F4CF06F001500402F35006269D
:1035F80002500302F350062605C001F006C002F08F
:1036080012001B6EA6B2FED71BC0A9FF1AC0A8FFE6
:10361800A69EA69CA684F29E550EA76EAA0EA76E1D
:10362800A682F28EAA0C1A501B101C101D1002E064
:10363800800E1D1A1AC01AF01BC01BF01CC01CF00B
:103648001DC01DF012001E681F6820687F0E216EC5
:103658001EC01AF01FC01BF020C01CF021C01DF0B6
:103668007F0C2EEC14F069EC1AF02A0E1E6E8E0EEA
:10367800E82EFED71E2EFCD71200A6B2FED71AC01F
:10368800A9FFA69EA69CA680A85012001A6E9EA806
:10369800FED71AC0ADFF12001E6E010E1C6E1E5022
:1036A80069EF1AF03DC01AF03D6A1A501200286EF0
:0636B800756C6C29000195
:107DFA000041A042A1E045A3A4A5A64BA74D484F28
:107E0A00A8504354A9AA58E1ABACE2ADAE62AFB0F8
:107E1A00B161B2B3B4E365B6B7B8B9BABBBCBD6FAA
:107E2A00BE7063BF79E478E5C0C1E6C2C3C4C5C603
:107E3A00C700FF017F01007FFFFF7F00017F01FF75
:107E4A000041756720313020323032310031313A09
:107E5A0035333A313100000E1F1B1F0E000000009F
:107E6A001F1F1F00000000040F1F0F040000000462
:107E7A001E1F1E0400000E1111110A1B0000000033
:107E8A000815020000002020202020202020204564
:107E9A00584954202020202020202000436C635081
:107EAA003A256325303475572025633D25752E25DF
:107EBA007500417078503A2563253034755720256E
:107ECA00633D25752E257500202020534554203109
:107EDA0030302520504F57455220202000202020A6
:107EEA004544495420524553495354414E43452031
:107EFA002000202053415645204C4F414420444500
:107F0A004641554C5420002D2D2D42524553454E85
:107F1A0048414D20535441422D2D2D00526573691D
:107F2A0073743A253032752E2575204F686D2000FE
:107F3A004C6F6E6720707265737320666F72207360
:107F4A006176650020202D2057686F6C652070616E
:107F5A007274202D20200020202D20467261637427
:107F6A002070617274202D20200020202020746F40
:107F7A0020454550524F4D2E002863294976616E9F
:107F8A005F666420762573005077553A2575252556
:107F9A00202000436F6566663A25662020004E4F12
:107FAA0054205354414221200053544142494C49E0
:107FBA005A4520005077523A257525252000555FED
:107FCA00496E3A25755620005077553A257525256C
:107FDA002A0033312E30332E323100257320257397
:107FEA0000494E46004E414E00696E66006E616E53
:057FFA00006C660000B0
:020000040020DA
:08000000FFFFFFFFFFFFFFFF00
:020000040030CA
:0E000000FF081E17FF8081FF0FC00FE00F40AA
:0200000400F00A
:080000001814210000000000AB
:00000001FF
