:0400000062EF00F0BB
:060008004582B0EF12F08A
:100018004580D8CF18F0E8CF19F0E0CF1AF0F2BA3F
:10002800F2A404D0F294390ED66EC2829DB09EA07E
:1000380006D09E9001012C2B2B2B010E2A6F9DB20E
:100048009EA234D09E9201019F4BA02B0E0E9F5D65
:10005800030EA05905E39F6BA06B010EA26FCA9413
:10006800295124E0CA843A4A3B2A3B5010E1C40E85
:100078003A5C0DE2010E8BAA000EFF0A176E173AC2
:1000880017468B501718DF0B17188B6E0FD03B5085
:1000980003E1C40E3A5C07E3860E3A5C010E3B5856
:1000A80002E28B9A03D08B9A3A6A3B6A1AC0E0FF45
:1000B80019C0E8FF18C0D8FF45901000B3EF1BF037
:1000C8000AEC14F0D3EC04F0D00E0001FB6FC90E5B
:1000D800E82EFED7FB2FFCD700F000F0010E1F6EB4
:1000E80012EC1DF0F00E0001606F7E0E616FD9EC0E
:1000F80016F0D0EC04F012EC1DF00DEC0CF0620ED2
:10010800D76F7F0ED86FC90ED96F7F0EDA6FEFECFD
:100118001CF001EC0CF0D9EC16F0CDEC04F012EC6C
:100128001DF00DEC0CF0DB0ED76F7F0ED86F0D0EA7
:10013800D96F7E0EDA6F190EDB6F7E0EDC6FEFEC77
:100148001CF001EC0CF0D9EC16F0A30E0001FC6FCA
:10015800570EFB6F020EE82EFED7FB2FFCD7FC2FA5
:10016800FAD700F004003EEC1FF01C6A030E1B6E69
:100178004AEC1FF00101276F1C6A040E1B6E4AEC43
:100188001FF00101256F1C6A020E1B6E4AEC1FF05E
:100198000101216F21C116F1176B1C6A1B6A4AEC19
:1001A8001FF001011F6F1C6A010E1B6E4AEC1FF045
:1001B80001011E6FA9DB08EC1CF0BFDB0400010184
:1001C8002A5103E091EC1DF02A6B5FEC1FF0226FBF
:1001D8009D0E0001606F010E616FA10E626F010E2E
:1001E800636FA20E646F010E656F9F0E666F010E3E
:1001F800676FA7EC14F00101236F255116E0275112
:100208000001FB6FFC6B9DC11BF09EC11CF006EC4E
:1002180014F0CAEC1CF00001FB511B5CFC511C588B
:1002280004E3010E01011C6F296F0101230502E19E
:10023800010E286F030E231902E1030E286F6BECE1
:100248001EF0202720B11BD0205119E020AF0AD082
:1002580043A404D0F60E1627FF0E09D01607D8A01F
:10026800170709D043A405D00A0E1627000E172336
:1002780002D0164B172B206B439A43882B6B3F50A9
:1002880001E02AD3320E401801E026D310C11BF03A
:1002980011C11CF012C11DF013C11EF01AC11FF0CC
:1002A8001BC120F0216A226A14EC1BF01BC00CF160
:1002B8001CC00DF11DC00EF11EC00FF10CC11BF0CA
:1002C8000DC11CF00EC11DF00FC11EF0000E52EC46
:1002D80016F01BC08FF01CC090F01DC091F01EC01E
:1002E80092F047EC0CF08FC0BCF090C0BDF091C00C
:1002F800BEF092C0BFF02AEC19F0BCC09BF1BDC0A3
:100308009CF1D89001019C310001FB6F01019B31E8
:100318009B6FFBC09CF10001666B676B5C0E686F9E
:10032800430E696F9BC11BF09CC11CF01D6A1E6ABD
:10033800000E52EC16F01BC06AF01CC06BF01DC01A
:100348006CF01EC06DF04DEC10F066C008F167C08F
:1003580009F168C00AF169C00BF10101106B116B5A
:10036800126B136B010E3F6E1C5105E0255103E023
:10037800386A396A4ED043B63DD002DB21511B6E34
:100388001C6A1D6A1E6A010E52EC16F01BC066F04C
:100398001CC067F01DC068F01EC069F038EC0FF093
:1003A80066C0F0F167C0F1F168C0F2F169C0F3F11D
:1003B800836B846B856B3F0E866FE2DAF0C166F063
:1003C800F1C167F0F2C168F0F3C169F038EC0FF0E1
:1003D800CEDA0AEC0EF07FC0BCF080C0BDF081C060
:1003E800BEF082C0BFF02AEC19F0BCC038F0BDC026
:1003F80039F004D0000E396E640E386E395003E1BE
:10040800650E385C05E3396A640E386E439C01D08A
:10041800438C89B604D00001FB6BFB2B02D0000192
:10042800FB6BFB47FB47FB478950FB19F70BFB1995
:10043800896E27EC0CF09BC16EF09CC16FF03850B0
:1004480061EC13F06AC018F16BC019F145D2050EC2
:1004580001012C6503D02C6B83EC0AF0010117AF66
:1004680003D0166B176B0AD017BF08D0175103E1DA
:10047800650E165D03E3176B640E166F220507E120
:1004880016C121F1438A43961C6B296B8B9A020E85
:10049800221901E093D63EEC1FF0030E01011D6FF7
:1004A800020E1F6E050E12EC1DF0040E59EC1FF023
:1004B800050E59EC1FF0050E59EC1FF0050E59EC0E
:1004C8001FF0050E59EC1FF0200E59EC1FF0060E18
:1004D80059EC1FF0200E59EC1FF0050E59EC1FF0D7
:1004E800050E59EC1FF0050E59EC1FF0050E59ECDE
:1004F8001FF0030E59EC1FF00101166B8ED001019D
:1005080017BF08D0175103E1050E165D03E3176BFB
:10051800040E166F17AF36D0166B176B33D039DA57
:1005280012EC1DF0C60E0001606F7E0E616FD9ECF3
:1005380016F034D02EDA12EC1DF0DB0E0001606FDD
:100548007E0E616FD9EC16F029D023DA12EC1DF07B
:10055800B10E0001606F7E0E616FD9EC16F01ED0EF
:1005680018DA12EC1DF02DDAD9EC16F017D011DAE2
:1005780012EC1DF05A0E0001606F7E0E616FD9EC0F
:1005880016F00CD011DA0AE1FB51C9E0010AD2E0F9
:10059800030ADBE0010AE4E0070AE9E001012205B9
:1005A8005FE00CD6386A396A3EEC1FF01FC116F1BD
:1005B8000101176B4382F0D912EC1DF0FCD9D9EC7C
:1005C80016F0E7D912EC1DF0190E0001606F7F0ECE
:1005D800616FD9EC16F041EC0CF012EC1DF0530EE3
:1005E8000001606F7F0E616FD9EC16F0010E0101FA
:1005F8001D6FE4D501011D6B21C11BF0020E00EC3B
:100608001FF0CDD93EEC1FF0D9D501011D6B3EEC92
:100618001FF0438621C116F10101176BCFD5040ED7
:1006280001011D6F3EEC1FF027C126F1439026C142
:1006380016F10101176B25C124F1010E1F6E12EC92
:100648001DF0BFD9D9EC16F0A7D912EC1DF0030E96
:1006580059EC1FF0B3D501011D6B3EEC1FF0DAD742
:10066800A3D901E0ABD5FB519DE0010AC3E0030A21
:10067800CCE0010AD4E0070AEEE0A0D543A212D0EC
:10068800010117BF08D0175103E1640E165D03E39B
:10069800176B630E166F17AF02D0166B176B16C168
:1006A8001FF133D0010117BF09D0175103E1640EC0
:1006B800165D04E3000E176F630E166F17BF05D0A3
:1006C80017510DE10A0E165D0AE217BF08D017513F
:1006D80003E1060E165D03E3166B176B10D017BF08
:1006E8000ED0175102E116050AE317BF05D01751BE
:1006F80006E1050E165D03E2176B0A0E166F17AFBB
:1007080002D0166B176B16C11EF12CD9050ED76FC8
:100718007F0ED86F1FC1D9F1DA6B1EC1DBF1DC6B1C
:10072800EFEC1CF0010E1F6E12EC1DF001EC0CF04A
:10073800D9EC16F0010122051EE143B202D0438232
:1007480001D0439243A209D027D912EC1DF033D926
:10075800D9EC16F01FC116F10CD01ED912EC1DF001
:10076800400E0001606F7F0E616FD9EC16F01EC15C
:1007780016F10101176B020E221901E01FD53EEC9C
:100788001FF001011D6BC0D808EC1CF0D6D81FC1A2
:100798001BF0000E00EC1FF01EC11BF0010E00EC58
:1007A8001FF0FDD843940AD543B012D0010117BFFA
:1007B80008D0175103E16A0E165D03E3176B690E43
:1007C800166F17AF02D0166B176B16C126F109D03A
:1007D800010120BF246B2051800A7F0F02E3010E24
:1007E800246FC0D8710ED76F7F0ED86F26C1D9F18C
:1007F800DA6BDC6B070EDB6FDE6B430EDD6FEFEC45
:100808001CF0020E1F6E12EC1DF001EC0CF0D9EC7E
:1008180016F00101245104E1F50EF46F7F0E03D0A8
:10082800FC0EF46F7F0EF56F9DD8A00ED76F7F0E6C
:10083800D86FF4C1D9F1F5C1DAF1EFEC1CF0030E71
:100848001F6E020E12EC1DF001EC0CF0D9EC16F044
:100858000101220526E143B002D0438001D0439034
:1008680043A00DD096D812EC1DF0030E59EC1FF0E2
:1008780093D812EC1DF0200E59EC1FF012D0010194
:100888002651166F176B16BF170786D812EC1DF086
:10089800030E59EC1FF07DD812EC1DF0200E59EC18
:1008A8001FF0020E0101221901E088D43EEC1FF06E
:1008B80001011D6B21C116F1176B26C127F124C157
:1008C80025F127C11BF0030E00EC1FF025C11BF01A
:1008D800040E00EC1FF072D401011D510001FB6FE2
:1008E800FC6BFC5101E06AD4FB5101E1B0D5010A6F
:1008F80001E1C4D6030A01E161D4010A01E1FFD58F
:10090800070A01E151D75AD41E510A0DF3CFFBF063
:10091800F4CFFCF0000E0001FCBFFF0EFD6FFE6F70
:1009280001011F511B6E1C6A1D6A1E6AE80E1F6EAC
:10093800030E206E216A226A030C0001FB511B245E
:100948000101046F0001FC511C200101056F000129
:10095800FD511D200101066F0001FE511E200101FD
:10096800076F12007D0ED56F010ED66F120066C09C
:100978007FF067C080F068C081F069C082F0120023
:1009880008C16AF009C16BF00AC16CF00BC16DF0C7
:100998001200030E1F6E010C020E1F6E010C21C106
:1009A80016F10101176B120016C1FBF017C1FCF01C
:1009B8000001FC5112002D0E0001606F7F0E616F67
:1009C80012009C0E0001606F7E0E616F1200010123
:1009D800B76BB86BC8C0C9F1C9C0CAF1CAC0CBF1FE
:1009E800CBC0CCF1CCAF15D0B86B010EB76FC9C175
:1009F8001BF0CAC11CF0CBC11DF0CCC11EF012EC1B
:100A08001FF01BC0C9F11CC0CAF11DC0CBF11EC02C
:100A1800CCF1CF6BD06B2CC0BBF12DC0BCF1B75162
:100A2800B81102E130A410D0B751B81103E1A46B9A
:100A38002B0E02D0A46B2D0EA36FA3C12DF1CF4BAB
:100A4800D02BBB07D8A0BC073BDB27EC18F01B0456
:100A58001C102EE1BF0EB0DA0BE11A0ECF5D08E2D2
:100A6800DFDAE10E1D6E7F0E1E6E7EEC1CF007D0E5
:100A7800D7DAE90E1D6E7F0E1E6E7EEC1CF00101AA
:100A8800FD0EBB27FF0EBC23C6C068F0C7C069F0C7
:100A98002D0E00016A6F010E6B6FBBC16CF0BCC1FB
:100AA8006DF096EC1AF068C0C6F069C0C7F0120085
:100AB80007DB27EC18F01B501C1016E1BF0E7CDA80
:100AC8000BE11A0ECF5D08E2ABDAE50E1D6E7F0E64
:100AD8001E6E7EEC1CF0D3D7A3DAED0E1D6E7F0ED2
:100AE8001E6E7EEC1CF0CBD701010EDBC9C11BF0DA
:100AF800CAC11CF0CBC11DF0CCC11EF018DB84ECC0
:100B08001BF010E32DD09EDAADDA38EC0FF066C09A
:100B1800D1F167C0D2F168C0D3F169C0D4F1010145
:100B2800CD4BCE2BDFDA00019DDA8CDA38EC0FF0F2
:100B3800D0DAC3EC19F008E3E6D70DDA4DEC10F083
:100B480077DACD07D8A0CE07CDDAD1C183F0D2C1EC
:100B580084F0D3C185F0D4C186F0C3EC19F0EDE37D
:100B6800CCC021F0226AE9EC1DF021500101BE6FD2
:100B7800BEC1BDF1670EBE1916E12E502F1004E15B
:100B8800000E2F6E010E2E6E2FBE04D02F5006E1E0
:100B98002E0404E2BA6B060EB96F08D02EC0B9F164
:100BA8002FC0BAF103D02FBEF5D7F8D7670EBE19FC
:100BB80024E1CEAF05D0FC0ECD5DFF0ECE591AE371
:100BC8000001CD69CE69B9C1CFF0BAC1D0F0CD511D
:100BD800CF27CE51D0230101CD510001CF5DD05197
:100BE800800AD16F0101CE51800A0001D15902E378
:100BF800660E01D0650E0101BD6FB9C1AFF1BAC172
:100C0800B0F1670EBE1905E1660EBD1904E1CEAF5D
:100C180002D0AF4BB02B660EBD1909E1CEBF74DA16
:100C2800670EBE1904E0CD51AF27CE51B023C76B74
:100C3800C86BC9C1BFF1CAC1C0F1CBC1C1F1CCC138
:100C4800C2F1D1C1B1F1D2C1B2F1D3C1B3F1D4C1B2
:100C5800B4F117D0C3D94DEC10F04DDAF2EC11F025
:100C6800CED92AEC19F05EDA85D938EC0FF00DDA16
:100C7800CCEC1DF098D96FD94DEC10F0D9D9C74BF1
:100C8800C82BF7D9E7E3DED96A6B6B6BA00E6C6FE4
:100C9800400E6D6F38EC0FF066C0C3F167C0C4F149
:100CA80068C0C5F169C0C6F102DAC3C183F0C4C126
:100CB80084F0C5C185F0C6C186F0C3EC19F002E224
:100CC800010116D0BFC11BF0C0C11CF0C1C11DF08D
:100CD800C2C11EF0C3C11FF0C4C120F0C5C121F0BC
:100CE800C6C122F084EC1BF007E30101B5B104D0C2
:100CF800C36BC46BC56BC66BC9C17FF0CAC180F03A
:100D0800CBC181F0CCC182F0C3C183F0C4C184F0EF
:100D1800C5C185F0C6C186F00AEC0EF07FC0BFF1F0
:100D280080C0C0F181C0C1F182C0C2F1C0D99AD9D6
:100D3800B5D938EC0FF0CDD9C3EC19F016E30101A1
:100D4800CD4BCE2BABD900018DD938EC0FF066C056
:100D5800B1F167C0B2F168C0B3F169C0B4F1660E11
:100D68000101BD1902E1AF4BB02BB1C1D1F1B2C144
:100D7800D2F1B3C1D3F1B4C1D4F1650E0101BD19EB
:100D880005E0CDC1ADF1CEC1AEF102D0AD6BAE6B19
:100D9800AB6BAC6BA96BAA6BC76BC86B48D01ED981
:100DA8004DEC10F0A8D9F2EC11F029D92AEC19F081
:100DB800B9D930B80CD00101B551B61108E1670EA8
:100DC800BE1905E1AEAF03D0A94BAA2B20D0010173
:100DD800AB51AC1113E1AEAF11D0F9D82E0E9DD99D
:100DE800D8A0BC07AC6B010EAB6F08D0F0D8300EA2
:100DF80094D9D8A0BC07A907D8A0AA07A951AA11B5
:100E0800F5E1E5D8B551300F88D9D8A0BC07B2D8DC
:100E180038EC0FF03AD9CCEC1DF0C5D89CD84DEC85
:100E280010F006D9AD07D8A0AE07C74BC82B21D9FB
:100E380008E20101D0BFB3D7D05103E14B0ECF5D1B
:100E4800AEE30101AB51AC1107E130A805D0BFD822
:100E58002E0EDF6ECF4BD02BBAD8DF6A650EBD19C8
:100E680001E012D6C86B4F0EC76FF5D8DF6AB76BB3
:100E7800B86BCEAF07D0B86B010EB76FCD6DCE1F74
:100E8800D8B0CE2BBA6B020EB96F23D0C707D8A043
:100E9800C807E1D8CDC11BF0CEC11CF01E6A0A0EEE
:100EA8001D6E50EC1BF01B50300FDF6ECDC11BF0D8
:100EB800CEC11CF01E6A0A0E1D6ED8EC1AF01BC0BB
:100EC800CDF11CC0CEF1B907D8A0BA07BB07D8A08E
:100ED800BC07CD51CE11DAE1BABF04D0BA51D6E180
:100EE800B905D4E2C707D8A0C807B751B81103E1BC
:100EF800A66B2B0E02D0A66B2D0EA56FACD8A5C184
:100F0800DFFFBB07D8A0BC07C707D8A0C807BF0E1C
:100F1800000152D803E11A0ECF5D04E30101A86B6A
:100F2800650E03D00101A86B450EA76F94D8A7C121
:100F3800DFFFBB07D8A0BC072D0ECF251B6E010E07
:100F4800D0211C6E2D0EC7251D6E010EC8211E6EE8
:100F58007EEC1CF099D5D1C166F0D2C167F0D3C13F
:100F680068F0D4C169F06A6B6B6B200E6C6F410E30
:100F78006D6F410CBFC18FF0C0C190F0C1C191F03D
:100F8800C2C192F0D1C16AF0D2C16BF0D3C16CF08A
:100F9800D4C16DF0C3C166F0C4C167F0C5C168F0C3
:100FA800C6C169F012008FC0BFF190C0C0F191C0F6
:100FB800C1F192C0C2F11200CD6FCE69CC51CF6F92
:100FC800D06BCD51CF27CE51D023D05112002D0E4A
:100FD800CF25D96E010ED021DA6E1200BFC166F09E
:100FE800C0C167F0C1C168F0C2C169F0D1C16AF07F
:100FF800D2C16BF0D3C16CF0D4C16DF012007FC0C8
:10100800C3F180C0C4F181C0C5F182C0C6F1C3C1BB
:10101800BCF0C4C1BDF0C5C1BEF0C6C1BFF012006E
:101028002D0E0101CF251B6E010ED0211C6E120062
:1010380066C0D1F167C0D2F168C0D3F169C0D4F1FC
:1010480001011200D1C166F0D2C167F0D3C168F0C6
:10105800D4C169F012002D0EC725D96E010EC82122
:10106800DA6E12006A6B6B6B200E6C6F410E6D6F3F
:10107800410CAF51C75DC851800A0001CD6F010115
:10108800B051800A0001CD59120066C093F067C0C4
:1010980094F068C095F069C096F01200B1C166F08E
:1010A800B2C167F0B3C168F0B4C169F01200BFC142
:1010B8007FF0C0C180F0C1C181F0C2C182F01200CE
:1010C800C9C11BF0CAC11CF0CBC11DF0CCC11EF0B8
:1010D800120066C083F067C084F068C085F069C0FC
:1010E80086F01200C9C17FF0CAC180F0CBC181F07F
:1010F800CCC182F0120066C07FF067C080F068C083
:1011080081F069C082F01200D16BD26B800ED36F70
:101118003F0ED46FCD6BCE6B1200DF6ECF4BD02B52
:10112800BB071200BCC0B5F1BDC0B6F112001F6A02
:10113800206A216A226A120075D9250A01E069D15C
:10114800A6D92C6A2D6A306A316A2E682F68E56B39
:10115800E66B20D030809BD91DD03082FCD73084FC
:10116800FAD73086F8D73088F6D7E66B010EE56FE8
:1011780011D058D9D76FD86BD851F7E1D751200A79
:10118800F0E0030AF0E0080AEAE0060AE3E01D0AD4
:10119800E4E0EBD7E551E611ECE030B0309242D90B
:1011A8002A0A0FE1D4517AD947D9DECF2CF0DDCF06
:1011B8002DF02DAE16D030802C6C2D1ED8B02D2AD7
:1011C80010D08CD9C1EC17F06AC02CF06BC02DF090
:1011D80001D05DD967D926D979D903E10A0ED95D3D
:1011E800F8E320D92E0A1EE12E6A2F6A50D91AD99F
:1011F8002A0A08E1D45152D91FD9DECF2EF0DDCF0B
:101208002FF010D06BD9C1EC17F06AC02EF06BC06C
:101218002FF001D03CD946D905D958D903E10A0E97
:10122800D95DF8E3FFD8216E226AE9EC1DF0215060
:10123800ED6FED5113E042D9D72B38D95CD9E9ECE1
:101248001DF02150EE6FEE5109E038D9020ED72774
:101258002DD951D9E9EC1DF02150EF6FE3D8630A7D
:1012680012E1D4511BD9E8D8DF50F06FD2C020F07A
:10127800D3C021F0F0C022F051EC1AF020C0D2F017
:1012880021C0D3F01200660EED1921E1D451D96EB8
:10129800DA6ADECFF6FFDDCFF7FF0800F5CFF0F012
:1012A800F6D8DCD8D2C0C6F0D3C0C7F0E9C0C8F0C1
:1012B800EAC0C9F0EBC0CAF0ECC0CBF0F0C0CCF08B
:1012C800EBEC04F0C6C0D2F0C7C0D3F01200ED0EAC
:1012D8001B6E1C6AF90E1D6E7F0E1E6E206A020EB2
:1012E8001F6ED5EC18F01B501C1015E10001E6D854
:1012F800D72BDCD8F5CFF0F0BF0ED76FD86992D8CE
:10130800E5D800E1ABD8D451D96EDA6A020EDE26F0
:10131800000EDD22C7D7000185D8730A13E0D45127
:10132800D96EDA6ADECF1BF0DDCF1CF0F10E1D6E30
:101338007F0E1E6E206A030E1F6ED5EC18F01B5030
:101348001C1024E100016ED8730A03E0E86B030E59
:1013580002D0E86B010EE76FD451D96EDA6AE75113
:10136800DE26E85169D8DECFE3F0DDCFE4F0D2C065
:1013780020F0D3C021F0E3C022F0E4C023F040EC19
:1013880015F020C0D2F021C0D3F0120000014AD8D5
:10139800750A2CE1D45182D84FD8DECFD9F0DDCFF1
:1013A800DAF0D9C0DBF0DAC0DCF0DD6BDE6BDF6BC6
:1013B800E06BE16BE26BD2C073F0D3C074F0DBC0BA
:1013C80075F0DCC076F0DDC077F0DEC078F0DFC005
:1013D80079F0E0C07AF0E1C07BF0E2C07CF030EC5C
:1013E80011F073C0D2F074C0D3F012001BD8250AD4
:1013F8000CE14DD81D6A250E1C6E78D80AEC1AF03F
:101408000001D36B010ED26F010C41D8D26BD36BA4
:10141800120008D81C6E1D6A69D80AEC1AF000017F
:1014280036D8EED7D451D96EDA6ADECFF6FFDDCFE3
:10143800F7FF0800F5501200DD22D5C0D9FFD6C04D
:10144800DAFFDFCFD7F0020EDE26DFCFD8F0000EAE
:10145800DD22D7C0D9FFD8C0DAFF000CD5C0D9FF2C
:10146800D6C0DAFFDFCFD7F0040EDE26DFCFD8F004
:10147800000EDD22D7C0D9FFD8C0DAFFDECFE9F0F1
:10148800DECFEAF0DECFEBF0DECFECF0000CD4518B
:10149800D96EDA6ADE2A000EDD22000CD96EDA6A0D
:1014A800DE2A000CD00ED76FD869D00C000ED823D6
:1014B800D7C0F6FFD8C0F7FF0800000CD451D96E8A
:1014C800DA6ADECFD7F0DDCFD8F01200D96FDA6B49
:1014D800D751D927D851DA23DA511200D451D96E0D
:1014E800DA6ADECF6AF0DDCF6BF01200D2C01EF0F0
:1014F800D3C01FF01200F550216E226A1200B6EC1C
:1015080004F0B50ED76F7F0ED86F9BC1D9F19CC17F
:10151800DAF1EFEC1CF0010E1F6E12EC1DF06DD924
:10152800D9EC16F043BC0BD0ABD912EC1DF08A0EE7
:101538000001606F7F0E616FD9EC16F00AD0A0D958
:1015480012EC1DF0950E0001606F7F0E616FD9ECF3
:1015580016F05FD9AB0ED76F7F0ED86F38C0D9F1B0
:1015680039C0DAF1EFEC1CF0020E1F6E0B0E12EC14
:101578001DF043D9D9EC16F04CD9D20ED76F7F0E97
:10158800D86F08C1D9F109C1DAF10AC1DBF10BC181
:10159800DCF1EFEC1CF071D912EC1DF02ED9D9EC6E
:1015A80016F0040E1F6E0C0E12EC1DF0540E59ECC2
:1015B8001FF03A0E59EC1FF00101280501E09BD0FD
:1015C8004BD921D9CAEC1CF00FD953EC1DF060514E
:1015D80061115CE11E6A640E16D9CAEC1CF004D9CC
:1015E80053EC1DF06051611124E11E6A0A0E0BD9FB
:1015F800CAEC1CF0F9D853EC1DF06051300F59ECCF
:101608001FF02E0E59EC1FF00FD909D953EC1DF01D
:101618006051300F59EC1FF0070E59EC1FF0200EE7
:1016280059EC1FF0200E59EC1FF0200E59EC1FF05A
:101638007AD01E6A640EE7D8CAEC1CF0D5D853ECF1
:101648001DF06051300F59EC1FF01E6A0A0EDBD8EE
:10165800CAEC1CF0C9D853EC1DF06051300F59EC9E
:101668001FF02E0E59EC1FF0DFD8D9D853EC1DF01F
:101678006051300F59EC1FF0070E59EC1FF0200E87
:1016880059EC1FF0200E59EC1FF04DD0E5D8BBD80F
:10169800CAEC1CF0A9D853EC1DF06051300F59EC7E
:1016A8001FF01E6A640EAFD8CAEC1CF09DD853EC2C
:1016B8001DF06051300F59EC1FF01E6A0A0EA3D8B6
:1016C800CAEC1CF091D853EC1DF06051300F59EC66
:1016D8001FF02E0E59EC1FF0A7D8A1D853EC1DF01F
:1016E8006051300F59EC1FF0070E59EC1FF0200E17
:1016F80059EC1FF018D0030E281915E13F0E59ECCC
:101708001FF03F0E59EC1FF03F0E59EC1FF0200E52
:1017180059EC1FF0200E59EC1FF0200E59EC1FF069
:10172800200E59EC1FF0650E01012B613BD043A838
:1017380039D089D800016F6BDC0E6E6F010116512C
:1017480061EC13F06AC0F9F06BC0FAF062D8700E61
:10175800D76F7E0E8DD8F9C0DBF1FAC0DCF169D8FD
:10176800EFEC1CF0CDEC04F012EC1DF046D8D9ECEF
:1017780016F043AA05D04DD872D8EFEC1CF00BD068
:1017880048D87F0ED76F7F0ED86F16C1D9F117C111
:10179800DAF1EFEC1CF0D0EC04F012EC1DF02DD8CF
:1017A800D9EF16F0B6EC04F0860ED76F7E0E60D82F
:1017B80018C1DBF119C1DCF13CD8EFEC1CF04398FF
:1017C800CDEC04F012EC1DF018D8D9EC16F021D8A5
:1017D80046D8EFEC1CF0D0EC04F012EC1DF00DD85C
:1017E800D9EC16F0D3EF04F01BC060F01CC061F018
:1017F8000001636B0A0E626F0A0C7D0E0001606FB8
:10180800010E616F12001D6E9DC11BF09EC11CF080
:1018180012007D0E0101D56F010ED66F1200000176
:10182800636B0A0E626F0A0C9DC160F09EC161F085
:101838001200DE6B020EDD6F1FC1DFF1E06B1EC10F
:10184800E1F1E26B120004C16AF005C16BF006C158
:101858006CF007C16DF01200030E1E6EE80CBF0E8F
:10186800D76F7F0ED86F16C1D9F117C1DAF1120000
:10187800D86FDA6B010ED96F010C040E1F6E010CC4
:10188800010E1F6E0B0C8FC0A0F090C0A1F091C08C
:10189800A2F092C0A3F0A0C0B8F0A1C0B9F0A2C055
:1018A800BAF0A3C0BBF0936B946B800EBA15A9D99C
:1018B800800E95192CE17F0E96199311941127E14A
:1018C8008FC06AF090C06BF091C06CF092C06DF060
:1018D8008FC066F090C067F091C068F092C069F060
:1018E80038EC0FF0BBEC04F08FC083F090C084F0AC
:1018F80091C085F092C086F00AEC0EF07FC08FF0A0
:1019080080C090F081C091F082C092F01200BBBFFD
:1019180006D0BB51BA11B91124E1B80522E26CD93D
:10192800BA516FD9935194119511961109E18FC04D
:101938008FF090C090F091C091F092C092F0120098
:10194800BBAF0FD06F0E1B6E7E0E1C6E22EC1FF00D
:101958001BC08FF01CC090F01DC091F01EC092F00B
:101968001200170E936FB8C094F0B9C095F0BAC0C2
:1019780096F0BBC097F0936701D007D0973597339F
:10198800963395339433932FF6D794C0B0F095C01F
:10199800B1F096C0B2F097C0B3F00001B051B111E8
:1019A800B211B31125E19C6B9D6B9E6B9F6B0AD0A6
:1019B800D890B837B937BA37BB379C2B000E9D2360
:1019C8009E239F23BAAFF4D7FF0E9C25936FFF0E7B
:1019D8009D21946FFF0E9E21956FFF0E9F21966F9C
:1019E8009351B05F9451B15B9551B25B9651B35B23
:1019F800810EB027FF0EB123B223B323FDD87F0E8B
:101A0800BA15956F000E966B9311B86F000E94116E
:101A1800B96F800E9511BA6F000E9611BB6FB0B1F9
:101A2800DBD8B335B333B233B133B033D5D8986BD1
:101A3800996B9A6B9B6BA46BA56BA66BA76BB46B2E
:101A4800B56BB66B010EB76F3BD09851B425A86F34
:101A58009951B521A96F9A51B621AA6F9B51B72107
:101A6800AB6FA851B85DA951B959AA51BA59BB5120
:101A7800800A936FAB51800A93591CE3A851B4258F
:101A8800986FA951B521996FAA51B6219A6FAB5198
:101A9800B7219B6FA851B85FA951B95BAA51BA5B2E
:101AA800AB51BB5BB451A427B551A523B651A623AE
:101AB800B751A72391D8D890B733B633B533B433D9
:101AC800B451B511B611B711C0E1B851B911BA1175
:101AD800BB1138E08AD8ACC07FF0ADC080F0AEC092
:101AE80081F0AFC082F0836B846B800E856F3F0EF0
:101AF800866FC3EC19F026E378D87F6B806B800E75
:101B0800816F3F0E826FACC083F0ADC084F0AEC071
:101B180085F0AFC086F0C3EC19F006E2020EA427E8
:101B2800000EA523A6230DD0010EA415936F946B68
:101B3800956B966B9351A4279451A5239551A62391
:101B48009651A723A4C093F0A5C094F0A6C095F021
:101B5800A7C096F096359633953394339333000E99
:101B68009325B86F000E9421B96F000E9521BA6FB6
:101B78003F0E9621BB6FB0C093F0B1C094F0B2C0D5
:101B880095F0B3C096F0170ED890933794379537E1
:101B98009637E82EF9D79351B8279451B923955120
:101BA800BA239651BB23B8C0A0F0B9C0A1F0BAC0FF
:101BB800A2F0BBC0A3F0A0C0ACF0A1C0ADF0A2C021
:101BC800AEF0A3C0AFF0ACC08FF0ADC090F0AEC027
:101BD80091F0AFC092F01200B851B827B951B923AB
:101BE800BA51BA23BB51BB231200AC6BAD6B800E4C
:101BF800AE6F3F0EAF6F3F0CB851936FB951946FF2
:101C08001200956F7F0EBB15966F1200000182516E
:101C1800800B8B6F825182258D6F81BF8D818D5195
:101C280005E08D2901E106D9818F03D07F6B806B98
:101C3800816B826B8651800B8C6F8B1901E08B8DC9
:101C4800865186258C6F85BF8C818C5108E08C2944
:101C580004E1836B846B856B866B858F03D0836B04
:101C6800846B856B866B8D518C5D22E28BAD02D0C7
:101C7800800E8B1B8DC08EF08CC08DF08EC08CF0CA
:101C88007FC08EF083C07FF08EC083F080C08EF05E
:101C980084C080F08EC084F081C08EF085C081F051
:101CA8008EC085F082C08EF086C082F08EC086F02D
:101CB8008E6B8D518CC087F0886B875F000E885BB8
:101CC80088BF15D0885103E11A0E875D10E3C7D885
:101CD800010ED8B4000E8E6FADD88CC08DF00AD02E
:101CE8008EA102D0B7D802D0D8908E339AD88C5112
:101CF8008D5DF6E38BBD15D08D5101E1A6D08351E2
:101D08007F2784518023855181238651822382A194
:101D180053D08EA102D09ED802D0D8908E3381D8CD
:101D28004BD083517F5D84518059855181598251AF
:101D3800800A876F8651800A87591FE27F51835D29
:101D4800876F80518459886F81518559896F825175
:101D580086598A6FFF0E87257F6FFF0E8821806F57
:101D6800FF0E8921816FFF0E8A21826F800E8B1BE7
:101D78008E6D8E510AE163D808D083517F5F8451FC
:101D8800805B8551815B8651825B69D813E18E51F6
:101D980011E15BD0D8907F378037813782378EBF8B
:101DA8007F818EA102D0D88001D0D8908E378D51F6
:101DB80001E08D0781AFEED78C6B8EAF0AD08EC055
:101DC80087F07F0E871703E0010E8C6F02D07FB17A
:101DD800FBD78C510BE033D882A108D082358233EF
:101DE800813380337F338D2901E08D2B8D2902E0EB
:101DF8008D5104E11FD88D5101E18B6B8DA102D06B
:101E0800818F01D0819FD8908D31826F8BBF828F57
:101E18007FC07FF080C080F081C081F082C082F0F6
:101E280012007FB18E8F82358233813380337F33C6
:101E38008D2B12007F6B806B816B826B12007F2B66
:101E4800000E802381238223000C7F6B806B816BC3
:101E5800826B1200D8908E3101098E6F12007F516B
:101E6800801181118211120000016951800B726F7B
:101E780069516925746F68BF7481745105E07429CC
:101E880001E102D9688F01D0FFD86D51800B721B18
:101E98006D516D25736F6CBF7381735105E07329A4
:101EA80001E1EDD86C8F01D0EAD8735102E074518A
:101EB80005E1666B676B686B696B12006C516603B2
:101EC800B1D8756F766B776B786B7E51796F7A6B5B
:101ED8007B6B7C6B6B516703A5D8B2D86A516803DA
:101EE800A1D8AED8A5D86A5167039CD8B5D86B518C
:101EF800660398D8B1D89CD86A51660393D8ACD8F1
:101F08006C5167038FD8B4D86B5168038BD8B0D89D
:101F18006C51680387D86E6F7E516F6F706B716BF1
:101F280070C071F06FC070F06EC06FF06E6B6E5164
:101F380079276F517A2370517B2371517C23785113
:101F4800792791D875D8735174C06EF06F6B6E276E
:101F5800000E6F23820E6E257D6FFF0E6F217E6F40
:101F68000FD0D89079377A377B377C3778BF79812B
:101F7800D89075377637773778377D07D8A07E07BA
:101F88007BAFEFD7736B78AF13D075516E6F765107
:101F98006F6F7751706F7F0E7815716F6E516F117B
:101FA8007011711103E0010E736F02D079B1FBD784
:101FB80073510BE0792B57D87CA107D07C357C3343
:101FC8007B337A3379337D4B7E2B7EBF0AD07E51AB
:101FD80002E17D2906E3796B7A6B800E7B6F7F0EB9
:101FE80015D07EBF04D07E5108E17D0506E2796BED
:101FF8007A6B7B6B7C6B726B0AD07DC074F07F0E42
:102008007B177C6B74B17B8FD89074317C6F725165
:102018007C1379C066F07AC067F07BC068F07CC03A
:1020280069F01200F3CF7DF0F4CF7EF07D511200FD
:1020380077C078F076C077F075C076F0756B1200CF
:102048007527000E7623772378237E517927000E93
:102058007A237B237C23000C75277E517623000E80
:1020680077237823000C000E7A237B237C23000C33
:1020780079277E517A23000E7B237C23000C6A6B20
:102088006B6B6C6B6D6B1200666B676B686B696B67
:10209800120000016951800B766F695169257D6FC7
:1020A80068BF7D817D5105E07D2901E1D0D8688F29
:1020B80003D0666B676B686B696B6D51800B761B21
:1020C8006D516D257E6F6CBF7E817E5108E07E2943
:1020D80004E16A6B6B6B6C6B6D6B6C8F03D06A6B16
:1020E8006B6B6C6B6D6B6A516B116C116D1110E140
:1020F800AED8800E68137F0E69137651691366C0D7
:1021080066F067C067F068C068F069C069F01200DF
:102118007D5105E1666B676B686B696B12007E51D8
:102128007DC06EF06F6B6E5F000E6F5B7F0E6E256D
:10213800776F000E6F21786F66C072F067C073F01A
:1021480068C074F069C075F082D8796B7A6B7B6B64
:102158007C6B7E6B1BD07E5106E0D890723773374C
:102168007437753767D86A51725D6B5173596C5102
:1021780074596D51755909E37C8D6A51725F6B51C1
:10218800735B6C51745B6D51755B7E2B190E7E65AC
:10219800E2D7725173117411751106E0798104D078
:1021A80049D87707D8A0780768AFFAD77E6B7CAF95
:1021B80013D079516E6F7A516F6F7B51706F7F0EAC
:1021C8007C15716F6E516F117011711103E0010E62
:1021D8007E6F02D066B1FBD77E510EE0662B000EF3
:1021E80067236823692369A107D069356933683390
:1021F80067336633774B782B78BF07D0785102E185
:10220800772903E3786B776922D878BF04D07851AF
:1022180006E1770504E2776B786B19D8766B77C09F
:102228007DF07DA102D0688F01D0689FD8907D3164
:10223800696F63D7D89066376737683769377CBF67
:102248006681D89079377A377B377C371200666B8E
:10225800676B686B696B12002FAE30922FBE04D08B
:102268002F5006E12E0404E2866B010E856F04D020
:102278002EC085F02FC086F02CC087F02DC088F0C6
:1022880075C089F076C08AF077C08BF078C08CF082
:1022980079C08DF07AC08EF07BC08FF07CC090F052
:1022A800926B4F0E916F01017C6B68D09107D8A09B
:1022B80092072D0E9125D96E010E9221DA6E89C0F2
:1022C80060F08AC061F08BC062F08CC063F08DC092
:1022D80064F08EC065F08FC066F090C067F00A0E9B
:1022E800686F696B6A6B6B6B6C6B6D6B6E6B6F6B2E
:1022F80080EC18F060C07DF061C07EF062C07FF0B5
:1023080063C080F064C081F065C082F066C083F06D
:1023180067C084F07D51300FDF6E8507D8A086072F
:102328008707D8A0880789C060F08AC061F08BC091
:1023380062F08CC063F08DC064F08EC065F08FC011
:1023480066F090C067F00A0E686F696B6A6B6B6B1A
:102358006C6B6D6B6E6B6F6B5AEC17F060C089F02D
:1023680061C08AF062C08BF063C08CF064C08DF0ED
:1023780065C08EF066C08FF067C090F00001915183
:10238800921117E089518A118B118C118D118E11C0
:102398008F1190118BE186BF04D0865187E18505A6
:1023A80085E288BF06D0885102E1870502E330B292
:1023B8007DD773C068F074C069F02D0E91256A6FDF
:1023C800010E92216B6F87C06CF088C06DF096EC9F
:1023D8001AF068C073F069C074F0120000C18FF081
:1023E80001C190F002C191F003C192F07FC08FF05B
:1023F80080C090F081C091F082C092F0810E836F0E
:1024080084698FC085F090C086F091C087F092C033
:1024180088F0180E05D0D8908833873386338533F3
:10242800E82EF9D7855183258D6F000E84218E6F94
:102438008EBF0ED08E5103E1170E8D5D09E37FC06C
:102448007FF080C080F081C081F082C082F01200ED
:102458008EBF48D08DC083F0846985697F0E866FF2
:10246800000E876F836701D007D08735873386339F
:1024780085338433832FF6D784C089F085C08AF0EA
:1024880086C08BF087C08CF0000189518F15836F4F
:102498008A519015846F8B519115856F8C519215C7
:1024A80055D8CDE044D801D04BD8E82EFDD783517C
:1024B80008E089518F278A5190238B5191238C51A1
:1024C8009223891D836F8A1D846F8B1D856F8C1DD8
:1024D800866F83518F1784519017855191178651B4
:1024E80092171CD024D801D02BD8E82EFDD78367AB
:1024F80005D08F6B906B916B926B10D0D8908F3505
:10250800836F9035846F9135856F92351FD806E0BB
:102518008F6B906B800E916FBF0E926F8FC07FF0A4
:1025280090C080F091C081F092C082F012008FC0FC
:1025380083F090C084F091C085F092C086F0200CA2
:10254800D89086338533843383331200866F835162
:102558008411851186111200F3CF0FF0F4CF10F01B
:10256800156A166A38503624136E39503720146E9F
:10257800F2B8F2A258D014BE08D0145003E1320EBB
:10258800135C03E3166A010E156E4450016E026A6D
:1025980001BE020634C003F035C004F0EDEC1EF0B5
:1025A80001C011F002C012F011C001F012C002F017
:1025B80015C003F016C004F0EDEC1EF002BE06D004
:1025C800025002E1010402E3156A166A155016105A
:1025D80008E0898A9C0E1324366EFF0E1420376E8D
:1025E80005D0899A13C036F014C037F0B180445032
:1025F800016E026A01BE020615C003F016C004F09F
:10260800EDEC1EF00150342602503522446C320E97
:10261800406001D0402A3F0405E13F6A01011A6B7E
:102628001B6B406AF2929DBC9EAC3BD0320E406060
:1026380037D0C350C4CF0DF00E6A0DC00EF00D6A2E
:102648000D26000E0E220DC028F00EC029F029BE5E
:10265800FF0E2A6E2B6E28C001F029C002F02AC096
:1026680003F02BC004F028C005F029C006F02AC0EA
:1026780007F02BC008F0A4EC1CF001C028F002C041
:1026880029F003C02AF004C02BF0285001011027BC
:10269800295011232A5012232B5013231A4B1B2B7A
:1026A8009E9CA0B2A1A203D0A192899AB19010C019
:1026B800F4FF0FC0F3FF4592110000017C6F6EC05C
:1026C8001BF06FC01CF01D6A1E6A6EC01FF06FC041
:1026D80020F0216A226A08EC1CF01BC076F01CC0AE
:1026E80077F01DC078F01EC079F076C01BF077C077
:1026F8001CF078C01DF079C01EF0E80E1F6E030EA6
:10270800206E216A226A08EC1CF01BC072F01CC003
:1027180073F01DC074F01EC075F072C01BF073C05A
:102728001CF074C01DF075C01EF06AC01FF06BC0AD
:1027380020F06CC021F06DC022F014EC1BF01BC01F
:102748007DF01CC07EF01E6A0A0E1D6E636B640E5F
:1027580053D853EC1DF060C01BF061C01CF0CAECEC
:102768001CF041D8DAEC1EF064C07AF065C07BF04A
:102778001E6A640E1D6E7DC01BF07EC01CF0CAEC84
:102788001CF031D8DAEC1EF064C070F065C071F04E
:102798007AC01BF07BC01CF035D8CAEC1CF01B506B
:1027A800000170271C507123636B0A0E25D853EC67
:1027B8001DF060C064F061C065F07CC066F0676BB6
:1027C800DAEC1EF064C01BF065C01CF01E6A640ED3
:1027D8001D6ECAEC1CF01B50000170256A6F1C505E
:1027E80071216B6F12001BC064F01CC065F07CC0C7
:1027F80066F00001676B1200626F7DC060F07EC0FA
:1028080061F012001E6A0A0E1D6E0A0CFC0ED31629
:10281800700ED3129B8C170E926E806A896A826A38
:102828008B6A946A8B988B9AF19E380E7C6E816ABB
:102838008A6A3F0E936ED550F80B0309D56ED5966C
:10284800D59AD58CD58EF194390ED66EC050F80B2A
:102858000609C06EC70EC016C08EC16AC280C30EFC
:10286800C2167E809F8C9D8CCD92CD96300ECD1257
:10287800CD8E9D809F90CD80B18EB18CB192CF0EC0
:10288800B116A282A082CA50FC0B0209CA6E780E49
:10289800CA12CA949F929D82400ECB6EF288F19C18
:1028A800F292D08EF28AF28CF28E050E0001616FE0
:1028B8000F0E606FF10EE82EFED7602FFCD7612F48
:1028C800FAD7CBEC15F0818EC6EC1EF0438A4396FE
:1028D800520E1F6E7E0E206E010E216E39EC1EF018
:1028E8004A0E1F6E7E0E206E020E216E39EC1EF00F
:1028F800420E1F6E7E0E206E030E216E39EC1EF006
:102908003A0E1F6E7E0E206E040E216E39EC1EF0FC
:10291800320E1F6E7E0E206E050E216E39EC1EF0F3
:102928002A0E1F6E7E0E206E060E216E39EC1EF0EA
:10293800220E1F6E7E0E206E070E216E39EC1EF0E1
:10294800010E3F6E010C93D82B0EDF6E7BD057EC37
:102958001CF00009D8A4030CCC0E72EC1DF0440E38
:1029680072EC1DF066C0D9FF67C0DAFFDF6A7AD85B
:10297800020EDF6ECA84000C57EC1CF0CC0E72EC11
:102988001DF0BE0E72EC1DF000016C6B920E6C25F2
:10299800D96EDA6A010EDA2233EC1DF0DF6E00011F
:1029A8006C2B080E6C65F2D7920E1B6E010E1C6E16
:1029B800090E1D6E30EC1CF0000901E0050C010148
:1029C80093510001686F0101925100016D6F68C059
:1029D8006EF06EAF07D06D6D6E1FD8B06E2B47D8F6
:1029E8002D0EDF6E6D510F0B6B6FFD0E6B25F66EA6
:1029F800F76A7D0EF7220800F5CF6BF06DC068F01E
:102A08006EC069F0040E6A6FD890693368336A2F14
:102A1800FBD768C06DF069C06EF06D510A0DF3CF39
:102A28006DF0F4CF6EF06B516D27000E6E2360C011
:102A3800D9FF61C0DAFF6DC0DEFF6EC0DDFF12D8BE
:102A4800DF6A010C0FD8DF50686F696B6951D8A431
:102A58001200685101E17BD7010A8EE0030AD8B45D
:102A6800000C120064C0D9FF65C0DAFF120062C012
:102A7800D9FF63C0DAFF120021EEF6F010EE66F01F
:102A8800060EDBCFE3FFE806FCE222C071F023C0AC
:102A980072F07151721103E1660E716F726B71C041
:102AA8001BF072C01CF0AFEC1DF01BC075F01CC011
:102AB80076F02EC073F02FC074F0000174BF0DD0F3
:102AC8007551735D7451800A656F7651800A655936
:102AD80004E273C075F074C076F075C073F076C008
:102AE80074F02CC06FF02DC070F030B009D006D053
:102AF80046D80AEC1AF00001754B762B37D8F8E364
:102B08006D6B6E6B1AD071C0F6FF72C0F7FFF86A72
:102B1800050EF76403D00800F55002D04AEC17F010
:102B28001C6E1D6A20C01EF021C01FF00AEC1AF0AE
:102B38000001714B722B6D4B6E2B73516D5D6E5195
:102B4800800A656F7451800A6559DDE330A009D0A9
:102B580006D015D80AEC1AF00001754B762B06D86A
:102B6800F8E375C020F076C021F012006F51755D52
:102B78007651800A656F7051800A655912001D6A86
:102B8800200E1C6E20C01EF021C01FF0200C899E54
:102B9800899CD00E206ECA0EE82EFED7202EFCD7B8
:102BA800D00E206ECA0EE82EFED7202EFCD7D00EEF
:102BB800206ECA0EE82EFED7202EFCD7D00E206E2F
:102BC800CA0EE82EFED7202EFCD7030E78EC19F09B
:102BD800680E206EE40EE82EFED7202EFCD700F0FB
:102BE80000F0030E78EC19F0680E206EE40EE82E63
:102BF800FED7202EFCD700F000F0030E78EC19F079
:102C0800680E206EE40EE82EFED7202EFCD700F0CA
:102C180000F0020E78EC19F0680E206EE40EE82E33
:102C2800FED7202EFCD700F000F0000E1D6E280EF7
:102C380052EC1EF0680E206EE40EE82EFED7202E11
:102C4800FCD700F000F0000E1D6E0C0E52EC1EF0CA
:102C5800A70E206E3A0EE82EFED7202EFCD700F0E5
:102C680000F03EEC1FF0680E206EE40EE82EFED752
:102C7800202EFCD700F000F0000E1D6E060E52EC60
:102C88001EF0680E206EE40EE82EFED7202EFCD72C
:102C980000F000F03EEC1FF0898E12000001606F1A
:102CA80060511CE01EAE1AD01BC01FF01CC020F0E3
:102CB8001DC021F01EC022F01F1E201E211E221E34
:102CC8001F2A000E2022212222221FC062F020C0CB
:102CD80063F021C064F022C065F008D01BC062F028
:102CE8001CC063F01DC064F01EC065F01B501C10B2
:102CF8001D101E1005E11B6A1C6A1D6A1E6A12005F
:102D0800960E616F02D0612B44D81F6A206A216A2F
:102D1800FE0E651544D808E0F6D7612B622B000E2D
:102D280063236423652335D81F6A206A216A6551A5
:102D380036D807E0F2D76107D8906237633764372F
:102D4800653764BF03D0020E6161F5D761A1649F46
:102D5800D890613361C01FF0206A216A226A1FC0BF
:102D680022F0216A206A1F6A1F50621320506313E1
:102D78002150641322506513605102E01EBE658F16
:102D880062C01BF063C01CF064C01DF065C01EF07B
:102D98001200D89065336433633362331200226EB5
:102DA8001F50201021102210120066D07CD852EC3F
:102DB8001EF02A0E0001626F8D0EE82EFED7622FDC
:102DC800FCD700F000F055D0D0EC04F012EC1DF068
:102DD80050D0000E1D6E100E52EC1EF04AD05CD87A
:102DE800F76403D00800F55001D050D80001626F95
:102DF800C00E62610CD0010E1D6E4ED8F76403D070
:102E08000800F55001D042D852EC1EF032D0010E25
:102E18001D6E400E626F63693FD8F76403D00800E7
:102E2800F55001D033D80001646F656B6251642797
:102E380063516523AD0E6425F66E7D0E6521F76E30
:102E48000800F55052EC1EF014D026D8F76403D0D1
:102E58000800F55001D01AD80001626F636B635106
:102E6800BEE16251080AB5E0020AAEE0060A9EE039
:102E7800B6D70001604B612B0FD8F76403D0080068
:102E8800F55001D003D80009E0E11200F6CFE1FFC8
:102E9800F7CFE2FFE750120060C0F6FF61C0F7FF0E
:102EA800F86A050E1200000E1D6E010C1B6A1C6AE2
:102EB8001D6A1E6A1F6A206A216A226A685169119E
:102EC8006A116B116C116D116E116F1145E0010ED5
:102ED800236E0AD0D890683769376A376B376C37F2
:102EE8006D376E376F37232A6FAFF4D7D8901B36FC
:102EF8001C361D361E361F362036213622366851BE
:102F0800605D695161596A5162596B5163596C51DD
:102F180064596D5165596E5166596F51675911E37E
:102F28006851605F6951615B6A51625B6B51635BB9
:102F38006C51645B6D51655B6E51665B6F51675B8D
:102F48001B80D8906F336E336D336C336B336A33B9
:102F580069336833232ECAD71BC060F01CC061F0E8
:102F68001DC062F01EC063F01FC064F020C065F091
:102F780021C066F022C067F01200726B736B706B31
:102F8800716B02D06A4B6B2B4FD8200AFBE0F70E0F
:102F98006C6F6D6949D84FD80AE1050E6E5D07E27E
:102FA800F1D7716B010E706F6A4B6B2B1FD03CD839
:102FB8006C6F6D6B6D511AE16C512B0AF5E0060AC6
:102FC800F0E014D072C064F073C065F0676B0A0E4D
:102FD800666FDAEC1EF028D8645F000E655B300E71
:102FE8006425726F000E6521736FDED7D00E6C6F8B
:102FF8006D691AD820D803E10A0E6E5DE3E37051BB
:1030080071110DE172C06CF073C06DF06C1F6D1F13
:103018006C4B6D2B6CC06AF06DC06BF0120072C007
:103028006AF073C06BF012006AC0F6FF6BC0F7FF5E
:103038000800F55012006E6F6F6B6C516E276D5162
:103048006F236F51120024C062F025C063F026C0C0
:1030580064F027C065F01BC062F01CC063F01DC09F
:1030680064F01EC065F03AD8180E05D0D890223208
:10307800213220321F32E82EF9D71F500001606F2D
:10308800616B6051611113E1D89062351F6E633531
:10309800206E6435216E6535226E29D804E11C6ADC
:1030A800020E1B6E020C1C6A030E1B6E030C6029B9
:1030B800611110E113D8090ED8901F362036213639
:1030C8002236E82EF9D713D8010ED8A4000E1B6EAD
:1030D8001C6A12001C6A040E1B6E040C62C01FF0EE
:1030E80063C020F064C021F065C022F012001F50B8
:1030F8002010211022101200685169116A116B11F9
:103108006C116D116E116F113BE0010E1B6E0AD030
:10311800D890683769376A376B376C376D376E37D1
:103128006F371B2A6FAFF4D76851605D69516159D9
:103138006A5162596B5163596C5164596D516559A3
:103148006E5166596F51675910E36851605F695154
:10315800615B6A51625B6B51635B6C51645B6D517F
:10316800655B6E51665B6F51675BD8906F336E33EA
:103178006D336C336B336A33693368331B2ED4D7A2
:1031880060C060F061C061F062C062F063C063F06B
:1031980064C064F065C065F066C066F067C067F03B
:1031A80012001BC060F01CC061F01DC062F01EC0A0
:1031B80063F01F06D8A020061F280DE120280BE188
:1031C8001B6A1C6A12000001604B612B624B632B67
:1031D8001F06D8A020062DD8F76403D00800F550A4
:1031E80002D04AEC17F0000913E02AD8F55010E095
:1031F8001F5020100DE024D8F5CF21F01AD8F7641D
:1032080003D00800F55002D04AEC17F02118DBE093
:1032180010D8F76403D00800F55002D04AEC17F034
:10322800216E0ED8F550215C1B6E1C6AD8A01C06B6
:10323800120060C0F6FF61C0F7FFF86A050E1200C1
:1032480062C0F6FF63C0F7FF08001200BE35BF3545
:10325800C56FC55105E1BC6BBD6BBE6BBF6B120082
:10326800BCC0C0F0BDC0C1F0BEC0C2F0BFC0C3F09A
:10327800200E05D0D890C333C233C133C033E82EF3
:10328800F9D7C051C46FBE8FBF6B960EC55FC5AF6F
:103298000CD0C551800A970FDEE3D890BF33BE33F8
:1032A800BD33BC33C53FF9D70CD01F0EC56507D059
:1032B800D2D7D890BC37BD37BE37BF37C507C55141
:1032C800F8E1C45108E0BF1FBE1FBD1FBC6D000E52
:1032D800BD23BE23BF23BCC0BCF0BDC0BDF0BEC073
:1032E800BEF0BFC0BFF012001C6E1CA003D01B6A4A
:1032F8001B2A01D01B6A8B501B18FE0B1B188B6EE8
:103308001CA203D01B6A1B2A01D01B6A1B468B50C8
:103318001B18FD0B1B188B6E1CA403D01B6A1B2AE1
:1033280001D01B6A27D8FB0B1B188B6E1CA603D079
:103338001B6A1B2A01D01B6A1B461CD8F70B1B18DB
:103348008B6E898CE40E00F000F000F000F0E82E9F
:10335800FAD700F000F000F000F0899CE40E00F0CD
:1033680000F000F000F0E82EFAD700F000F000F0CE
:1033780000F012001B461B468B501B181200000160
:10338800876B886B800E8115896F7F0E821538D800
:1033980004E17F6B806B816B826B876B886B800E1F
:1033A8008515896F7F0E86152BD804E1836B846B96
:1033B800856B866B82AF09D07F6D801FD8B0802B5C
:1033C800811FD8B0812B800E825786AF09D0836DBC
:1033D800841FD8B0842B851FD8B0852B800E8657C4
:1033E800800E821B861B83517F5D845180598551D5
:1033F80081598651825902E2D8901200D880120071
:103408008A6F8751881189118A1112001E501F1066
:1034180003E01E501F1003E11C5053EF1FF020EE75
:1034280009F036D8DE50DE1014E020EE09F030D86E
:1034380010EE03F01E50E1261F50E222DE50E65C3B
:10344800E650800A0001646FDE50800A6459D8B0E3
:10345800120020EE03F01CD8DECF60F0DDCF61F063
:103468001EC0D9FF1FC0DAFFDECF62F0DDCF63F0E8
:10347800000160516225D96E61516321DA6E1CC06A
:10348800DFFF20EE03F004D8DE2A000EDD22000C58
:103498001E50D9261F50DA2212002C502D1005E19B
:1034A8002CC067F02DC068F006D0FF0E2C24676F83
:1034B800FF0E2D20686F30A003D02CD80AEC1AF02C
:1034C800000168AF02D0676B686B656B666B0CD0E8
:1034D8001D6A200E1C6E20C01EF021C01FF00AECD1
:1034E8001AF00001654B662B6751655D6651800ACD
:1034F800236E6851800A2358EBE330B003D00AD812
:103508000AEC1AF0010E00016525206E000E6621F6
:10351800216E120022C01CF01D6A20C01EF021C0BE
:103528001FF0120030A003D036D81FEC1EF06DBF7C
:1035380005D06CC071F06DC072F002D0716B726B07
:103548006F6B706B0CD01D6A200E1C6E68C01EF06D
:1035580069C01FF00AEC1AF000016F4B702B715113
:103568006F5D7051800A6E6F7251800A6E59EBE37D
:1035780030B003D010D81FEC1EF06AC01BF06BC02F
:103588001CF0AFEC1DF0000171511B24686F7251E3
:103598001C20696F12006AC020F06BC021F068C05F
:1035A80022F069C023F01200206A1EAE06D01D6CFE
:1035B8001E1ED8B01E2A010E206E1CAE06D01B6C33
:1035C8001C1ED8B01C2A010E201A216A226A1D501E
:1035D8001E101BE0010E1F6E04D0D8901D361E363B
:1035E8001F2A1EAEFAD7D890213622361D501B5CF2
:1035F8001E501C5805E31D501B5E1E501C5A21808E
:10360800D8901E321D321F2EEED7205004E0216CB8
:10361800221ED8B0222A21C01BF022C01CF01200A2
:103628000001606B616B626B636B1F50201021108F
:10363800221029E0010E646F06D0D8901F3620367C
:1036480021362236642B22AEF8D7D89060376137FE
:10365800623763371F501B5C20501C5821501D587F
:1036680022501E5809E31F501B5E20501C5A21503F
:103678001D5A22501E5A6081D8902232213220329F
:103688001F32642FE2D760C01BF061C01CF062C01B
:103698001DF063C01EF01200206A1CAE06D01B6C21
:1036A8001C1ED8B01C2A010E206E1EAE04D01D6C44
:1036B8001E1ED8B01E2A1D501E1017E0010E1F6EC8
:1036C80004D0D8901D361E361F2A1EAEFAD71D50BC
:1036D8001B5C1E501C5804E31D501B5E1E501C5AD8
:1036E800D8901E321D321F2EF2D7205004E01B6CDA
:1036F8001C1ED8B01C2A1BC01BF01CC01CF01200DA
:103708000001606B616B800E1D14626F7F0E1E14CA
:1037180020D804E11B6A1C6A1D6A1E6A606B616B13
:10372800800E2114626F7F0E221413D802E19BECE5
:1037380008F01F501B1809E120501C1806E1215001
:103748001D1803E122501E1802E0D8901200D880FC
:103758001200636F60516111621163111200C80E8B
:10376800F66E3E0EF76E000EF86E01EEF6F010EEF5
:1037780007F00900F5CFEEFFE550E150FAE1CF0E72
:10378800F66E3E0EF76E000EF86E0900F5CF44F0A7
:1037980001EE00F0A30EEE6AE806FDE1436A00EED2
:1037A80024F01F0EEE6AE806FDE145904592000EF2
:1037B800F86E000164EF00F0F3C0F7F0F4C0F8F021
:1037C8000101146B156B14D0F1C0D2F0F2C0D3F024
:1037D800F70E0001D46FF5C0D5F0F6C0D6F0A0EC16
:1037E80008F0D251010114270001D351010115231A
:1037F800F7C0F6FFF8C0F7FF0800F550E5E114C17F
:10380800F1F015C1F2F012000001606B616B626BA0
:10381800636B1BA009D01F50000160272050612353
:103828002150622322506323D8901F362036213638
:103838002236D8901E321D321C321B321B501C10EF
:103848001D101E10E6E160C01BF061C01CF062C0D4
:103858001DF063C01EF01200226A216A1FD0215099
:103868001B24D96E000E1C20DA6EDF501F6E080E66
:103878001E6E22501F18010B206E200402E1180E44
:10388800221AD89022307F0B226E200401E1228E6A
:10389800D8901F321E061E50ECE1212A1D50211817
:1038A800DEE122501200819E939E0B0E1B6E620E6B
:1038B800E82EFED71B2EFCD700F000F0818E938EE9
:1038C800E40E00F000F000F000F0E82EFAD700F067
:1038D80000F000F000F0000E81BE010E1C6E090E13
:1038E8001B6ECE0EE82EFED71B2EFCD700F000F084
:1038F8001C5012001DC060F01EC061F01BC062F0B9
:103908001CC063F0000160511F6E6151206E604B56
:10391800612B1FC0F6FF20C0F7FFF86A62C0D9FF0D
:1039280063C0DAFF624B632B050EF76403D008000F
:10393800F55002D04AEC17F0DF6EDF50E3E11200D9
:10394800096A0A6A0B6A0C6A01A008D005500926A0
:1039580006500A2207500B2208500C22D890053630
:10396800063607360836D89004320332023201325E
:103978000150021003100410E7E109C001F00AC069
:1039880002F00BC003F00CC004F01200206A216A98
:103998001D501E101BE0010E1F6E04D0D8901D365E
:1039A8001E361F2A1EAEFAD7D890203621361D5053
:1039B8001B5C1E501C5805E31D501B5E1E501C5AF4
:1039C8002080D8901E321D321F2EEED720C01BF04B
:1039D80021C01CF01200D90EE36F010EE46FD5C1AF
:1039E800E5F1D6C1E6F1E86BE96BEE6BEF6BE50E3E
:1039F8000001F16F010EF26FD7C1F3F0D8C1F4F0F6
:103A0800E30EF56F010EF66FE0EC1BF0E851D525DB
:103A1800D96EE951D621DA6EDF6A000C226E09D020
:103A2800236A16D0400E03D0140E01D0540E236E14
:103A38000FD01F50206E216A2150F2E12050010A58
:103A4800EFE0030AEFE0010AEFE0070AEFE0E8D74A
:103A5800220423261D6A2350800952EF1EF01D6A96
:103A68001E6A30EC1FF000090CE01EC01BF0010EAE
:103A78001C6E1B2A02D0D8901C361B2EFCD71C505B
:103A88001D12030E1B6E7D0EE82EFED71B2EFCD7D3
:103A980000F01E2A070E1E64E4D71D501200625162
:103AA800631117E0010E226E04D0D8906237633795
:103AB800222A63AFFAD76251605D6351615904E30A
:103AC8006251605F6351615BD89063336233222E29
:103AD800F2D760C060F061C061F012001E6E206A0B
:103AE80020C01CF01EC01DF01C2A02D0D8901D3228
:103AF8001C2EFCD71D501F6E010E1F161F50B0EC58
:103B08001EF0202A070E2064EBD7F00E00F000F01C
:103B180000F000F0E82EFAD7120081B603D0010EAB
:103B28001B6E01D01B6A1B5013E0320E3218331083
:103B380006E1336A3C0E326E020E3C6E020C324ACB
:103B4800332A070E32183310D8B41BC03CF01200C9
:103B5800326A336A12001BC01DF01CC01EF002D06E
:103B68001B4A1C2A1BC0F6FF1CC0F7FFF86A050E8B
:103B7800F76403D00800F55002D04AEC17F00009AA
:103B8800EFE11D501B5C1B6E1E501C581C6E120072
:103B9800800E961B8FC07FF090C080F091C081F09E
:103BA80092C082F093C083F094C084F095C085F0F1
:103BB80096C086F00AEC0EF07FC08FF080C090F0BF
:103BC80081C091F082C092F01200BF0E606F6169EF
:103BD80021C062F022C063F0605162276151632303
:103BE800635109E11A0E625D06E2200E2110216E72
:103BF8002250226E120021C021F022C022F01200B1
:103C0800010E216E200E1B181C1011E0F70E1D6E00
:103C18001E681BC01FF01CC020F01D501F261E5020
:103C28002022205003E1050E1F5C01E3216A21C018
:103C38001BF01C6A1200666B676B0CD065C01CF029
:103C48001D6A22C01EF023C01FF00AEC1AF0000102
:103C5800664B672B66512024D96E67512120DA6E96
:103C6800DF50656F6551EAE112001D6A2150080DA9
:103C7800F350400952EC1EF0226A010E1D6E1FC05F
:103C8800F6FF20C0F7FF0800F55052EC1EF01F4A5F
:103C9800202A222A070E2264F0D7070C1E6E1D5018
:103CA80002E1899E01D0898EE40E00F000F000F058
:103CB80000F0E82EFAD700F000F000F000F01E380F
:103CC8000F0B78EC19F01E500F0B78EF19F0D89005
:103CD8003D36D8903D360F0E3D1681380F0B030B3D
:103CE8003D26ED0E3D24F66EF76A7D0EF72208009C
:103CF800F5CF3EF07F0E3E1801E13E6A3E501200BD
:103D0800BF0E1D6E1E681BC01FF01CC020F01D508A
:103D18001F261E502022205005E11A0E1F5C02E2C9
:103D2800010E01D0000E1B6E1C6A1200D00E1D6E13
:103D38001E681BC01FF01CC020F01D501F261E50FF
:103D48002022205005E10A0E1F5C02E2010E01D07C
:103D5800000E1B6E1C6A12001B6E819E939E1B0434
:103D680007E10A0EE82EFED700F000F0818E938E50
:103D7800F00E00F000F000F000F0E82EFAD7818E87
:103D8800938E120057EC1CF00009D8A41200CC0E38
:103D980072EC1DF04E0E72EC1DF0000E72EC1DF070
:103DA800000E72EC1DF07F0E72EF1DF06451660379
:103DB800F3CF68F0F4CF69F064516703F3506927D3
:103DC80065516603F350692768C064F069C065F0FF
:103DD800120001500302F3CF05F0F4CF06F00150B2
:103DE8000402F350062602500302F350062605C0CB
:103DF80001F006C002F012001C6EA6B2FED71CC06D
:103E0800A9FF1BC0A8FFA69EA69CA684F29E550EDD
:103E1800A76EAA0EA76EA682F28EAA0C1B501C10C3
:103E28001D101E1002E0800E1E1A1BC01BF01CC0C5
:103E38001CF01DC01DF01EC01EF012001F68206877
:103E480021687F0E226E1FC01BF020C01CF021C00D
:103E58001DF022C01EF07F0C819E939E050EE82E59
:103E6800FED700F0818E938E200EE82EFED781BEFD
:103E7800010C000C57EC17F052EC1EF02A0E1F6EC6
:103E88008E0EE82EFED71F2EFCD71200A6B2FED744
:103E98001BC0A9FFA69EA69CA680A85012001B6E58
:103EA8009EA8FED71BC0ADFF12001F6E010E1D6E2F
:103EB8001F5052EF1EF03CC01BF03C6A1B50120012
:083EC800286E756C6C290001E5
:107DAC000041A042A1E045A3A4A5A64BA74D484F76
:107DBC00A8504354A9AA58E1ABACE2ADAE62AFB047
:107DCC00B161B2B3B4E365B6B7B8B9BABBBCBD6FF9
:107DDC00BE7063BF79E478E5C0C1E6C2C3C4C5C652
:107DEC00C700FF017F01007FFFFF7F00017F01FFC4
:107DFC000000010102020304040506060707080936
:107E0C00094A756E20323020323032320032303A2C
:107E1C0031343A3039000609090600000000000E22
:107E2C001F1B1F0E000000001F1F1F00000000047E
:107E3C000F1F0F04000000041E1F1E0400000E1173
:107E4C0011110A1B00000000081502000000202080
:107E5C00202020202020204558495420202020205C
:107E6C0020202000436C63503A256325303475572D
:107E7C002025633D25752E257500417078503A25D7
:107E8C006325303475572025633D25752E257500E7
:107E9C002020202020414C41524D2054454D502053
:107EAC002020202000202020534554203130302524
:107EBC0020504F5745522020200020202045444977
:107ECC005420524553495354414E434520200020E1
:107EDC002053415645204C4F414420444546415582
:107EEC004C5420002D2D2D42524553454E48414DAA
:107EFC0020535441422D2D2D005265736973743AF1
:107F0C00253032752E2575204F686D20004C6F6E14
:107F1C006720707265737320666F7220736176656B
:107F2C000020202D2057686F6C65207061727420C2
:107F3C002D20200020202D2046726163742070615A
:107F4C007274202D20200020202020746F204545A5
:107F5C0050524F4D2E002863294976616E5F66643E
:107F6C00207625730054656D703A25752563252D93
:107F7C003463005077553A257525252020004E4F47
:107F8C0054205354414221200053544142494C49FE
:107F9C005A452000416C61726D3A252D33730050A7
:107FAC0077523A257525252000555F496E3A25757F
:107FBC005620005077553A257525252A0031392E43
:107FCC0030362E323200436F653A252E346600254A
:107FDC007320257300494E46004E414E00696E6673
:107FEC00006E616E006C6C73004F4646006C660050
:047FFC004F4E0000E4
:020000040020DA
:08000000FFFFFFFFFFFFFFFF00
:020000040030CA
:0E000000FF081E17FF8081FF0FC00FE00F40AA
:0200000400F00A
:080000001814210000000000AB
:00000001FF
