:0400000068EF00F0B5
:060008004A82C4EF0AF079
:100018004A80D8CF11F0E8CF12F0E0CF13F0F2BA4F
:10002800F2A406D0F29400018A2B422A010E896FAD
:100038009DB09EA015D0899ABE50BFCF0FF0106A10
:100048000FC010F00F6A0F120F28146E000E102048
:10005800156ECD9014C0CEFF15C0CFFFCD809E90F9
:100068009DB29EA229D09E92454A462A0E0E455C14
:10007800030E465806E3456A466A010E0001AC6F56
:10008800CA94415019E0CA84384A392A910E385C1A
:10009800010E395802E28B8A0FD0910E385C010E9E
:1000A800395807E3200E385C030E395802E28B9A60
:1000B80003D08B9A386A396A13C0E0FF12C0E8FF90
:1000C80011C0D8FF4A9010001FEF0DF0A2EC08F005
:1000D800D00E0001C86FC90EE82EFED7C82FFCD776
:1000E80000F000F0010E1A6E80EC0EF0FC0E1D6E92
:1000F8007E0E1E6E41EC0BF0A5EC04F080EC0EF0C9
:100108008B0E226E590E236E7F0E246ED90E256E2D
:100118007F0E266E61EC06F042EC06F041EC0BF027
:10012800A2EC04F080EC0EF08B0E226EF20E236E21
:100138007F0E246E310E256E7E0E266E3D0E276EC6
:100148007E0E286E61EC06F042EC06F041EC0BF0F6
:10015800A30E0001C96F570EC86F020EE82EFED716
:10016800C82FFCD7C92FFAD700F0040052EC0FF0C3
:10017800176A030E166E5EEC0FF00001876F176AA0
:10018800040E166E5EEC0FF00001856F176A020E02
:10019800166E5EEC0FF00001726F736BB8DB176AB6
:1001A800166A5EEC0FF000017F6F176A010E166E7B
:1001B8005EEC0FF000017E6F7FC016F0176A030E29
:1001C800196EE80E186E11EC0FF00001C4DB165022
:1001D800C8271750C923C8C060F0C9C061F0000E15
:1001E80061BFFF0E626F636F04000001895103E075
:1001F80062EC0EF0896B6DEC0FF0826FA9C076F09F
:10020800AAC077F0A90E1D6EAB0E1E6EAC0E1F6E47
:10021800450E206E40EC0AF00001836FA951781951
:1002280003E1AA51791907E047BA05D0A9C078F0C7
:10023800AAC079F0478A830502E147BA882B020EE3
:10024800886503D0886B479A04D076C0A9F077C038
:10025800AAF0855118E08751C86FC96BA9C016F07C
:10026800AAC017F0196A0A0E186E9AEC0DF0000170
:10027800C851165CC951175806E3CD90899A479C16
:10028800010E416E7C6F830502E1010E3D6E030E87
:10029800831902E1030E3D6ECEEC0EF0802780C07C
:1002A800C8F0030EC8171AE1805118E080AF0AD0D1
:1002B80047A404D0F60E7027FF0E09D07007D8A007
:1002C800710709D047A405D00A0E7027000E7123C4
:1002D80002D0704B712B806B4786426A3E5070E1AA
:1002E8000A0E3F186DE16CC016F06DC017F06EC0B5
:1002F80018F06FC019F028DBE4EC0CF0EEDABAEC79
:1003080009F013DBCFEC07F007DBB6EC0BF02CC0E1
:1003180074F02DC075F068C016F069C017F06AC097
:1003280018F06BC019F010DBE4EC0CF0D6DABAEC7C
:1003380009F0FBDACFEC07F0EFDAB6EC0BF02CC0E3
:1003480072F02DC073F0686B696B6A6B6B6B6C6BCA
:100358006D6B6E6B6F6B010E3E6E8151745D000E9E
:10036800755902E2479801D047887C5101E0CD9049
:1003780047AC02D0CD90898A89B603D0C86BC82B08
:1003880002D00001C86BC847C847C8478950C81978
:10039800F70BC819896E47AC08D0B0DA74C027F0DB
:1003A80075C028F004EC0CF007D0A8DA72C027F06A
:1003B80073C028F004EC0CF023C036F024C037F0EA
:1003C800630E0001D06520D0D06B47BC02D07C51B1
:1003D80002E0D3DA0AD08151725DC86F000E7359FA
:1003E800C96FC851CE27C951CF23B00ECE5D040EB8
:1003F800CF5904E2040ECF6FB00ECE6F510ECE5D12
:10040800460ECF5901E3B9DACEC048F0CFC049F063
:1004180054D2050E8A6503D08A6BCBEC04F0000138
:1004280071AF03D0706B716B0AD071BF08D0715176
:1004380003E1FB0E705D03E3716BFA0E706F70C021
:1004480081F082050CE19AEC0CF070C072F071C07A
:1004580073F0479C00017C6B416A8B9ACD80020E39
:10046800821901E0C1D652EC0FF0030E00017D6F36
:10047800020E1A6E050E80EC0EF0040E67EC0FF0FB
:10048800050E67EC0FF0050E67EC0FF0050E67EC34
:100498000FF0050E67EC0FF0200E67EC0FF0060E5C
:1004A80067EC0FF0200E67EC0FF0050E67EC0FF00D
:1004B800050E67EC0FF0050E67EC0FF0050E67EC04
:1004C8000FF0030E67EC0FF00001706B716B8CD6A8
:1004D80071BF08D0715103E1050E705D03E3716BC4
:1004E800040E706F71AF32D0706B716B2FD026DA3B
:1004F80080EC0EF0BE0E1D6E7E0E1E6E41EC0BF0F3
:1005080031D01CDA80EC0EF0D30E1D6E7E0E1E6EFE
:1005180041EC0BF027D012DA80EC0EF0A90E1D6E1C
:100528007E0E1E6E41EC0BF01DD008DA80EC0EF04A
:100538001FDA41EC0BF016D001DA80EC0EF07E0EDB
:100548001D6E7E0E1E6E41EC0BF00CD00BDA0AE12C
:10055800C851CDE0010AD5E0030ADDE0010AE5E073
:10056800070AEAE00001820556E03ED652EC0FF099
:100578007FC070F00001716B4782E3D980EC0EF008
:1005880001DA41EC0BF0DAD980EC0EF0100E1D6E9A
:100598007F0E1E6E41EC0BF05EEC06F080EC0EF068
:1005A8004A0E1D6E7F0E1E6E41EC0BF0010E00010F
:1005B8007D6F1AD67D6B72C016F0020E24EC0FF018
:1005C800A6D952EC0FF010D67D6B52EC0FF0478C89
:1005D8009ED9479609D6040E7D6F52EC0FF087C05E
:1005E80086F0479086C070F00001716B85C084F07A
:1005F800010E1A6E80EC0EF0BBD941EC0BF0A1D9BC
:1006080080EC0EF0030E67EC0FF0EED57D6B52EC2C
:100618000FF07DD9E9D5A6D901E0E6D5C851A6E005
:10062800010AC8E0030AD0E0010AD5E0070AEEE0B3
:10063800DBD547A211D071BF08D0715103E1640E18
:10064800705D03E3716B630E706F71AF02D0706BF6
:10065800716B70C07FF032D071BF09D0715103E166
:10066800640E705D04E3000E716F630E706F71BFEE
:1006780005D071510DE10A0E705D0AE271BF08D014
:10068800715103E1060E705D03E3706B716B10D05E
:1006980071BF0ED0715102E170050AE371BF05D038
:1006A800715106E1050E705D03E2716B0A0E706F01
:1006B80071AF02D0706B716B70C07EF08B0E226EC2
:1006C800E80E236E7E0E246E7FC025F0266A7EC05B
:1006D80027F0286A61EC06F0010E1A6E80EC0EF025
:1006E80042EC06F041EC0BF0000182051DE147B237
:1006F80002D0478201D0479247A209D022D980EC84
:100708000EF040D941EC0BF07FC070F00BD019D936
:1007180080EC0EF0370E1D6E7F0E1E6E41EC0BF056
:100728007EC070F00001716B020E821901E05CD589
:1007380052EC0FF000017D6B0ED9000EC9BFFF0E01
:10074800CA6FCB6F7F51166E176A186A196A48EC20
:100758000CF04EEC0DF00001C8511624606FC95121
:100768001720616FCA511820626FCB511920636F2F
:100778007FC016F0000E24EC0FF07EC016F0010EBC
:1007880024EC0FF0C4D847942FD547B011D071BFCF
:1007980008D0715103E16A0E705D03E3716B690E55
:1007A800706F71AF02D0706B716B70C086F008D03B
:1007B80080BF846B8051800A7F0F02E3010E846F33
:1007C8008B0E226E680E236E7F0E246E86C025F077
:1007D800266A000E286E070E276E000E2A6E430E3C
:1007E800296E61EC06F0020E1A6E80EC0EF042ECF7
:1007F80006F041EC0BF00001845104E1F80ECC6FD7
:100808007F0E03D0FC0ECC6F7F0ECD6F8B0E226E49
:10081800BA0E236E7F0E246ECCC025F0CDC026F014
:1008280061EC06F0030E1A6E020E80EC0EF042EC3C
:1008380006F041EC0BF00001820526E147B002D03A
:10084800478001D0479047A00DD078D880EC0EF0B3
:10085800030E67EC0FF075D880EC0EF0200E67ECF5
:100868000FF012D000018651706F716B70BF710765
:1008780068D880EC0EF0030E67EC0FF05FD880ECC0
:100888000EF0200E67EC0FF0020E0001821901E055
:10089800ABD452EC0FF000017D6B39D886C087F0DD
:1008A80084C085F087C016F0030E24EC0FF085C0D5
:1008B80016F0040E24EC0FF097D47D5101E1A9D570
:1008C800010A01E1B6D6030A01E18ED4010A01E169
:1008D800FFD5070A01E159D787D416C064F017C0BD
:1008E80065F018C066F019C067F064C016F065C0FE
:1008F80017F066C018F067C019F0000C60C023F04C
:1009080061C024F062C025F063C026F0120072C0F6
:1009180070F073C071F0120024C02CF025C02DF0C7
:1009280026C02EF027C02FF0120016C024F017C0E2
:1009380025F018C026F019C027F01200030E1A6E11
:10094800010C020E1A6E010C7AC01AF07BC01BF063
:100958001C6A1D6A12007E510A0DF3CFC8F0F4CF4D
:10096800C9F0120070C0C8F071C0C9F0C9511200B6
:10097800940E1D6E7E0E1E6E1200460ECF6F500E28
:10098800CE6F500C240E1D6E7F0E1E6E12008B0E45
:10099800226E990E236E7F0E246E81D961EC06F0CB
:1009A800010E1A6E80EC0EF069D941EC0BF047B8D5
:1009B8000AD07DD980EC0EF0C50E1D6E7F0E1E6E1E
:1009C80041EC0BF009D073D980EC0EF0CF0E1D6E00
:1009D8007F0E1E6E41EC0BF08B0E226E760E236E90
:1009E8007F0E246E81C025F0266A61EC06F0A2EC29
:1009F80004F080EC0EF042D941EC0BF047AC05D086
:100A080041D94DD961EC06F007D03CD972C025F028
:100A180073C026F061EC06F0A5EC04F080EC0EF053
:100A28002DD941EC0BF08B0E226E8E0E236E7F0EAD
:100A3800246ECEC025F0CFC026F061EC06F03AD97E
:100A480080EC0EF01BD941EC0BF08B0E226EE20EFF
:100A5800236E7F0E246E266A020E256E7FC027F055
:100A6800286A7EC029F02A6A61EC06F0030E1A6E25
:100A78000C0E80EC0EF002D941EC0BF0040E1A6E4D
:100A88000C0E80EC0EF0540E67EC0FF03A0E67EC8B
:100A98000FF00001855101E196D03D047AE1EBD8D1
:100AA800E4D89AEC0DF0D9D824EC0EF01D501E10A5
:100AB80046E1196A640ED9D89AEC0DF0CED824EC28
:100AC8000EF01D501E1019E1196A0A0ECED89AECC4
:100AD8000DF0C3D824EC0EF01D50300F67EC0FF06A
:100AE800070E67EC0FF0200E67EC0FF0200E67EC96
:100AF8000FF0200E67EC0FF07DD0196A640EB5D8A0
:100B08009AEC0DF0AAD824EC0EF01D50300F67ECCB
:100B18000FF0196A0A0EA9D89AEC0DF09ED824ECA9
:100B28000EF01D50300F67EC0FF0070E67EC0FF05A
:100B3800200E67EC0FF0200E67EC0FF05BD09BD80F
:100B480094D89AEC0DF089D824EC0EF01D50300F93
:100B580067EC0FF0196A640E88D89AEC0DF07DD80E
:100B680024EC0EF01D50300F67EC0FF0196A0A0ED6
:100B78007CD89AEC0DF071D824EC0EF01D50300F93
:100B880067EC0FF0070E67EC0FF0200E67EC0FF024
:100B980031D0030E3D182EE13F0E67EC0FF03F0EEB
:100BA80067EC0FF03F0E67EC0FF0200E67EC0FF0CC
:100BB800200E67EC0FF0200E67EC0FF0200E67ECAC
:100BC8000FF0CA8417D0416A8B9A2D0E67EC0FF08C
:100BD8004F0E67EC0FF0460E67EC0FF0460E67EC11
:100BE8000FF02D0E67EC0FF0200E67EC0FF0200EC3
:100BF80067EC0FF0650E42601FD047A61DD082EC4F
:100C080004F081C027F0286A04EC0CF023C0B9F086
:100C180024C0BAF08B0E226EA40E236E7F0E39D834
:100C2800B9C027F0BAC028F061EC06F03DD880ECD6
:100C38000EF024D841EF0BF08B0E226EAF0E236E10
:100C48007F0E27D836C027F037C028F061EC06F0B1
:100C580047962AD880EC0EF0ECD716C01DF017C0C6
:100C68001EF0206A0A0E1F6E0A0C186EA9C016F034
:100C7800AAC017F01200030E196EE80C8B0E1D6E39
:100C88001E6A12008B0E226E820E236E7F0E246E59
:100C98001200246E000E266E010E256E010C74C023
:100CA80025F075C026F01200020E1A6E0C0C010E0B
:100CB8001A6E0C0C040E1A6E010C250E0001B26F90
:100CC8002ED1250EB61902E054D929D1B76BB86BCD
:100CD800B56B05D0B58701D0B585234A242A2AD912
:100CE8002D0AF8E01D0AF8E0B5B7B59523D936EC1A
:100CF8000FF001E29ED00001B76BB86BB7C016F0D9
:100D0800B8C017F0196A0A0E186E11EC0FF016C069
:100D1800B7F017C0B8F0D00E2B6E2C680BD92D6E1B
:100D28002E6A2B502D262C502E222D500001B7272D
:100D38002E50B823234A242AFDD836EC0FF079E345
:100D4800DDD7B251D96EDA6ADECFB0F0DDCFB1F0BF
:100D5800020EB227B051B11104E1EB0EB06F7F0E55
:100D6800B16FB36BB46B03D00001B34BB42BB35169
:100D7800B0252B6EB451B1212C6E2BC0F6FF2CC0C0
:100D8800F7FFF86A050EF76403D00800F55002D0A3
:100D9800A6EC0BF00009E8E10001B751B35DB851CA
:100DA800B45905E2B351B75FB451B85B02D0B76B21
:100DB800B86BB5B71CD001D0C4D8E8D8FDE1B829C4
:100DC80016E0FAD7B0C0F6FFB1C0F7FFF86A2250B4
:100DD800D96EDA6A050EF76403D00800F55002D020
:100DE800A6EC0BF0DF6E0001B04BB12B222AB30743
:100DF800D8A0B407B329E6E1B429E4E1B5A78FD0B8
:100E080001D09FD8C3D8FDE1B82901E188D0F9D72E
:100E1800B251D96EDA6ADF50B66F020EB227B60E3B
:100E2800B06FB16BB46B010EB36FB6D7C00EB5130C
:100E38000ED023C0F6FF95D80001B65176E0630ABC
:100E4800E7E0100A01E17DD7060AF0E0E8D7B251E1
:100E5800D96EDA6ADECFADF0DDCFAEF0020EB22782
:100E6800010EB66F050EB6190AE0B65171D8F550E5
:100E7800AD5D0900F550AE5902E3B62BF3D7B65174
:100E88002B6E2C6AB7512B5C2C50800A2D6EB851F2
:100E9800800A2D5805E2B651B75F000EB85B02D044
:100EA800B76BB86BB5A50DD0B751B81112E0225089
:100EB800D96EDA6A300EDF6E222AB707D8A0B807D3
:100EC800F3D7B751B81105E0B5B703D03AD858D819
:100ED800FDE1B6C0AFF016D0AF513AD8F5CF18F053
:100EE8000A00F5CF19F0ADC016F0AEC017F09AECB5
:100EF8000DF031EC06F024EC0EF01D50300F00011F
:100F0800B66F37D8AF07AF29E7E1B5B7B8BF07D095
:100F1800B85102E1B70503E314D832D8FDE123C084
:100F2800F6FF1FD8B65101E0CCD62250D96EDA6A46
:100F3800DF6A000C23C0F6FF24C0F7FF0800F55055
:100F480012002250D96EDA6A200EDF6E222A200C97
:100F5800020D270EF324F66E7E0EF420F76E0900BC
:100F6800120024C0F7FF234A242A0800F5CFB6F060
:100F780012002250D96EDA6AB6C0DFFF222A1200A8
:100F8800B707D8A0B807B751B8111200B707D8A04B
:100F9800B807B72912002750800B0001AD6F275002
:100FA8002724B76F26BEB781B7C0B8F0B96B2450F5
:100FB800BA6F2550BB6F7F0E2614BC6FBD6BB8513E
:100FC800B91104E0BC8FB829B91101E1B2D8B85100
:100FD800B91105E1246A256A266A276A1200AD510B
:100FE80012E0BE6BBF6B400EC06FC16B800EC013AA
:100FF800FF0EC113BEC024F0BFC025F0C0C026F04C
:10100800C1C027F01200B829B91107E1BE6BBF6B48
:10101800800EC06F7F0EC16FEDD7810EB827FF0E0F
:10102800B923B851010BB76FB935B933B8337F0E4F
:10103800B827000EB923D890BA35AF6FBB35B06F5B
:10104800BC35B16FBD35B26F74D8000EB36FB46FD5
:10105800B56F010EB66FB75101E065D8AE6B32D0EF
:10106800B351BA13B451BB13B551BC13B651BD1328
:10107800BA51AF5DBB51B059BC51B159BD51B2590C
:101088000AE3BA51AF5FBB51B05BBC51B15BBD5114
:10109800B25B3AD810D0B31D286EB41D296EB51DA9
:1010A8002A6EB61D2B6E2850BA172950BB172A5026
:1010B800BC172B50BD17D890B633B533B433B33300
:1010C80032D8AE2B180EAE65CBD727D8010EBA157D
:1010D800B36FB46BB56BB66B20D816D8BDA103D06F
:1010E8001CD8B84BB92BBA51BE6FBB51BF6F7F0E1E
:1010F800BC15C06FC16BB8C0B7F0B7B1C08FD8907E
:10110800B731C16FC19F76D7B351BA27B451BB234A
:10111800B551BC23B651BD231200D890BD33BC33A2
:10112800BB33BA331200D890AF37B037B137B237C4
:101138001200BA6BBB6BBC6BBD6B1200FC0ED316F6
:10114800700ED3129B8C170E926E806A896A826A1F
:101158008B6A946A8B988B9AF19E380E7C6E816AA2
:101168008A6A3F0E936ED550F80B0209D56ED59654
:10117800D59AD59CD58EF194C050F80B0609C06E4F
:10118800C050C70B2809C06EC08EC16AC280C30E8A
:10119800C2167E809F8C9D8CCD92CD96300ECD123E
:1011A800CD9E9D809F90CD80B18EB19CB186B1922D
:1011B800B112A292A092B180BD50F00B0A09BD6E87
:1011C8009D849F84500EBE6E460EBF6EBA50F00BC3
:1011D8000B09BA6E640EBB6EBC6ACA50FC0B0209DE
:1011E800CA6E780ECA12CA949F929D82400ECB6E28
:1011F800F288F19CF292D08EF28AF28CF28E050E71
:101208001F6E0F0E1E6EF10EE82EFED71E2EFCD797
:101218001F2EFAD700F033EC09F0818EFDEC0EF0AA
:10122800C1EC0CF09CEC0EF0CFEC0CF09CEC0EF04A
:10123800C8EC0CF09CEC0EF0B3EC0CF09CEC0EF04F
:10124800BAEC0CF09CEC0EF0DDEC0CF09CEC0EF023
:10125800D6EC0CF09CEC0EF0010E3E6E010C899E53
:10126800899CD00E1B6ECA0EE82EFED71B2EFCD70B
:10127800D00E1B6ECA0EE82EFED71B2EFCD7D00E42
:101288001B6ECA0EE82EFED71B2EFCD7D00E1B6E87
:10129800CA0EE82EFED71B2EFCD7030E4FEC0CF01F
:1012A800680E1B6EE40EE82EFED71B2EFCD700F04E
:1012B80000F0030E4FEC0CF0680E1B6EE40EE82EE7
:1012C800FED71B2EFCD700F000F0030E4FEC0CF0FD
:1012D800680E1B6EE40EE82EFED71B2EFCD700F01E
:1012E80000F0020E4FEC0CF0680E1B6EE40EE82EB8
:1012F800FED71B2EFCD700F000F0000E186E280E4B
:10130800B5EC0EF0680E1B6EE40EE82EFED71B2E11
:10131800FCD700F000F0000E186E0C0EB5EC0EF0C5
:10132800A70E1B6E3A0EE82EFED71B2EFCD700F038
:1013380000F052EC0FF0680E1B6EE40EE82EFED79C
:101348001B2EFCD700F000F0000E186E060EB5EC50
:101358000EF0680E1B6EE40EE82EFED71B2EFCD78F
:1013680000F000F052EC0FF0898E12001E6E1E5035
:101378001CE019AE1AD016C01AF017C01BF018C01E
:101388001CF019C01DF01A1E1B1E1C1E1D1E1A2A39
:10139800000E1B221C221D221AC020F01BC021F0A7
:1013A8001CC022F01DC023F008D016C020F017C0C2
:1013B80021F018C022F019C023F016501710181089
:1013C800191005E1166A176A186A196A1200960E4A
:1013D8001F6E02D01F2A4AD81A6A1B6A1C6AFE0EA0
:1013E80023143ED808E0F6D71F2A202A000E21220F
:1013F800222223223BD81A6A1B6A1C6A235030D83F
:1014080007E0F2D71F06D890203621362236233639
:1014180022BE03D0020E1F60F5D71FA0229ED890CF
:101428001F321FC01AF01B6A1C6A1D6A1AC01DF001
:101438001C6A1B6A1A6A1A5020121B5021121C506F
:1014480022121D5023121E5002E019BE238E20C006
:1014580016F021C017F022C018F023C019F01200AE
:101468001D6E1A501B101C101D101200D89023322C
:1014780022322132203212001E50D96EDA6A2B0E27
:10148800DF6E6ED004EC0EF00009D8A4030CCC0E6D
:1014980043EC0EF0440E43EC0EF02050D96EDA6A9D
:1014A800DF6A1F50D96EDA6A020EDF6ECA84000C3A
:1014B80004EC0EF0CC0E43EC0EF0BE0E43EC0EF036
:1014C800246A2450A00FD96EDA6AE4EC0DF0DF6EBE
:1014D800242A080E2464F5D7A00E166E090E176E7E
:1014E800BFEC0DF0000902E046D8050C0001A1513F
:1014F800216EA051256E21C026F026AE09D0256C9C
:10150800261ED8B0262A1E50D96EDA6A2D0EDF6E36
:1015180025500F0B236E170E2324F66EF76A7E0EE6
:10152800F7220800F5CF23F0253A263A0F0E2516A4
:101538002650F00B25120F0E261625500A0DF3CF54
:1015480025F0F4CF26F023502526000E26221D5024
:10155800D96EDA6A25C0DEFF26C0DDFF0CD8010C83
:101568001F50D96EDA6ADF508DE0010AA1E0030A44
:10157800D8B4000C12001F50D96EDA6ADF6A120064
:10158800F2B8F2A218D047AC02D0898A01D0899A61
:10159800406ACF6ACE6A48C0BEFF49C0BFFF0A0E84
:1015A8003F6001D03F2A3E0405E13E6A00017A6BA4
:1015B8007B6B3F6AF2929DB49EA408D09E94898A60
:1015C800010E406EFE0ECF6E0B0ECE6E9DBC9EAC15
:1015D80052D00A0E3F604CD0C350C4CF0DF00E6AF3
:1015E8000DC00EF00D6A0D26000E0E220DC030F053
:1015F8000EC031F031BEFF0E326E336E30C001F0D6
:1016080031C002F032C003F033C004F030C005F03E
:1016180031C006F032C007F033C008F074EC0DF0AA
:10162800015000016C2702506D2303506E230450B3
:101638006F2340501BE030C001F031C002F032C0CF
:1016480003F033C004F030C005F031C006F032C0FA
:1016580007F033C008F074EC0DF001500001682762
:101668000250692303506A2304506B237A4B7B2B67
:101678000001D02B9E9C4A9211005AD070D8B5EC2C
:101688000EF02A0E1F6E8E0EE82EFED71F2EFCD7E8
:101698004DD0A5EC04F080EC0EF048D0000E186E8A
:1016A800100EB5EC0EF042D053D8F76403D0080002
:1016B800F55001D047D81F6EC00E1F600CD0010E28
:1016C800186E46D8F76403D00800F55001D03AD810
:1016D800B5EC0EF02BD0010E186E400E1F6E206870
:1016E80037D8F76403D00800F55001D02BD8216E05
:1016F800226A1F50212620502222C70E2124F66E6E
:101708007D0E2220F76E0800F550B5EC0EF00ED0D5
:101718001FD8F76403D00800F55001D013D8080A81
:10172800BDE0020AB6E0060AA9E0BED71D4A1E2A95
:101738000FD8F76403D00800F55001D003D800098A
:10174800E7E11200F6CFE9FFF7CFEAFFEF5012000A
:101758001DC0F6FF1EC0F7FFF86A050E1200000E46
:10176800186E010C2E342F34C76FC75105E12C6A4F
:101778002D6A2E6A2F6A12002CC0C2F02DC0C3F049
:101788002EC0C4F02FC0C5F0200E05D0D890C533A8
:10179800C433C333C233E82EF9D7C251C66F2E8E75
:1017A8002F6A960EC75FC7AF0CD0C751800A970F34
:1017B800DEE3D8902F322E322D322C32C73FF9D7A4
:1017C8000CD01F0EC76507D0D2D7D8902C362D362F
:1017D8002E362F36C707C751F8E1C65108E02F1E2D
:1017E8002E1E2D1E2C6C000E2D222E222F222CC0D8
:1017F8002CF02DC02DF02EC02EF02FC02FF012008F
:1018080027C016F028C017F0186A196A27C01AF0FE
:1018180028C01BF01C6A1D6A4EEC0DF016C0B1F012
:1018280017C0B2F018C0B3F019C0B4F0B1C016F0C8
:10183800B2C017F0B3C018F0B4C019F025D84EECF8
:101848000DF016C0ADF017C0AEF018C0AFF019C05B
:10185800B0F0ADC016F0AEC017F0AFC018F0B0C011
:1018680019F023C01AF024C01BF025C01CF026C0B4
:101878001DF0E4EC0CF016C0B5F017C0B6F0B5C01A
:1018880023F0B6C024F01200E80E1A6E030E1B6E89
:101898001C6A1D6A030C176E17A003D0166A162A55
:1018A80001D0166A8B501618FE0B16188B6E17A2ED
:1018B80003D0166A162A01D0166A16468B501618D7
:1018C800FD0B16188B6E17A403D0166A162A01D0C2
:1018D800166A27D8FB0B16188B6E17A603D0166A44
:1018E800162A01D0166A16461CD8F70B16188B6EE6
:1018F800898CE40E00F000F000F000F0E82EFAD732
:1019080000F000F000F000F0899CE40E00F000F018
:1019180000F000F0E82EFAD700F000F000F000F038
:101928001200164616468B501618120033EC09F0B2
:1019380024D89CEC0EF02FD89CEC0EF025D89CEC0B
:101948000EF00DD89CEC0EF011D89CEC0EF031D8AE
:101958009CEC0EF027D89CEC0EF052EF0FF05E0EC8
:101968001A6E7E0E1B6E040E1C6E040C560E1A6E3A
:101978007E0E1B6E050E1C6E050C760E1A6E7E0E04
:101988001B6E010E1C6E010C660E1A6E7E0E1B6E0F
:10199800030E1C6E030C6E0E1A6E7E0E1B6E020E6C
:1019A8001C6E020C460E1A6E7E0E1B6E070E1C6E07
:1019B800070C4E0E1A6E7E0E1B6E060E1C6E060C63
:1019C8001E6A1F6A206A216A1A501B101C101D10FB
:1019D80029E0010E226E06D0D8901A361B361C3626
:1019E8001D36222A1DAEF8D7D8901E361F3620364F
:1019F80021361A50165C1B5017581C5018581D5089
:101A0800195809E31A50165E1B50175A1C50185AD9
:101A18001D50195A1E80D8901D321C321B321A32A2
:101A2800222EE2D71EC016F01FC017F020C018F0F3
:101A380021C019F01200E40EF66E1E0EF76E000EAD
:101A4800F86E0900F5CFCEF00900F5CFCFF0090008
:101A5800F5CFD0F0E70EF66E1E0EF76E000EF86E9C
:101A68000900F5CF48F00900F5CF49F000EE60F025
:101A78004D0EEE6AE806FDE1476A00EE30F0170EFB
:101A8800EE6AE806FDE14A904A92000EF86E0001FF
:101A98006AEF00F01E6A1F6A206A216A16A008D041
:101AA8001A501E261B501F221C5020221D50212276
:101AB800D8901A361B361C361D36D8901932183273
:101AC800173216321650171018101910E7E11EC0F9
:101AD80016F01FC017F020C018F021C019F012002E
:101AE800096A0A6A0B6A0C6A01A008D0055009261F
:101AF80006500A2207500B2208500C22D8900536AF
:101B0800063607360836D8900432033202320132DC
:101B18000150021003100410E7E109C001F00AC0E7
:101B280002F00BC003F00CC004F012001B6A1C6A20
:101B3800185019101BE0010E1A6E04D0D8901836F0
:101B480019361A2A19AEFAD7D8901B361C361850EF
:101B5800165C1950175805E31850165E1950175A95
:101B68001B80D890193218321A2EEED71BC016F0E7
:101B78001CC017F012001C6A1B6A1DD016501B24CB
:101B8800D96EDA6ADF50196E080E186E1C501918D3
:101B9800010B1A6E1A0402E1180E1C1AD8901C3098
:101BA8007F0B1C6E1A0401E11C8ED890193218069E
:101BB8001850ECE11B2A17501B18E0E11C501200CA
:101BC800186A196A44EC0FF000090CE019C016F005
:101BD800010E176E162A02D0D8901736162EFCD78B
:101BE80017501812030E166E7D0EE82EFED7162E0D
:101BF800FCD700F0192A070E1964E4D71850120010
:101C0800819E939E0B0E166E620EE82EFED7162E40
:101C1800FCD700F000F0818E938ED50EE82EFED70B
:101C280000F0000E81BE010E176E090E166ECE0E64
:101C3800E82EFED7162EFCD700F000F01750120041
:101C48001F50201017E0010E216E04D0D8901F36C7
:101C58002036212A20AEFAD71F501D5C20501E586E
:101C680004E31F501D5E20501E5AD89020321F32A8
:101C7800212EF2D71DC01DF01EC01EF01200196ED5
:101C88001B6A1BC017F019C018F0172A02D0D89089
:101C98001832172EFCD718501A6E010E1A161A5041
:101CA800E7EC0EF01B2A070E1B64EBD7F00E00F0D2
:101CB80000F000F000F0E82EFAD7120081B603D049
:101CC800010E166E01D0166A165013E0320E341843
:101CD800351006E1356A3C0E346E020E3A6E020C7F
:101CE800344A352A070E34183510D8B416C03AF0DD
:101CF8001200346A356A12001B6E09D01C6A11D0B2
:101D0800400E03D0140E01D0540E1C6E0AD01A5087
:101D1800010AF4E0030AF4E0010AF4E0070AF4E037
:101D2800EDD71B041C26186A1C508009B5EF0EF06D
:101D3800186A1C50080DF3504009B5EC0EF01D6AE6
:101D4800010E186E1AC0F6FF1BC0F7FF0800F55009
:101D5800B5EC0EF01A4A1B2A1D2A070E1D64F0D78F
:101D6800070C196E185002E1899E01D0898EE40E85
:101D780000F000F000F000F0E82EFAD700F000F0D4
:101D880000F000F019380F0B4FEC0CF019500F0B46
:101D98004FEF0CF0D8903B36D8903B360F0E3B16E1
:101DA80081380F0B030B3B26070E3B24F66EF76AB0
:101DB8007E0EF7220800F5CF3CF07F0E3C1801E1BB
:101DC8003C6A3C501200166E819E939E160407E1F1
:101DD8000A0EE82EFED700F000F0818E938EF00EEA
:101DE80000F000F000F000F0E82EFAD7818E938E14
:101DF800120004EC0EF00009D8A41200CC0E43EC3B
:101E08000EF04E0E43EC0EF0000E43EC0EF0000EFA
:101E180043EC0EF01F0E43EF0EF016501802F3CFEE
:101E28001AF0F4CF1BF016501902F3501B26175066
:101E38001802F3501B261AC016F01BC017F0120028
:101E4800176EA6B2FED717C0A9FF16C0A8FFA69E98
:101E5800A69CA684F29E550EA76EAA0EA76EA68211
:101E6800F28EAA0C186E176A3A0E186005D02F0E5B
:101E7800186402D0010E176E17C016F01630120043
:101E8800819E939E050EE82EFED700F0818E938EDC
:101E9800200EE82EFED781BE010C000CB3EC0BF02F
:101EA800B5EC0EF02A0E1A6E8E0EE82EFED71A2EFC
:101EB800FCD71200A6B2FED716C0A9FFA69EA69C04
:101EC800A680A85012001A6E010E186E1A50B5EFAF
:101ED8000EF03AC016F03A6A1650120050460150F9
:011EE80046B3
:107DC6000041A042A1E045A3A4A5A64BA74D484F5C
:107DD600A8504354A9AA58E1ABACE2ADAE62AFB02D
:107DE600B161B2B3B4E365B6B7B8B9BABBBCBD6FDF
:107DF600BE7063BF79E478E5C0C1E6C2C3C4C5C638
:107E0600C700FF017F01007FFFFF7F00017F01FFA9
:107E1600000001010202030404050606070708091B
:107E26000901000A006400E8031027536570203238
:107E36003920323032330031353A32353A31360074
:107E46000609090600000000000E1F1B1F0E000099
:107E560000001F1F1F00000000040F1F0F0400007A
:107E660000041E1F1E0400000E1111110A1B000043
:107E760000000815020000002020202020202020DD
:107E86002045584954202020202020202000202052
:107E9600202020414C41524D2054454D5020202059
:107EA60020200020202053455420313030252050FA
:107EB6004F57455220202000202020454449542079
:107EC600524553495354414E4345202000202053E8
:107ED600415645204C4F41442044454641554C545B
:107EE60020005265736973743A253032752E2575F4
:107EF600204F686D20002D50484153452044494D80
:107F06004D455220535441422D004C6F6E672070F0
:107F16007265737320666F72207361766500202028
:107F26002D2057686F6C652070617274202D20209B
:107F36000020202D204672616374207061727420C7
:107F46002D20200020202020746F20454550524FC0
:107F56004D2E002863294976616E5F66642076257A
:107F6600730054656D703A25752563252D346300BD
:107F7600552D5365743A252D33755600552D4F757D
:107F8600743A252D33755600412D6C653A252D35ED
:107F9600752000552D496E3A252D33755600502A09
:107FA6003A2563252D3475570050723A2563252DE1
:107FB60034755700416C61726D3A252D3373004E4E
:107FC6004F542053544142210053544142494C4995
:107FD6005A450031382E31302E32320025633D2588
:107FE600752E257500286E756C6C29002573202565
:0A7FF60073004F4646004F4E000096
:020000040020DA
:08000000FFFFFFFFFFFFFFFF00
:020000040030CA
:0E000000FF081E17FF8081FF0FC00FE00F40AA
:0200000400F00A
:0800000018145A000000000072
:00000001FF
